{
  "_format": "hh-sol-artifact-1",
  "contractName": "PWNVault",
  "sourceName": "contracts/PWNVault.sol",
  "abi": [
    {
      "inputs": [],
      "stateMutability": "nonpayable",
      "type": "constructor"
    },
    {
      "anonymous": false,
      "inputs": [
        {
          "indexed": true,
          "internalType": "address",
          "name": "previousOwner",
          "type": "address"
        },
        {
          "indexed": true,
          "internalType": "address",
          "name": "newOwner",
          "type": "address"
        }
      ],
      "name": "OwnershipTransferred",
      "type": "event"
    },
    {
      "anonymous": false,
      "inputs": [
        {
          "components": [
            {
              "internalType": "address",
              "name": "assetAddress",
              "type": "address"
            },
            {
              "internalType": "enum MultiToken.Category",
              "name": "category",
              "type": "uint8"
            },
            {
              "internalType": "uint256",
              "name": "amount",
              "type": "uint256"
            },
            {
              "internalType": "uint256",
              "name": "id",
              "type": "uint256"
            }
          ],
          "indexed": false,
          "internalType": "struct MultiToken.Asset",
          "name": "asset",
          "type": "tuple"
        },
        {
          "indexed": true,
          "internalType": "address",
          "name": "origin",
          "type": "address"
        }
      ],
      "name": "VaultPull",
      "type": "event"
    },
    {
      "anonymous": false,
      "inputs": [
        {
          "components": [
            {
              "internalType": "address",
              "name": "assetAddress",
              "type": "address"
            },
            {
              "internalType": "enum MultiToken.Category",
              "name": "category",
              "type": "uint8"
            },
            {
              "internalType": "uint256",
              "name": "amount",
              "type": "uint256"
            },
            {
              "internalType": "uint256",
              "name": "id",
              "type": "uint256"
            }
          ],
          "indexed": false,
          "internalType": "struct MultiToken.Asset",
          "name": "asset",
          "type": "tuple"
        },
        {
          "indexed": true,
          "internalType": "address",
          "name": "beneficiary",
          "type": "address"
        }
      ],
      "name": "VaultPush",
      "type": "event"
    },
    {
      "anonymous": false,
      "inputs": [
        {
          "components": [
            {
              "internalType": "address",
              "name": "assetAddress",
              "type": "address"
            },
            {
              "internalType": "enum MultiToken.Category",
              "name": "category",
              "type": "uint8"
            },
            {
              "internalType": "uint256",
              "name": "amount",
              "type": "uint256"
            },
            {
              "internalType": "uint256",
              "name": "id",
              "type": "uint256"
            }
          ],
          "indexed": false,
          "internalType": "struct MultiToken.Asset",
          "name": "asset",
          "type": "tuple"
        },
        {
          "indexed": true,
          "internalType": "address",
          "name": "origin",
          "type": "address"
        },
        {
          "indexed": true,
          "internalType": "address",
          "name": "beneficiary",
          "type": "address"
        }
      ],
      "name": "VaultPushFrom",
      "type": "event"
    },
    {
      "inputs": [],
      "name": "PWN",
      "outputs": [
        {
          "internalType": "address",
          "name": "",
          "type": "address"
        }
      ],
      "stateMutability": "view",
      "type": "function"
    },
    {
      "inputs": [
        {
          "internalType": "address",
          "name": "",
          "type": "address"
        },
        {
          "internalType": "address",
          "name": "",
          "type": "address"
        },
        {
          "internalType": "uint256[]",
          "name": "",
          "type": "uint256[]"
        },
        {
          "internalType": "uint256[]",
          "name": "",
          "type": "uint256[]"
        },
        {
          "internalType": "bytes",
          "name": "",
          "type": "bytes"
        }
      ],
      "name": "onERC1155BatchReceived",
      "outputs": [
        {
          "internalType": "bytes4",
          "name": "",
          "type": "bytes4"
        }
      ],
      "stateMutability": "pure",
      "type": "function"
    },
    {
      "inputs": [
        {
          "internalType": "address",
          "name": "",
          "type": "address"
        },
        {
          "internalType": "address",
          "name": "",
          "type": "address"
        },
        {
          "internalType": "uint256",
          "name": "",
          "type": "uint256"
        },
        {
          "internalType": "uint256",
          "name": "",
          "type": "uint256"
        },
        {
          "internalType": "bytes",
          "name": "",
          "type": "bytes"
        }
      ],
      "name": "onERC1155Received",
      "outputs": [
        {
          "internalType": "bytes4",
          "name": "",
          "type": "bytes4"
        }
      ],
      "stateMutability": "pure",
      "type": "function"
    },
    {
      "inputs": [],
      "name": "owner",
      "outputs": [
        {
          "internalType": "address",
          "name": "",
          "type": "address"
        }
      ],
      "stateMutability": "view",
      "type": "function"
    },
    {
      "inputs": [
        {
          "components": [
            {
              "internalType": "address",
              "name": "assetAddress",
              "type": "address"
            },
            {
              "internalType": "enum MultiToken.Category",
              "name": "category",
              "type": "uint8"
            },
            {
              "internalType": "uint256",
              "name": "amount",
              "type": "uint256"
            },
            {
              "internalType": "uint256",
              "name": "id",
              "type": "uint256"
            }
          ],
          "internalType": "struct MultiToken.Asset",
          "name": "_asset",
          "type": "tuple"
        },
        {
          "internalType": "address",
          "name": "_origin",
          "type": "address"
        }
      ],
      "name": "pull",
      "outputs": [
        {
          "internalType": "bool",
          "name": "",
          "type": "bool"
        }
      ],
      "stateMutability": "nonpayable",
      "type": "function"
    },
    {
      "inputs": [
        {
          "components": [
            {
              "internalType": "address",
              "name": "assetAddress",
              "type": "address"
            },
            {
              "internalType": "enum MultiToken.Category",
              "name": "category",
              "type": "uint8"
            },
            {
              "internalType": "uint256",
              "name": "amount",
              "type": "uint256"
            },
            {
              "internalType": "uint256",
              "name": "id",
              "type": "uint256"
            }
          ],
          "internalType": "struct MultiToken.Asset",
          "name": "_asset",
          "type": "tuple"
        },
        {
          "internalType": "address",
          "name": "_beneficiary",
          "type": "address"
        }
      ],
      "name": "push",
      "outputs": [
        {
          "internalType": "bool",
          "name": "",
          "type": "bool"
        }
      ],
      "stateMutability": "nonpayable",
      "type": "function"
    },
    {
      "inputs": [
        {
          "components": [
            {
              "internalType": "address",
              "name": "assetAddress",
              "type": "address"
            },
            {
              "internalType": "enum MultiToken.Category",
              "name": "category",
              "type": "uint8"
            },
            {
              "internalType": "uint256",
              "name": "amount",
              "type": "uint256"
            },
            {
              "internalType": "uint256",
              "name": "id",
              "type": "uint256"
            }
          ],
          "internalType": "struct MultiToken.Asset",
          "name": "_asset",
          "type": "tuple"
        },
        {
          "internalType": "address",
          "name": "_origin",
          "type": "address"
        },
        {
          "internalType": "address",
          "name": "_beneficiary",
          "type": "address"
        }
      ],
      "name": "pushFrom",
      "outputs": [
        {
          "internalType": "bool",
          "name": "",
          "type": "bool"
        }
      ],
      "stateMutability": "nonpayable",
      "type": "function"
    },
    {
      "inputs": [],
      "name": "renounceOwnership",
      "outputs": [],
      "stateMutability": "nonpayable",
      "type": "function"
    },
    {
      "inputs": [
        {
          "internalType": "address",
          "name": "_address",
          "type": "address"
        }
      ],
      "name": "setPWN",
      "outputs": [],
      "stateMutability": "nonpayable",
      "type": "function"
    },
    {
      "inputs": [
        {
          "internalType": "bytes4",
          "name": "interfaceId",
          "type": "bytes4"
        }
      ],
      "name": "supportsInterface",
      "outputs": [
        {
          "internalType": "bool",
          "name": "",
          "type": "bool"
        }
      ],
      "stateMutability": "pure",
      "type": "function"
    },
    {
      "inputs": [
        {
          "internalType": "address",
          "name": "newOwner",
          "type": "address"
        }
      ],
      "name": "transferOwnership",
      "outputs": [],
      "stateMutability": "nonpayable",
      "type": "function"
    },
    {
      "inputs": [
        {
          "internalType": "address",
          "name": "_origin",
          "type": "address"
        },
        {
          "internalType": "address",
          "name": "_beneficiary",
          "type": "address"
        },
        {
          "internalType": "address",
          "name": "_token",
          "type": "address"
        },
        {
          "internalType": "uint256",
          "name": "_amount",
          "type": "uint256"
        }
      ],
      "name": "trasferERC20From",
      "outputs": [
        {
          "internalType": "bool",
          "name": "",
          "type": "bool"
        }
      ],
      "stateMutability": "nonpayable",
      "type": "function"
    }
  ],
  "bytecode": "0x608060405234801561001057600080fd5b5061001a3361001f565b61006f565b600080546001600160a01b038381166001600160a01b0319831681178455604051919092169283917f8be0079c531659141344cd1fd0a4f28419497f9722a3daafe3b4186f6b6457e09190a35050565b610e818061007e6000396000f3fe608060405234801561001057600080fd5b50600436106100b45760003560e01c806391d7cde61161007157806391d7cde61461014d578063bc197c8114610160578063c59be5b61461019b578063d4f6b1d4146101ae578063f23a6e61146101c1578063f2fde38b146101e157600080fd5b806301ffc9a7146100b9578063715018a6146100e15780637c95e34a146100eb578063805094c7146100fe5780638c26ba0c146101295780638da5cb5b1461013c575b600080fd5b6100cc6100c7366004610c97565b6101f4565b60405190151581526020015b60405180910390f35b6100e9610261565b005b6100cc6100f9366004610cbf565b6102a0565b600154610111906001600160a01b031681565b6040516001600160a01b0390911681526020016100d8565b6100e9610137366004610adf565b610321565b6000546001600160a01b0316610111565b6100cc61015b366004610cf2565b61036d565b61018261016e366004610b4a565b63bc197c8160e01b98975050505050505050565b6040516001600160e01b031990911681526020016100d8565b6100cc6101a9366004610b00565b6103fa565b6100cc6101bc366004610cbf565b6104b2565b6101826101cf366004610c01565b63f23a6e6160e01b9695505050505050565b6100e96101ef366004610adf565b610523565b60006001600160e01b031982166301ffc9a760e01b148061022557506001600160e01b03198216630704183b60e11b145b8061024057506001600160e01b03198216630271189760e51b145b8061025b57506001600160e01b031982166335c2b1b360e01b145b92915050565b6000546001600160a01b031633146102945760405162461bcd60e51b815260040161028b90610dc0565b60405180910390fd5b61029e60006105be565b565b6001546000906001600160a01b031633146102cd5760405162461bcd60e51b815260040161028b90610d91565b6102d7838361060e565b816001600160a01b03167f1f93aaa10a96701ea3371e37145654d4fa901bed129df7ecce75ec1720ce675d846040516103109190610df5565b60405180910390a250600192915050565b6000546001600160a01b0316331461034b5760405162461bcd60e51b815260040161028b90610dc0565b600180546001600160a01b0319166001600160a01b0392909216919091179055565b6001546000906001600160a01b0316331461039a5760405162461bcd60e51b815260040161028b90610d91565b6103a58484846107e1565b816001600160a01b0316836001600160a01b03167fa56c8ed66794d77281d6aea0d94c80efe86b229490ee4709f3c089f14d6d76f0866040516103e89190610df5565b60405180910390a35060019392505050565b6001546000906001600160a01b031633146104275760405162461bcd60e51b815260040161028b90610d91565b6040516323b872dd60e01b81526001600160a01b038416906323b872dd9061045790889088908790600401610d35565b602060405180830381600087803b15801561047157600080fd5b505af1158015610485573d6000803e3d6000fd5b505050506040513d601f19601f820116820180604052508101906104a99190610c77565b95945050505050565b6001546000906001600160a01b031633146104df5760405162461bcd60e51b815260040161028b90610d91565b6104ea8383306107e1565b816001600160a01b03167f7afe4d28a8b28f36043a4efb76fd76734f72ab668f4ff0cd63164bb9357b83e5846040516103109190610df5565b6000546001600160a01b0316331461054d5760405162461bcd60e51b815260040161028b90610dc0565b6001600160a01b0381166105b25760405162461bcd60e51b815260206004820152602660248201527f4f776e61626c653a206e6577206f776e657220697320746865207a65726f206160448201526564647265737360d01b606482015260840161028b565b6105bb816105be565b50565b600080546001600160a01b038381166001600160a01b0319831681178455604051919092169283917f8be0079c531659141344cd1fd0a4f28419497f9722a3daafe3b4186f6b6457e09190a35050565b60008260200151600281111561063457634e487b7160e01b600052602160045260246000fd5b14156106cb578151604080840151905163a9059cbb60e01b81526001600160a01b03848116600483015260248201929092529082169063a9059cbb90604401602060405180830381600087803b15801561068d57600080fd5b505af11580156106a1573d6000803e3d6000fd5b505050506040513d601f19601f820116820180604052508101906106c59190610c77565b50505050565b6001826020015160028111156106f157634e487b7160e01b600052602160045260246000fd5b141561076457815160608301516040516323b872dd60e01b81526001600160a01b038316916323b872dd9161072d913091879190600401610d35565b600060405180830381600087803b15801561074757600080fd5b505af115801561075b573d6000803e3d6000fd5b50505050505050565b60028260200151600281111561078a57634e487b7160e01b600052602160045260246000fd5b14156107dd57815160408301516107a357600160408401525b60608301516040808501519051637921219560e11b81526001600160a01b0384169263f242432a9261072d92309288929091600401610d59565b5050565b60008360200151600281111561080757634e487b7160e01b600052602160045260246000fd5b141561089c57825160408085015190516323b872dd60e01b81526001600160a01b038316916323b872dd91610843918791879190600401610d35565b602060405180830381600087803b15801561085d57600080fd5b505af1158015610871573d6000803e3d6000fd5b505050506040513d601f19601f820116820180604052508101906108959190610c77565b5050505050565b6001836020015160028111156108c257634e487b7160e01b600052602160045260246000fd5b141561093657825160608401516040516323b872dd60e01b81526001600160a01b038316916323b872dd916108fe918791879190600401610d35565b600060405180830381600087803b15801561091857600080fd5b505af115801561092c573d6000803e3d6000fd5b5050505050505050565b60028360200151600281111561095c57634e487b7160e01b600052602160045260246000fd5b14156109af578251604084015161097557600160408501525b60608401516040808601519051637921219560e11b81526001600160a01b0384169263f242432a926108fe92889288929091600401610d59565b505050565b80356001600160a01b03811681146109cb57600080fd5b919050565b60008083601f8401126109e1578182fd5b50813567ffffffffffffffff8111156109f8578182fd5b6020830191508360208260051b8501011115610a1357600080fd5b9250929050565b60008083601f840112610a2b578182fd5b50813567ffffffffffffffff811115610a42578182fd5b602083019150836020828501011115610a1357600080fd5b600060808284031215610a6b578081fd5b6040516080810181811067ffffffffffffffff82111715610a9a57634e487b7160e01b83526041600452602483fd5b604052905080610aa9836109b4565b8152602083013560038110610abd57600080fd5b8060208301525060408301356040820152606083013560608201525092915050565b600060208284031215610af0578081fd5b610af9826109b4565b9392505050565b60008060008060808587031215610b15578283fd5b610b1e856109b4565b9350610b2c602086016109b4565b9250610b3a604086016109b4565b9396929550929360600135925050565b60008060008060008060008060a0898b031215610b65578384fd5b610b6e896109b4565b9750610b7c60208a016109b4565b9650604089013567ffffffffffffffff80821115610b98578586fd5b610ba48c838d016109d0565b909850965060608b0135915080821115610bbc578586fd5b610bc88c838d016109d0565b909650945060808b0135915080821115610be0578384fd5b50610bed8b828c01610a1a565b999c989b5096995094979396929594505050565b60008060008060008060a08789031215610c19578182fd5b610c22876109b4565b9550610c30602088016109b4565b94506040870135935060608701359250608087013567ffffffffffffffff811115610c59578283fd5b610c6589828a01610a1a565b979a9699509497509295939492505050565b600060208284031215610c88578081fd5b81518015158114610af9578182fd5b600060208284031215610ca8578081fd5b81356001600160e01b031981168114610af9578182fd5b60008060a08385031215610cd1578182fd5b610cdb8484610a5a565b9150610ce9608084016109b4565b90509250929050565b600080600060c08486031215610d06578283fd5b610d108585610a5a565b9250610d1e608085016109b4565b9150610d2c60a085016109b4565b90509250925092565b6001600160a01b039384168152919092166020820152604081019190915260600190565b6001600160a01b0394851681529290931660208301526040820152606081019190915260a06080820181905260009082015260c00190565b60208082526015908201527421b0b63632b91034b9903737ba103a343290282ba760591b604082015260600190565b6020808252818101527f4f776e61626c653a2063616c6c6572206973206e6f7420746865206f776e6572604082015260600190565b81516001600160a01b031681526020820151608082019060038110610e2a57634e487b7160e01b600052602160045260246000fd5b8060208401525060408301516040830152606083015160608301529291505056fea2646970667358221220c66e6d03913c1a9779b31094472eb48d1d552be7b1d6fadd3a42e28abcbe1ff564736f6c63430008040033",
  "linkReferences": {},
  "deployedLinkReferences": {}
}