{
  "_format": "hh-sol-artifact-1",
  "contractName": "PWNGroupOffer",
  "sourceName": "contracts/PWNGroupOffer.sol",
  "abi": [
    {
      "inputs": [
        {
          "internalType": "address",
          "name": "_pwn",
          "type": "address"
        },
        {
          "internalType": "address",
          "name": "_pwnDeed",
          "type": "address"
        },
        {
          "components": [
            {
              "internalType": "address",
              "name": "collateralAddress",
              "type": "address"
            },
            {
              "internalType": "enum MultiToken.Category",
              "name": "collateralCategory",
              "type": "uint8"
            },
            {
              "internalType": "uint256",
              "name": "collateralAmount",
              "type": "uint256"
            },
            {
              "internalType": "uint256",
              "name": "collateralId",
              "type": "uint256"
            },
            {
              "internalType": "address",
              "name": "loanAssetAddress",
              "type": "address"
            },
            {
              "internalType": "uint256",
              "name": "loanAmount",
              "type": "uint256"
            },
            {
              "internalType": "uint256",
              "name": "loanYield",
              "type": "uint256"
            },
            {
              "internalType": "uint32",
              "name": "duration",
              "type": "uint32"
            }
          ],
          "internalType": "struct PWNDeed.LoanParams",
          "name": "_loanParams",
          "type": "tuple"
        },
        {
          "internalType": "string",
          "name": "_name",
          "type": "string"
        },
        {
          "internalType": "string",
          "name": "_symbol",
          "type": "string"
        }
      ],
      "stateMutability": "nonpayable",
      "type": "constructor"
    },
    {
      "anonymous": false,
      "inputs": [
        {
          "indexed": true,
          "internalType": "address",
          "name": "owner",
          "type": "address"
        },
        {
          "indexed": true,
          "internalType": "address",
          "name": "spender",
          "type": "address"
        },
        {
          "indexed": false,
          "internalType": "uint256",
          "name": "value",
          "type": "uint256"
        }
      ],
      "name": "Approval",
      "type": "event"
    },
    {
      "anonymous": false,
      "inputs": [
        {
          "indexed": true,
          "internalType": "uint256",
          "name": "did",
          "type": "uint256"
        }
      ],
      "name": "DeedClaimed",
      "type": "event"
    },
    {
      "anonymous": false,
      "inputs": [
        {
          "indexed": true,
          "internalType": "address",
          "name": "lender",
          "type": "address"
        },
        {
          "indexed": false,
          "internalType": "uint256",
          "name": "amount",
          "type": "uint256"
        }
      ],
      "name": "LenderClaimed",
      "type": "event"
    },
    {
      "anonymous": false,
      "inputs": [
        {
          "indexed": true,
          "internalType": "address",
          "name": "previousOwner",
          "type": "address"
        },
        {
          "indexed": true,
          "internalType": "address",
          "name": "newOwner",
          "type": "address"
        }
      ],
      "name": "OwnershipTransferred",
      "type": "event"
    },
    {
      "anonymous": false,
      "inputs": [
        {
          "indexed": true,
          "internalType": "address",
          "name": "from",
          "type": "address"
        },
        {
          "indexed": true,
          "internalType": "address",
          "name": "to",
          "type": "address"
        },
        {
          "indexed": false,
          "internalType": "uint256",
          "name": "value",
          "type": "uint256"
        }
      ],
      "name": "Transfer",
      "type": "event"
    },
    {
      "inputs": [
        {
          "internalType": "address",
          "name": "owner",
          "type": "address"
        },
        {
          "internalType": "address",
          "name": "spender",
          "type": "address"
        }
      ],
      "name": "allowance",
      "outputs": [
        {
          "internalType": "uint256",
          "name": "",
          "type": "uint256"
        }
      ],
      "stateMutability": "view",
      "type": "function"
    },
    {
      "inputs": [
        {
          "internalType": "address",
          "name": "spender",
          "type": "address"
        },
        {
          "internalType": "uint256",
          "name": "amount",
          "type": "uint256"
        }
      ],
      "name": "approve",
      "outputs": [
        {
          "internalType": "bool",
          "name": "",
          "type": "bool"
        }
      ],
      "stateMutability": "nonpayable",
      "type": "function"
    },
    {
      "inputs": [
        {
          "internalType": "address",
          "name": "account",
          "type": "address"
        }
      ],
      "name": "balanceOf",
      "outputs": [
        {
          "internalType": "uint256",
          "name": "",
          "type": "uint256"
        }
      ],
      "stateMutability": "view",
      "type": "function"
    },
    {
      "inputs": [
        {
          "internalType": "uint256",
          "name": "_did",
          "type": "uint256"
        }
      ],
      "name": "claim",
      "outputs": [],
      "stateMutability": "nonpayable",
      "type": "function"
    },
    {
      "inputs": [],
      "name": "claimPart",
      "outputs": [],
      "stateMutability": "nonpayable",
      "type": "function"
    },
    {
      "inputs": [],
      "name": "decimals",
      "outputs": [
        {
          "internalType": "uint8",
          "name": "",
          "type": "uint8"
        }
      ],
      "stateMutability": "view",
      "type": "function"
    },
    {
      "inputs": [
        {
          "internalType": "address",
          "name": "spender",
          "type": "address"
        },
        {
          "internalType": "uint256",
          "name": "subtractedValue",
          "type": "uint256"
        }
      ],
      "name": "decreaseAllowance",
      "outputs": [
        {
          "internalType": "bool",
          "name": "",
          "type": "bool"
        }
      ],
      "stateMutability": "nonpayable",
      "type": "function"
    },
    {
      "inputs": [
        {
          "internalType": "address",
          "name": "spender",
          "type": "address"
        },
        {
          "internalType": "uint256",
          "name": "addedValue",
          "type": "uint256"
        }
      ],
      "name": "increaseAllowance",
      "outputs": [
        {
          "internalType": "bool",
          "name": "",
          "type": "bool"
        }
      ],
      "stateMutability": "nonpayable",
      "type": "function"
    },
    {
      "inputs": [],
      "name": "loanParams",
      "outputs": [
        {
          "internalType": "address",
          "name": "collateralAddress",
          "type": "address"
        },
        {
          "internalType": "enum MultiToken.Category",
          "name": "collateralCategory",
          "type": "uint8"
        },
        {
          "internalType": "uint256",
          "name": "collateralAmount",
          "type": "uint256"
        },
        {
          "internalType": "uint256",
          "name": "collateralId",
          "type": "uint256"
        },
        {
          "internalType": "address",
          "name": "loanAssetAddress",
          "type": "address"
        },
        {
          "internalType": "uint256",
          "name": "loanAmount",
          "type": "uint256"
        },
        {
          "internalType": "uint256",
          "name": "loanYield",
          "type": "uint256"
        },
        {
          "internalType": "uint32",
          "name": "duration",
          "type": "uint32"
        }
      ],
      "stateMutability": "view",
      "type": "function"
    },
    {
      "inputs": [],
      "name": "name",
      "outputs": [
        {
          "internalType": "string",
          "name": "",
          "type": "string"
        }
      ],
      "stateMutability": "view",
      "type": "function"
    },
    {
      "inputs": [
        {
          "internalType": "address",
          "name": "",
          "type": "address"
        },
        {
          "internalType": "address",
          "name": "",
          "type": "address"
        },
        {
          "internalType": "uint256[]",
          "name": "",
          "type": "uint256[]"
        },
        {
          "internalType": "uint256[]",
          "name": "",
          "type": "uint256[]"
        },
        {
          "internalType": "bytes",
          "name": "",
          "type": "bytes"
        }
      ],
      "name": "onERC1155BatchReceived",
      "outputs": [
        {
          "internalType": "bytes4",
          "name": "",
          "type": "bytes4"
        }
      ],
      "stateMutability": "pure",
      "type": "function"
    },
    {
      "inputs": [
        {
          "internalType": "address",
          "name": "",
          "type": "address"
        },
        {
          "internalType": "address",
          "name": "",
          "type": "address"
        },
        {
          "internalType": "uint256",
          "name": "",
          "type": "uint256"
        },
        {
          "internalType": "uint256",
          "name": "",
          "type": "uint256"
        },
        {
          "internalType": "bytes",
          "name": "",
          "type": "bytes"
        }
      ],
      "name": "onERC1155Received",
      "outputs": [
        {
          "internalType": "bytes4",
          "name": "",
          "type": "bytes4"
        }
      ],
      "stateMutability": "pure",
      "type": "function"
    },
    {
      "inputs": [],
      "name": "owner",
      "outputs": [
        {
          "internalType": "address",
          "name": "",
          "type": "address"
        }
      ],
      "stateMutability": "view",
      "type": "function"
    },
    {
      "inputs": [],
      "name": "pwn",
      "outputs": [
        {
          "internalType": "address",
          "name": "",
          "type": "address"
        }
      ],
      "stateMutability": "view",
      "type": "function"
    },
    {
      "inputs": [],
      "name": "pwnDeed",
      "outputs": [
        {
          "internalType": "address",
          "name": "",
          "type": "address"
        }
      ],
      "stateMutability": "view",
      "type": "function"
    },
    {
      "inputs": [],
      "name": "redeem",
      "outputs": [],
      "stateMutability": "nonpayable",
      "type": "function"
    },
    {
      "inputs": [],
      "name": "renounceOwnership",
      "outputs": [],
      "stateMutability": "nonpayable",
      "type": "function"
    },
    {
      "inputs": [
        {
          "internalType": "address",
          "name": "_owner",
          "type": "address"
        },
        {
          "internalType": "uint256",
          "name": "_shares",
          "type": "uint256"
        }
      ],
      "name": "setShareToken",
      "outputs": [],
      "stateMutability": "nonpayable",
      "type": "function"
    },
    {
      "inputs": [],
      "name": "startAuction",
      "outputs": [],
      "stateMutability": "nonpayable",
      "type": "function"
    },
    {
      "inputs": [],
      "name": "state",
      "outputs": [
        {
          "internalType": "uint8",
          "name": "",
          "type": "uint8"
        }
      ],
      "stateMutability": "view",
      "type": "function"
    },
    {
      "inputs": [
        {
          "internalType": "bytes4",
          "name": "interfaceId",
          "type": "bytes4"
        }
      ],
      "name": "supportsInterface",
      "outputs": [
        {
          "internalType": "bool",
          "name": "",
          "type": "bool"
        }
      ],
      "stateMutability": "pure",
      "type": "function"
    },
    {
      "inputs": [],
      "name": "symbol",
      "outputs": [
        {
          "internalType": "string",
          "name": "",
          "type": "string"
        }
      ],
      "stateMutability": "view",
      "type": "function"
    },
    {
      "inputs": [],
      "name": "totalSupply",
      "outputs": [
        {
          "internalType": "uint256",
          "name": "",
          "type": "uint256"
        }
      ],
      "stateMutability": "view",
      "type": "function"
    },
    {
      "inputs": [
        {
          "internalType": "address",
          "name": "recipient",
          "type": "address"
        },
        {
          "internalType": "uint256",
          "name": "amount",
          "type": "uint256"
        }
      ],
      "name": "transfer",
      "outputs": [
        {
          "internalType": "bool",
          "name": "",
          "type": "bool"
        }
      ],
      "stateMutability": "nonpayable",
      "type": "function"
    },
    {
      "inputs": [
        {
          "internalType": "address",
          "name": "sender",
          "type": "address"
        },
        {
          "internalType": "address",
          "name": "recipient",
          "type": "address"
        },
        {
          "internalType": "uint256",
          "name": "amount",
          "type": "uint256"
        }
      ],
      "name": "transferFrom",
      "outputs": [
        {
          "internalType": "bool",
          "name": "",
          "type": "bool"
        }
      ],
      "stateMutability": "nonpayable",
      "type": "function"
    },
    {
      "inputs": [
        {
          "internalType": "address",
          "name": "newOwner",
          "type": "address"
        }
      ],
      "name": "transferOwnership",
      "outputs": [],
      "stateMutability": "nonpayable",
      "type": "function"
    }
  ],
  "bytecode": "0x60806040523480156200001157600080fd5b5060405162001ace38038062001ace833981016040819052620000349162000321565b8181620000413362000168565b815162000056906004906020850190620001b8565b5080516200006c906005906020840190620001b8565b5050600680546001600160a01b038089166001600160a01b03199283161790925560078054888416908316179055855160088054919093169181168217835560208701518794509183916001600160a81b03191617600160a01b836002811115620000e757634e487b7160e01b600052602160045260246000fd5b0217905550604082015160018201556060820151600282015560808201516003820180546001600160a01b0319166001600160a01b0390921691909117905560a0820151600482015560c0820151600582015560e0909101516006909101805463ffffffff191663ffffffff90921691909117905550620004fd9350505050565b600080546001600160a01b038381166001600160a01b0319831681178455604051919092169283917f8be0079c531659141344cd1fd0a4f28419497f9722a3daafe3b4186f6b6457e09190a35050565b828054620001c690620004aa565b90600052602060002090601f016020900481019282620001ea576000855562000235565b82601f106200020557805160ff191683800117855562000235565b8280016001018555821562000235579182015b828111156200023557825182559160200191906001019062000218565b506200024392915062000247565b5090565b5b8082111562000243576000815560010162000248565b80516001600160a01b03811681146200027657600080fd5b919050565b600082601f8301126200028c578081fd5b81516001600160401b03811115620002a857620002a8620004e7565b6020620002be601f8301601f1916820162000477565b8281528582848701011115620002d2578384fd5b835b83811015620002f1578581018301518282018401528201620002d4565b838111156200030257848385840101525b5095945050505050565b805163ffffffff811681146200027657600080fd5b60008060008060008587036101808112156200033b578182fd5b62000346876200025e565b955062000356602088016200025e565b945061010080603f19830112156200036c578283fd5b620003766200044b565b915062000386604089016200025e565b82526060880151600381106200039a578384fd5b60208301526080880151604083015260a08801516060830152620003c160c089016200025e565b608083015260e088015160a083015287015160c0820152620003e761012088016200030c565b60e08201526101408701519093506001600160401b03808211156200040a578283fd5b6200041889838a016200027b565b93506101608801519150808211156200042f578283fd5b506200043e888289016200027b565b9150509295509295909350565b60405161010081016001600160401b0381118282101715620004715762000471620004e7565b60405290565b604051601f8201601f191681016001600160401b0381118282101715620004a257620004a2620004e7565b604052919050565b600181811c90821680620004bf57607f821691505b60208210811415620004e157634e487b7160e01b600052602260045260246000fd5b50919050565b634e487b7160e01b600052604160045260246000fd5b6115c1806200050d6000396000f3fe608060405234801561001057600080fd5b506004361061018e5760003560e01c806371ff3d2f116100de578063bc197c8111610097578063dd365b8b11610071578063dd365b8b146103a1578063dd62ed3e146103b4578063f23a6e61146103ed578063f2fde38b1461040d57600080fd5b8063bc197c8114610352578063be040fb014610272578063c19d93fb1461038d57600080fd5b806371ff3d2f146102e057806383f2be4d1461030b5780638da5cb5b1461031357806395d89b4114610324578063a457c2d71461032c578063a9059cbb1461033f57600080fd5b80632d8a8ea01161014b5780633950935111610125578063395093511461029c5780636b64c7691461027257806370a08231146102af578063715018a6146102d857600080fd5b80632d8a8ea01461025f578063313ce56714610274578063379607f51461028957600080fd5b806301ffc9a71461019357806306fdde03146101bb578063095ea7b3146101d057806309e94d98146101e357806318160ddd1461023a57806323b872dd1461024c575b600080fd5b6101a66101a136600461135a565b610420565b60405190151581526020015b60405180910390f35b6101c361048d565b6040516101b29190611444565b6101a66101de366004611311565b61051f565b600854600954600a54600b54600c54600d54600e54610226966001600160a01b0380821697600160a01b90920460ff169691959194911692909163ffffffff1688565b6040516101b29897969594939291906113d3565b6003545b6040519081526020016101b2565b6101a661025a366004611260565b610535565b61027261026d366004611311565b6105e4565b005b60125b60405160ff90911681526020016101b2565b610272610297366004611382565b61061c565b6101a66102aa366004611311565b610791565b61023e6102bd366004611156565b6001600160a01b031660009081526001602052604090205490565b6102726107cf565b6007546102f3906001600160a01b031681565b6040516001600160a01b0390911681526020016101b2565b610272610803565b6000546001600160a01b03166102f3565b6101c36109f7565b6101a661033a366004611311565b610a06565b6101a661034d366004611311565b610a9f565b6103746103603660046111a9565b63bc197c8160e01b98975050505050505050565b6040516001600160e01b031990911681526020016101b2565b60075461027790600160a01b900460ff1681565b6006546102f3906001600160a01b031681565b61023e6103c2366004611177565b6001600160a01b03918216600090815260026020908152604080832093909416825291909152205490565b6103746103fb36600461129b565b63f23a6e6160e01b9695505050505050565b61027261041b366004611156565b610aac565b60006001600160e01b031982166301ffc9a760e01b148061045157506001600160e01b03198216630704183b60e11b145b8061046c57506001600160e01b03198216630271189760e51b145b8061048757506001600160e01b031982166336372b0760e01b145b92915050565b60606004805461049c9061153a565b80601f01602080910402602001604051908101604052809291908181526020018280546104c89061153a565b80156105155780601f106104ea57610100808354040283529160200191610515565b820191906000526020600020905b8154815290600101906020018083116104f857829003601f168201915b5050505050905090565b600061052c338484610b47565b50600192915050565b6000610542848484610c6c565b6001600160a01b0384166000908152600260209081526040808320338452909152902054828110156105cc5760405162461bcd60e51b815260206004820152602860248201527f45524332303a207472616e7366657220616d6f756e74206578636565647320616044820152676c6c6f77616e636560c01b60648201526084015b60405180910390fd5b6105d98533858403610b47565b506001949350505050565b6000546001600160a01b0316331461060e5760405162461bcd60e51b81526004016105c390611497565b6106188282610e3b565b5050565b600754604051632e31150760e11b8152600481018390526000916001600160a01b031690635c622a0e9060240160206040518083038186803b15801561066157600080fd5b505afa158015610675573d6000803e3d6000fd5b505050506040513d601f19601f8201168201806040525081019061069991906113b2565b90508060ff16600314156106bf576007805460ff60a01b1916600160a01b1790556106df565b8060ff16600414156106df576007805460ff60a01b1916600160a11b1790555b60065460405163ea1fb74f60e01b8152600481018490526001600160a01b039091169063ea1fb74f90602401602060405180830381600087803b15801561072557600080fd5b505af1158015610739573d6000803e3d6000fd5b505050506040513d601f19601f8201168201806040525081019061075d919061133a565b5060405182907fa15f537ebc49d6f6d5217f43d2c5d2b830069397bed363fdc1d811814148ec6d90600090a2610618610803565b3360008181526002602090815260408083206001600160a01b0387168452909152812054909161052c9185906107c89086906114cc565b610b47565b565b6000546001600160a01b031633146107f95760405162461bcd60e51b81526004016105c390611497565b6107cd6000610f1a565b600754600160a01b900460ff166001146108755760405162461bcd60e51b815260206004820152602d60248201527f4465656420686173206e6f74206265656e20636c61696d656420796574206f7260448201526c081a5cc8191959985d5b1d1959609a1b60648201526084016105c3565b600061088060035490565b600b546040516370a0823160e01b81523060048201526001600160a01b03909116906370a082319060240160206040518083038186803b1580156108c357600080fd5b505afa1580156108d7573d6000803e3d6000fd5b505050506040513d601f19601f820116820180604052508101906108fb919061139a565b336000908152600160205260409020546109159190611504565b61091f91906114e4565b600b5460405163a9059cbb60e01b8152336004820152602481018390529192506001600160a01b03169063a9059cbb90604401602060405180830381600087803b15801561096c57600080fd5b505af1158015610980573d6000803e3d6000fd5b505050506040513d601f19601f820116820180604052508101906109a4919061133a565b50336000818152600160205260409020546109bf9190610f6a565b60405181815233907f52438ffde1a85dfde9df04265db0a0f54caa9ab98932b84214074743c2ed2b6c9060200160405180910390a250565b60606005805461049c9061153a565b3360009081526002602090815260408083206001600160a01b038616845290915281205482811015610a885760405162461bcd60e51b815260206004820152602560248201527f45524332303a2064656372656173656420616c6c6f77616e63652062656c6f77604482015264207a65726f60d81b60648201526084016105c3565b610a953385858403610b47565b5060019392505050565b600061052c338484610c6c565b6000546001600160a01b03163314610ad65760405162461bcd60e51b81526004016105c390611497565b6001600160a01b038116610b3b5760405162461bcd60e51b815260206004820152602660248201527f4f776e61626c653a206e6577206f776e657220697320746865207a65726f206160448201526564647265737360d01b60648201526084016105c3565b610b4481610f1a565b50565b6001600160a01b038316610ba95760405162461bcd60e51b8152602060048201526024808201527f45524332303a20617070726f76652066726f6d20746865207a65726f206164646044820152637265737360e01b60648201526084016105c3565b6001600160a01b038216610c0a5760405162461bcd60e51b815260206004820152602260248201527f45524332303a20617070726f766520746f20746865207a65726f206164647265604482015261737360f01b60648201526084016105c3565b6001600160a01b0383811660008181526002602090815260408083209487168084529482529182902085905590518481527f8c5be1e5ebec7d5bd14f71427d1e84f3dd0314c0f7b2291e5b200ac8c7c3b92591015b60405180910390a3505050565b6001600160a01b038316610cd05760405162461bcd60e51b815260206004820152602560248201527f45524332303a207472616e736665722066726f6d20746865207a65726f206164604482015264647265737360d81b60648201526084016105c3565b6001600160a01b038216610d325760405162461bcd60e51b815260206004820152602360248201527f45524332303a207472616e7366657220746f20746865207a65726f206164647260448201526265737360e81b60648201526084016105c3565b6001600160a01b03831660009081526001602052604090205481811015610daa5760405162461bcd60e51b815260206004820152602660248201527f45524332303a207472616e7366657220616d6f756e7420657863656564732062604482015265616c616e636560d01b60648201526084016105c3565b6001600160a01b03808516600090815260016020526040808220858503905591851681529081208054849290610de19084906114cc565b92505081905550826001600160a01b0316846001600160a01b03167fddf252ad1be2c89b69c2b068fc378daa952ba7f163c4a11628f55a4df523b3ef84604051610e2d91815260200190565b60405180910390a350505050565b6001600160a01b038216610e915760405162461bcd60e51b815260206004820152601f60248201527f45524332303a206d696e7420746f20746865207a65726f20616464726573730060448201526064016105c3565b8060036000828254610ea391906114cc565b90915550506001600160a01b03821660009081526001602052604081208054839290610ed09084906114cc565b90915550506040518181526001600160a01b038316906000907fddf252ad1be2c89b69c2b068fc378daa952ba7f163c4a11628f55a4df523b3ef9060200160405180910390a35050565b600080546001600160a01b038381166001600160a01b0319831681178455604051919092169283917f8be0079c531659141344cd1fd0a4f28419497f9722a3daafe3b4186f6b6457e09190a35050565b6001600160a01b038216610fca5760405162461bcd60e51b815260206004820152602160248201527f45524332303a206275726e2066726f6d20746865207a65726f206164647265736044820152607360f81b60648201526084016105c3565b6001600160a01b0382166000908152600160205260409020548181101561103e5760405162461bcd60e51b815260206004820152602260248201527f45524332303a206275726e20616d6f756e7420657863656564732062616c616e604482015261636560f01b60648201526084016105c3565b6001600160a01b038316600090815260016020526040812083830390556003805484929061106d908490611523565b90915550506040518281526000906001600160a01b038516907fddf252ad1be2c89b69c2b068fc378daa952ba7f163c4a11628f55a4df523b3ef90602001610c5f565b80356001600160a01b03811681146110c757600080fd5b919050565b60008083601f8401126110dd578182fd5b50813567ffffffffffffffff8111156110f4578182fd5b6020830191508360208260051b850101111561110f57600080fd5b9250929050565b60008083601f840112611127578182fd5b50813567ffffffffffffffff81111561113e578182fd5b60208301915083602082850101111561110f57600080fd5b600060208284031215611167578081fd5b611170826110b0565b9392505050565b60008060408385031215611189578081fd5b611192836110b0565b91506111a0602084016110b0565b90509250929050565b60008060008060008060008060a0898b0312156111c4578384fd5b6111cd896110b0565b97506111db60208a016110b0565b9650604089013567ffffffffffffffff808211156111f7578586fd5b6112038c838d016110cc565b909850965060608b013591508082111561121b578586fd5b6112278c838d016110cc565b909650945060808b013591508082111561123f578384fd5b5061124c8b828c01611116565b999c989b5096995094979396929594505050565b600080600060608486031215611274578283fd5b61127d846110b0565b925061128b602085016110b0565b9150604084013590509250925092565b60008060008060008060a087890312156112b3578182fd5b6112bc876110b0565b95506112ca602088016110b0565b94506040870135935060608701359250608087013567ffffffffffffffff8111156112f3578283fd5b6112ff89828a01611116565b979a9699509497509295939492505050565b60008060408385031215611323578182fd5b61132c836110b0565b946020939093013593505050565b60006020828403121561134b578081fd5b81518015158114611170578182fd5b60006020828403121561136b578081fd5b81356001600160e01b031981168114611170578182fd5b600060208284031215611393578081fd5b5035919050565b6000602082840312156113ab578081fd5b5051919050565b6000602082840312156113c3578081fd5b815160ff81168114611170578182fd5b6001600160a01b03898116825261010082019060038a1061140457634e487b7160e01b600052602160045260246000fd5b8960208401528860408401528760608401528087166080840152508460a08301528360c083015263ffffffff831660e08301529998505050505050505050565b6000602080835283518082850152825b8181101561147057858101830151858201604001528201611454565b818111156114815783604083870101525b50601f01601f1916929092016040019392505050565b6020808252818101527f4f776e61626c653a2063616c6c6572206973206e6f7420746865206f776e6572604082015260600190565b600082198211156114df576114df611575565b500190565b6000826114ff57634e487b7160e01b81526012600452602481fd5b500490565b600081600019048311821515161561151e5761151e611575565b500290565b60008282101561153557611535611575565b500390565b600181811c9082168061154e57607f821691505b6020821081141561156f57634e487b7160e01b600052602260045260246000fd5b50919050565b634e487b7160e01b600052601160045260246000fdfea264697066735822122007f58434480a4d72f78eb9f51692beef9d56719ebc4d6c501739362f4afc0f0c64736f6c63430008040033",
  "linkReferences": {},
  "deployedLinkReferences": {}
}