{
  "_format": "hh-sol-artifact-1",
  "contractName": "PWNGroupOffer",
  "sourceName": "contracts/PWNGroupOffer.sol",
  "abi": [
    {
      "inputs": [
        {
          "internalType": "address",
          "name": "_borrower",
          "type": "address"
        },
        {
          "internalType": "address",
          "name": "_pwn",
          "type": "address"
        },
        {
          "internalType": "address",
          "name": "_pwnDeed",
          "type": "address"
        },
        {
          "internalType": "address",
          "name": "_pwnVault",
          "type": "address"
        },
        {
          "components": [
            {
              "internalType": "address",
              "name": "collateralAddress",
              "type": "address"
            },
            {
              "internalType": "enum MultiToken.Category",
              "name": "collateralCategory",
              "type": "uint8"
            },
            {
              "internalType": "uint256",
              "name": "collateralAmount",
              "type": "uint256"
            },
            {
              "internalType": "uint256",
              "name": "collateralId",
              "type": "uint256"
            },
            {
              "internalType": "address",
              "name": "loanAssetAddress",
              "type": "address"
            },
            {
              "internalType": "uint256",
              "name": "loanAmount",
              "type": "uint256"
            },
            {
              "internalType": "uint256",
              "name": "loanYield",
              "type": "uint256"
            },
            {
              "internalType": "uint32",
              "name": "duration",
              "type": "uint32"
            },
            {
              "internalType": "uint40",
              "name": "expiration",
              "type": "uint40"
            },
            {
              "internalType": "address",
              "name": "lender",
              "type": "address"
            },
            {
              "internalType": "bytes32",
              "name": "nonce",
              "type": "bytes32"
            }
          ],
          "internalType": "struct PWNDeed.Offer",
          "name": "_offer",
          "type": "tuple"
        },
        {
          "internalType": "string",
          "name": "_name",
          "type": "string"
        },
        {
          "internalType": "string",
          "name": "_symbol",
          "type": "string"
        }
      ],
      "stateMutability": "nonpayable",
      "type": "constructor"
    },
    {
      "anonymous": false,
      "inputs": [
        {
          "indexed": true,
          "internalType": "address",
          "name": "owner",
          "type": "address"
        },
        {
          "indexed": true,
          "internalType": "address",
          "name": "spender",
          "type": "address"
        },
        {
          "indexed": false,
          "internalType": "uint256",
          "name": "value",
          "type": "uint256"
        }
      ],
      "name": "Approval",
      "type": "event"
    },
    {
      "anonymous": false,
      "inputs": [
        {
          "indexed": true,
          "internalType": "uint256",
          "name": "did",
          "type": "uint256"
        }
      ],
      "name": "DeedClaimed",
      "type": "event"
    },
    {
      "anonymous": false,
      "inputs": [
        {
          "indexed": true,
          "internalType": "address",
          "name": "lender",
          "type": "address"
        },
        {
          "indexed": false,
          "internalType": "uint256",
          "name": "amount",
          "type": "uint256"
        }
      ],
      "name": "LenderClaimed",
      "type": "event"
    },
    {
      "anonymous": false,
      "inputs": [
        {
          "indexed": true,
          "internalType": "address",
          "name": "previousOwner",
          "type": "address"
        },
        {
          "indexed": true,
          "internalType": "address",
          "name": "newOwner",
          "type": "address"
        }
      ],
      "name": "OwnershipTransferred",
      "type": "event"
    },
    {
      "anonymous": false,
      "inputs": [
        {
          "indexed": true,
          "internalType": "address",
          "name": "from",
          "type": "address"
        },
        {
          "indexed": true,
          "internalType": "address",
          "name": "to",
          "type": "address"
        },
        {
          "indexed": false,
          "internalType": "uint256",
          "name": "value",
          "type": "uint256"
        }
      ],
      "name": "Transfer",
      "type": "event"
    },
    {
      "inputs": [
        {
          "internalType": "address",
          "name": "owner",
          "type": "address"
        },
        {
          "internalType": "address",
          "name": "spender",
          "type": "address"
        }
      ],
      "name": "allowance",
      "outputs": [
        {
          "internalType": "uint256",
          "name": "",
          "type": "uint256"
        }
      ],
      "stateMutability": "view",
      "type": "function"
    },
    {
      "inputs": [
        {
          "internalType": "address",
          "name": "spender",
          "type": "address"
        },
        {
          "internalType": "uint256",
          "name": "amount",
          "type": "uint256"
        }
      ],
      "name": "approve",
      "outputs": [
        {
          "internalType": "bool",
          "name": "",
          "type": "bool"
        }
      ],
      "stateMutability": "nonpayable",
      "type": "function"
    },
    {
      "inputs": [],
      "name": "approveLoanAsset",
      "outputs": [],
      "stateMutability": "nonpayable",
      "type": "function"
    },
    {
      "inputs": [
        {
          "internalType": "address",
          "name": "account",
          "type": "address"
        }
      ],
      "name": "balanceOf",
      "outputs": [
        {
          "internalType": "uint256",
          "name": "",
          "type": "uint256"
        }
      ],
      "stateMutability": "view",
      "type": "function"
    },
    {
      "inputs": [],
      "name": "borrower",
      "outputs": [
        {
          "internalType": "address",
          "name": "",
          "type": "address"
        }
      ],
      "stateMutability": "view",
      "type": "function"
    },
    {
      "inputs": [
        {
          "internalType": "uint256",
          "name": "_did",
          "type": "uint256"
        }
      ],
      "name": "claim",
      "outputs": [],
      "stateMutability": "nonpayable",
      "type": "function"
    },
    {
      "inputs": [],
      "name": "claimPart",
      "outputs": [],
      "stateMutability": "nonpayable",
      "type": "function"
    },
    {
      "inputs": [],
      "name": "decimals",
      "outputs": [
        {
          "internalType": "uint8",
          "name": "",
          "type": "uint8"
        }
      ],
      "stateMutability": "view",
      "type": "function"
    },
    {
      "inputs": [
        {
          "internalType": "address",
          "name": "spender",
          "type": "address"
        },
        {
          "internalType": "uint256",
          "name": "subtractedValue",
          "type": "uint256"
        }
      ],
      "name": "decreaseAllowance",
      "outputs": [
        {
          "internalType": "bool",
          "name": "",
          "type": "bool"
        }
      ],
      "stateMutability": "nonpayable",
      "type": "function"
    },
    {
      "inputs": [
        {
          "internalType": "address",
          "name": "spender",
          "type": "address"
        },
        {
          "internalType": "uint256",
          "name": "addedValue",
          "type": "uint256"
        }
      ],
      "name": "increaseAllowance",
      "outputs": [
        {
          "internalType": "bool",
          "name": "",
          "type": "bool"
        }
      ],
      "stateMutability": "nonpayable",
      "type": "function"
    },
    {
      "inputs": [
        {
          "internalType": "bytes32",
          "name": "hash",
          "type": "bytes32"
        },
        {
          "internalType": "bytes",
          "name": "signature",
          "type": "bytes"
        }
      ],
      "name": "isValidSignature",
      "outputs": [
        {
          "internalType": "bytes4",
          "name": "magicValue",
          "type": "bytes4"
        }
      ],
      "stateMutability": "view",
      "type": "function"
    },
    {
      "inputs": [],
      "name": "name",
      "outputs": [
        {
          "internalType": "string",
          "name": "",
          "type": "string"
        }
      ],
      "stateMutability": "view",
      "type": "function"
    },
    {
      "inputs": [],
      "name": "offer",
      "outputs": [
        {
          "internalType": "address",
          "name": "collateralAddress",
          "type": "address"
        },
        {
          "internalType": "enum MultiToken.Category",
          "name": "collateralCategory",
          "type": "uint8"
        },
        {
          "internalType": "uint256",
          "name": "collateralAmount",
          "type": "uint256"
        },
        {
          "internalType": "uint256",
          "name": "collateralId",
          "type": "uint256"
        },
        {
          "internalType": "address",
          "name": "loanAssetAddress",
          "type": "address"
        },
        {
          "internalType": "uint256",
          "name": "loanAmount",
          "type": "uint256"
        },
        {
          "internalType": "uint256",
          "name": "loanYield",
          "type": "uint256"
        },
        {
          "internalType": "uint32",
          "name": "duration",
          "type": "uint32"
        },
        {
          "internalType": "uint40",
          "name": "expiration",
          "type": "uint40"
        },
        {
          "internalType": "address",
          "name": "lender",
          "type": "address"
        },
        {
          "internalType": "bytes32",
          "name": "nonce",
          "type": "bytes32"
        }
      ],
      "stateMutability": "view",
      "type": "function"
    },
    {
      "inputs": [
        {
          "internalType": "address",
          "name": "",
          "type": "address"
        },
        {
          "internalType": "address",
          "name": "",
          "type": "address"
        },
        {
          "internalType": "uint256[]",
          "name": "",
          "type": "uint256[]"
        },
        {
          "internalType": "uint256[]",
          "name": "",
          "type": "uint256[]"
        },
        {
          "internalType": "bytes",
          "name": "",
          "type": "bytes"
        }
      ],
      "name": "onERC1155BatchReceived",
      "outputs": [
        {
          "internalType": "bytes4",
          "name": "",
          "type": "bytes4"
        }
      ],
      "stateMutability": "pure",
      "type": "function"
    },
    {
      "inputs": [
        {
          "internalType": "address",
          "name": "",
          "type": "address"
        },
        {
          "internalType": "address",
          "name": "",
          "type": "address"
        },
        {
          "internalType": "uint256",
          "name": "",
          "type": "uint256"
        },
        {
          "internalType": "uint256",
          "name": "",
          "type": "uint256"
        },
        {
          "internalType": "bytes",
          "name": "",
          "type": "bytes"
        }
      ],
      "name": "onERC1155Received",
      "outputs": [
        {
          "internalType": "bytes4",
          "name": "",
          "type": "bytes4"
        }
      ],
      "stateMutability": "pure",
      "type": "function"
    },
    {
      "inputs": [],
      "name": "owner",
      "outputs": [
        {
          "internalType": "address",
          "name": "",
          "type": "address"
        }
      ],
      "stateMutability": "view",
      "type": "function"
    },
    {
      "inputs": [],
      "name": "pwn",
      "outputs": [
        {
          "internalType": "address",
          "name": "",
          "type": "address"
        }
      ],
      "stateMutability": "view",
      "type": "function"
    },
    {
      "inputs": [],
      "name": "pwnDeed",
      "outputs": [
        {
          "internalType": "address",
          "name": "",
          "type": "address"
        }
      ],
      "stateMutability": "view",
      "type": "function"
    },
    {
      "inputs": [],
      "name": "pwnVault",
      "outputs": [
        {
          "internalType": "address",
          "name": "",
          "type": "address"
        }
      ],
      "stateMutability": "view",
      "type": "function"
    },
    {
      "inputs": [],
      "name": "redeem",
      "outputs": [],
      "stateMutability": "nonpayable",
      "type": "function"
    },
    {
      "inputs": [],
      "name": "renounceOwnership",
      "outputs": [],
      "stateMutability": "nonpayable",
      "type": "function"
    },
    {
      "inputs": [
        {
          "internalType": "address",
          "name": "_owner",
          "type": "address"
        },
        {
          "internalType": "uint256",
          "name": "_shares",
          "type": "uint256"
        }
      ],
      "name": "setShareToken",
      "outputs": [],
      "stateMutability": "nonpayable",
      "type": "function"
    },
    {
      "inputs": [],
      "name": "startAuction",
      "outputs": [],
      "stateMutability": "nonpayable",
      "type": "function"
    },
    {
      "inputs": [],
      "name": "state",
      "outputs": [
        {
          "internalType": "uint8",
          "name": "",
          "type": "uint8"
        }
      ],
      "stateMutability": "view",
      "type": "function"
    },
    {
      "inputs": [
        {
          "internalType": "bytes4",
          "name": "interfaceId",
          "type": "bytes4"
        }
      ],
      "name": "supportsInterface",
      "outputs": [
        {
          "internalType": "bool",
          "name": "",
          "type": "bool"
        }
      ],
      "stateMutability": "pure",
      "type": "function"
    },
    {
      "inputs": [],
      "name": "symbol",
      "outputs": [
        {
          "internalType": "string",
          "name": "",
          "type": "string"
        }
      ],
      "stateMutability": "view",
      "type": "function"
    },
    {
      "inputs": [],
      "name": "totalSupply",
      "outputs": [
        {
          "internalType": "uint256",
          "name": "",
          "type": "uint256"
        }
      ],
      "stateMutability": "view",
      "type": "function"
    },
    {
      "inputs": [
        {
          "internalType": "address",
          "name": "recipient",
          "type": "address"
        },
        {
          "internalType": "uint256",
          "name": "amount",
          "type": "uint256"
        }
      ],
      "name": "transfer",
      "outputs": [
        {
          "internalType": "bool",
          "name": "",
          "type": "bool"
        }
      ],
      "stateMutability": "nonpayable",
      "type": "function"
    },
    {
      "inputs": [
        {
          "internalType": "address",
          "name": "sender",
          "type": "address"
        },
        {
          "internalType": "address",
          "name": "recipient",
          "type": "address"
        },
        {
          "internalType": "uint256",
          "name": "amount",
          "type": "uint256"
        }
      ],
      "name": "transferFrom",
      "outputs": [
        {
          "internalType": "bool",
          "name": "",
          "type": "bool"
        }
      ],
      "stateMutability": "nonpayable",
      "type": "function"
    },
    {
      "inputs": [
        {
          "internalType": "address",
          "name": "newOwner",
          "type": "address"
        }
      ],
      "name": "transferOwnership",
      "outputs": [],
      "stateMutability": "nonpayable",
      "type": "function"
    }
  ],
  "bytecode": "0x60806040523480156200001157600080fd5b50604051620025bc380380620025bc8339810160408190526200003491620003af565b81816200004133620001d0565b81516200005690600490602085019062000220565b5080516200006c90600590602084019062000220565b5050600680546001600160a01b03808b166001600160a01b031992831617909255600780548a841690831617905560088054898416908316179055600980548884169083161790558551600a8054919093169181168217835560208701518794509183916001600160a81b03191617600160a01b8360028111156200010157634e487b7160e01b600052602160045260246000fd5b0217905550604082015160018201556060820151600282015560808201516003820180546001600160a01b039283166001600160a01b031990911617905560a0830151600483015560c0830151600583015560e0830151600683018054610100860151610120870151909416690100000000000000000002600160481b600160e81b031964ffffffffff909516640100000000026001600160481b031990921663ffffffff9094169390931717929092161790556101409091015160079091015550620005e795505050505050565b600080546001600160a01b038381166001600160a01b0319831681178455604051919092169283917f8be0079c531659141344cd1fd0a4f28419497f9722a3daafe3b4186f6b6457e09190a35050565b8280546200022e9062000594565b90600052602060002090601f0160209004810192826200025257600085556200029d565b82601f106200026d57805160ff19168380011785556200029d565b828001600101855582156200029d579182015b828111156200029d57825182559160200191906001019062000280565b50620002ab929150620002af565b5090565b5b80821115620002ab5760008155600101620002b0565b80516001600160a01b0381168114620002de57600080fd5b919050565b805160038110620002de57600080fd5b600082601f83011262000304578081fd5b81516001600160401b03811115620003205762000320620005d1565b602062000336601f8301601f1916820162000561565b82815285828487010111156200034a578384fd5b835b83811015620003695785810183015182820184015282016200034c565b838111156200037a57848385840101525b5095945050505050565b805163ffffffff81168114620002de57600080fd5b805164ffffffffff81168114620002de57600080fd5b6000806000806000806000878903610220811215620003cc578384fd5b620003d789620002c6565b9750620003e760208a01620002c6565b9650620003f760408a01620002c6565b95506200040760608a01620002c6565b945061016080607f19830112156200041d578485fd5b6200042762000535565b91506200043760808b01620002c6565b82526200044760a08b01620002e3565b602083015260c08a0151604083015260e08a0151606083015261010062000470818c01620002c6565b6080840152610120808c015160a0850152610140808d015160c08601526200049a848e0162000384565b60e0860152620004ae6101808e0162000399565b83860152620004c16101a08e01620002c6565b918501919091526101c08c01519084015250506101e08901519093506001600160401b0380821115620004f2578384fd5b620005008b838c01620002f3565b93506102008a015191508082111562000517578283fd5b50620005268a828b01620002f3565b91505092959891949750929550565b60405161016081016001600160401b03811182821017156200055b576200055b620005d1565b60405290565b604051601f8201601f191681016001600160401b03811182821017156200058c576200058c620005d1565b604052919050565b600181811c90821680620005a957607f821691505b60208210811415620005cb57634e487b7160e01b600052602260045260246000fd5b50919050565b634e487b7160e01b600052604160045260246000fd5b611fc580620005f76000396000f3fe608060405234801561001057600080fd5b50600436106101da5760003560e01c806383f2be4d11610104578063be040fb0116100a2578063dd365b8b11610071578063dd365b8b14610453578063dd62ed3e14610466578063f23a6e611461049f578063f2fde38b146104bf57600080fd5b8063be040fb014610293578063c028df06146103b0578063c19d93fb1461042c578063d3c77c191461044057600080fd5b806397d2e9b5116100de57806397d2e9b514610360578063a457c2d714610368578063a9059cbb1461037b578063bc197c811461038e57600080fd5b806383f2be4d1461033f5780638da5cb5b1461034757806395d89b411461035857600080fd5b8063313ce5671161017c57806370a082311161014b57806370a08231146102d0578063715018a6146102f957806371ff3d2f146103015780637df1f1b91461032c57600080fd5b8063313ce56714610295578063379607f5146102aa57806339509351146102bd5780636b64c7691461029357600080fd5b80631626ba7e116101b85780631626ba7e1461022f57806318160ddd1461025b57806323b872dd1461026d5780632d8a8ea01461028057600080fd5b806301ffc9a7146101df57806306fdde0314610207578063095ea7b31461021c575b600080fd5b6101f26101ed366004611c9b565b6104d2565b60405190151581526020015b60405180910390f35b61020f61055a565b6040516101fe9190611e32565b6101f261022a366004611b9c565b6105ec565b61024261023d366004611be5565b610602565b6040516001600160e01b031990911681526020016101fe565b6003545b6040519081526020016101fe565b6101f261027b366004611aeb565b6108ff565b61029361028e366004611b9c565b6109a9565b005b60125b60405160ff90911681526020016101fe565b6102936102b8366004611cc3565b6109e1565b6101f26102cb366004611b9c565b610b56565b61025f6102de3660046119e1565b6001600160a01b031660009081526001602052604090205490565b610293610b94565b600854610314906001600160a01b031681565b6040516001600160a01b0390911681526020016101fe565b600654610314906001600160a01b031681565b610293610bc8565b6000546001600160a01b0316610314565b61020f610dbc565b610293610dcb565b6101f2610376366004611b9c565b610e5a565b6101f2610389366004611b9c565b610ef3565b61024261039c366004611a34565b63bc197c8160e01b98975050505050505050565b600a54600b54600c54600d54600e54600f54601054601154610415976001600160a01b0380821698600160a01b90920460ff169791969195918116949193919263ffffffff831692640100000000810464ffffffffff1692600160481b90910416908b565b6040516101fe9b9a99989796959493929190611d36565b60095461029890600160a01b900460ff1681565b600954610314906001600160a01b031681565b600754610314906001600160a01b031681565b61025f610474366004611a02565b6001600160a01b03918216600090815260026020908152604080832093909416825291909152205490565b6102426104ad366004611b26565b63f23a6e6160e01b9695505050505050565b6102936104cd3660046119e1565b610f00565b60006001600160e01b031982166301ffc9a760e01b148061050357506001600160e01b03198216630704183b60e11b145b8061051e57506001600160e01b03198216630271189760e51b145b8061053957506001600160e01b03198216630b135d3f60e11b145b8061055457506001600160e01b031982166336372b0760e01b145b92915050565b60606004805461056990611f28565b80601f016020809104026020016040519081016040528092919081815260200182805461059590611f28565b80156105e25780601f106105b7576101008083540402835291602001916105e2565b820191906000526020600020905b8154815290600101906020018083116105c557829003601f168201915b5050505050905090565b60006105f9338484610f98565b50600192915050565b6006546000906001600160a01b031661061b84846110bd565b6001600160a01b0316146106855760405162461bcd60e51b815260206004820152602660248201527f426f72726f7765722061646472657373206469646e2774207369676e207468656044820152651037b33332b960d11b60648201526084015b60405180910390fd5b60006107616040805180820182526003815262282ba760e91b6020918201528151808301835260018152603160f81b9082015260085482517f8b73c3c69bb8fe3d512ecc4cf759cc79239f7b179b0ffacaa9a75d522b39400f818401527fbecbc5e7d5b58d6f1c8ea79197877ea15b6d3f333b75c73ffc7ce124e395e163818501527fc89efdaa54c0f20c7adf612882df0950f5a951637e0307cdcb4c672f298b8bc660608201524660808201526001600160a01b0390911660a0808301919091528351808303909101815260c0909101909252815191012090565b604080516101608101909152600a80546001600160a01b03811683526108549291906020830190600160a01b900460ff1660028111156107b157634e487b7160e01b600052602160045260246000fd5b60028111156107d057634e487b7160e01b600052602160045260246000fd5b8152600182015460208201526002820154604082015260038201546001600160a01b03908116606083015260048301546080830152600583015460a0830152600683015463ffffffff811660c084015264ffffffffff64010000000082041660e0840152600160481b900416610100820152600790910154610120909101526110e1565b60405161190160f01b6020820152602281019290925260428201526062016040516020818303038152906040528051906020012090508381146108ef5760405162461bcd60e51b815260206004820152602d60248201527f47726f7570206f6666657220646967657374206973206e6f74206d617463686960448201526c0dcce40ced2eccadc40d0c2e6d609b1b606482015260840161067c565b50630b135d3f60e11b9392505050565b600061090c848484611171565b6001600160a01b0384166000908152600260209081526040808320338452909152902054828110156109915760405162461bcd60e51b815260206004820152602860248201527f45524332303a207472616e7366657220616d6f756e74206578636565647320616044820152676c6c6f77616e636560c01b606482015260840161067c565b61099e8533858403610f98565b506001949350505050565b6000546001600160a01b031633146109d35760405162461bcd60e51b815260040161067c90611e85565b6109dd8282611340565b5050565b600854604051632e31150760e11b8152600481018390526000916001600160a01b031690635c622a0e9060240160206040518083038186803b158015610a2657600080fd5b505afa158015610a3a573d6000803e3d6000fd5b505050506040513d601f19601f82011682018060405250810190610a5e9190611cf3565b90508060ff1660031415610a84576009805460ff60a01b1916600160a01b179055610aa4565b8060ff1660041415610aa4576009805460ff60a01b1916600160a11b1790555b60085460405163ea1fb74f60e01b8152600481018490526001600160a01b039091169063ea1fb74f90602401602060405180830381600087803b158015610aea57600080fd5b505af1158015610afe573d6000803e3d6000fd5b505050506040513d601f19601f82011682018060405250810190610b229190611bc5565b5060405182907fa15f537ebc49d6f6d5217f43d2c5d2b830069397bed363fdc1d811814148ec6d90600090a26109dd610bc8565b3360008181526002602090815260408083206001600160a01b038716845290915281205490916105f9918590610b8d908690611eba565b610f98565b565b6000546001600160a01b03163314610bbe5760405162461bcd60e51b815260040161067c90611e85565b610b92600061141f565b600954600160a01b900460ff16600114610c3a5760405162461bcd60e51b815260206004820152602d60248201527f4465656420686173206e6f74206265656e20636c61696d656420796574206f7260448201526c081a5cc8191959985d5b1d1959609a1b606482015260840161067c565b6000610c4560035490565b600d546040516370a0823160e01b81523060048201526001600160a01b03909116906370a082319060240160206040518083038186803b158015610c8857600080fd5b505afa158015610c9c573d6000803e3d6000fd5b505050506040513d601f19601f82011682018060405250810190610cc09190611cdb565b33600090815260016020526040902054610cda9190611ef2565b610ce49190611ed2565b600d5460405163a9059cbb60e01b8152336004820152602481018390529192506001600160a01b03169063a9059cbb90604401602060405180830381600087803b158015610d3157600080fd5b505af1158015610d45573d6000803e3d6000fd5b505050506040513d601f19601f82011682018060405250810190610d699190611bc5565b5033600081815260016020526040902054610d84919061146f565b60405181815233907f52438ffde1a85dfde9df04265db0a0f54caa9ab98932b84214074743c2ed2b6c9060200160405180910390a250565b60606005805461056990611f28565b600d54600954600e5460405163095ea7b360e01b81526001600160a01b039283166004820152602481019190915291169063095ea7b390604401602060405180830381600087803b158015610e1f57600080fd5b505af1158015610e33573d6000803e3d6000fd5b505050506040513d601f19601f82011682018060405250810190610e579190611bc5565b50565b3360009081526002602090815260408083206001600160a01b038616845290915281205482811015610edc5760405162461bcd60e51b815260206004820152602560248201527f45524332303a2064656372656173656420616c6c6f77616e63652062656c6f77604482015264207a65726f60d81b606482015260840161067c565b610ee93385858403610f98565b5060019392505050565b60006105f9338484611171565b6000546001600160a01b03163314610f2a5760405162461bcd60e51b815260040161067c90611e85565b6001600160a01b038116610f8f5760405162461bcd60e51b815260206004820152602660248201527f4f776e61626c653a206e6577206f776e657220697320746865207a65726f206160448201526564647265737360d01b606482015260840161067c565b610e578161141f565b6001600160a01b038316610ffa5760405162461bcd60e51b8152602060048201526024808201527f45524332303a20617070726f76652066726f6d20746865207a65726f206164646044820152637265737360e01b606482015260840161067c565b6001600160a01b03821661105b5760405162461bcd60e51b815260206004820152602260248201527f45524332303a20617070726f766520746f20746865207a65726f206164647265604482015261737360f01b606482015260840161067c565b6001600160a01b0383811660008181526002602090815260408083209487168084529482529182902085905590518481527f8c5be1e5ebec7d5bd14f71427d1e84f3dd0314c0f7b2291e5b200ac8c7c3b92591015b60405180910390a3505050565b60008060006110cc85856115b5565b915091506110d981611625565b509392505050565b60007f73fa9d9b2b8a6ae8dd3a6cf0a97956557a9a4e7eb8cddcc915edf2e2fe2f7c6d826000015183602001518460400151856060015186608001518760a001518860c001518960e001518a6101000151308c61014001516040516020016111549c9b9a99989796959493929190611db0565b604051602081830303815290604052805190602001209050919050565b6001600160a01b0383166111d55760405162461bcd60e51b815260206004820152602560248201527f45524332303a207472616e736665722066726f6d20746865207a65726f206164604482015264647265737360d81b606482015260840161067c565b6001600160a01b0382166112375760405162461bcd60e51b815260206004820152602360248201527f45524332303a207472616e7366657220746f20746865207a65726f206164647260448201526265737360e81b606482015260840161067c565b6001600160a01b038316600090815260016020526040902054818110156112af5760405162461bcd60e51b815260206004820152602660248201527f45524332303a207472616e7366657220616d6f756e7420657863656564732062604482015265616c616e636560d01b606482015260840161067c565b6001600160a01b038085166000908152600160205260408082208585039055918516815290812080548492906112e6908490611eba565b92505081905550826001600160a01b0316846001600160a01b03167fddf252ad1be2c89b69c2b068fc378daa952ba7f163c4a11628f55a4df523b3ef8460405161133291815260200190565b60405180910390a350505050565b6001600160a01b0382166113965760405162461bcd60e51b815260206004820152601f60248201527f45524332303a206d696e7420746f20746865207a65726f206164647265737300604482015260640161067c565b80600360008282546113a89190611eba565b90915550506001600160a01b038216600090815260016020526040812080548392906113d5908490611eba565b90915550506040518181526001600160a01b038316906000907fddf252ad1be2c89b69c2b068fc378daa952ba7f163c4a11628f55a4df523b3ef9060200160405180910390a35050565b600080546001600160a01b038381166001600160a01b0319831681178455604051919092169283917f8be0079c531659141344cd1fd0a4f28419497f9722a3daafe3b4186f6b6457e09190a35050565b6001600160a01b0382166114cf5760405162461bcd60e51b815260206004820152602160248201527f45524332303a206275726e2066726f6d20746865207a65726f206164647265736044820152607360f81b606482015260840161067c565b6001600160a01b038216600090815260016020526040902054818110156115435760405162461bcd60e51b815260206004820152602260248201527f45524332303a206275726e20616d6f756e7420657863656564732062616c616e604482015261636560f01b606482015260840161067c565b6001600160a01b0383166000908152600160205260408120838303905560038054849290611572908490611f11565b90915550506040518281526000906001600160a01b038516907fddf252ad1be2c89b69c2b068fc378daa952ba7f163c4a11628f55a4df523b3ef906020016110b0565b6000808251604114156115ec5760208301516040840151606085015160001a6115e087828585611826565b9450945050505061161e565b825160401415611616576020830151604084015161160b868383611913565b93509350505061161e565b506000905060025b9250929050565b600081600481111561164757634e487b7160e01b600052602160045260246000fd5b14156116505750565b600181600481111561167257634e487b7160e01b600052602160045260246000fd5b14156116c05760405162461bcd60e51b815260206004820152601860248201527f45434453413a20696e76616c6964207369676e61747572650000000000000000604482015260640161067c565b60028160048111156116e257634e487b7160e01b600052602160045260246000fd5b14156117305760405162461bcd60e51b815260206004820152601f60248201527f45434453413a20696e76616c6964207369676e6174757265206c656e67746800604482015260640161067c565b600381600481111561175257634e487b7160e01b600052602160045260246000fd5b14156117ab5760405162461bcd60e51b815260206004820152602260248201527f45434453413a20696e76616c6964207369676e6174757265202773272076616c604482015261756560f01b606482015260840161067c565b60048160048111156117cd57634e487b7160e01b600052602160045260246000fd5b1415610e575760405162461bcd60e51b815260206004820152602260248201527f45434453413a20696e76616c6964207369676e6174757265202776272076616c604482015261756560f01b606482015260840161067c565b6000807f7fffffffffffffffffffffffffffffff5d576e7357a4501ddfe92f46681b20a083111561185d575060009050600361190a565b8460ff16601b1415801561187557508460ff16601c14155b15611886575060009050600461190a565b6040805160008082526020820180845289905260ff881692820192909252606081018690526080810185905260019060a0016020604051602081039080840390855afa1580156118da573d6000803e3d6000fd5b5050604051601f1901519150506001600160a01b0381166119035760006001925092505061190a565b9150600090505b94509492505050565b6000806001600160ff1b03831660ff84901c601b0161193487828885611826565b935093505050935093915050565b80356001600160a01b038116811461195957600080fd5b919050565b60008083601f84011261196f578081fd5b50813567ffffffffffffffff811115611986578182fd5b6020830191508360208260051b850101111561161e57600080fd5b60008083601f8401126119b2578182fd5b50813567ffffffffffffffff8111156119c9578182fd5b60208301915083602082850101111561161e57600080fd5b6000602082840312156119f2578081fd5b6119fb82611942565b9392505050565b60008060408385031215611a14578081fd5b611a1d83611942565b9150611a2b60208401611942565b90509250929050565b60008060008060008060008060a0898b031215611a4f578384fd5b611a5889611942565b9750611a6660208a01611942565b9650604089013567ffffffffffffffff80821115611a82578586fd5b611a8e8c838d0161195e565b909850965060608b0135915080821115611aa6578586fd5b611ab28c838d0161195e565b909650945060808b0135915080821115611aca578384fd5b50611ad78b828c016119a1565b999c989b5096995094979396929594505050565b600080600060608486031215611aff578283fd5b611b0884611942565b9250611b1660208501611942565b9150604084013590509250925092565b60008060008060008060a08789031215611b3e578182fd5b611b4787611942565b9550611b5560208801611942565b94506040870135935060608701359250608087013567ffffffffffffffff811115611b7e578283fd5b611b8a89828a016119a1565b979a9699509497509295939492505050565b60008060408385031215611bae578182fd5b611bb783611942565b946020939093013593505050565b600060208284031215611bd6578081fd5b815180151581146119fb578182fd5b60008060408385031215611bf7578182fd5b82359150602083013567ffffffffffffffff80821115611c15578283fd5b818501915085601f830112611c28578283fd5b813581811115611c3a57611c3a611f79565b604051601f8201601f19908116603f01168101908382118183101715611c6257611c62611f79565b81604052828152886020848701011115611c7a578586fd5b82602086016020830137856020848301015280955050505050509250929050565b600060208284031215611cac578081fd5b81356001600160e01b0319811681146119fb578182fd5b600060208284031215611cd4578081fd5b5035919050565b600060208284031215611cec578081fd5b5051919050565b600060208284031215611d04578081fd5b815160ff811681146119fb578182fd5b60038110611d3257634e487b7160e01b600052602160045260246000fd5b9052565b6001600160a01b038c81168252610160820190611d56602084018e611d14565b604083019b909b526060820199909952968916608088015260a087019590955260c086019390935263ffffffff9190911660e085015264ffffffffff16610100840152909316610120820152610140019190915292915050565b8c81526001600160a01b038c81166020830152610180820190611dd6604084018e611d14565b606083019b909b52608082019990995296891660a088015260c087019590955260e086019390935263ffffffff9190911661010085015264ffffffffff1661012084015290931661014082015261016001919091529392505050565b6000602080835283518082850152825b81811015611e5e57858101830151858201604001528201611e42565b81811115611e6f5783604083870101525b50601f01601f1916929092016040019392505050565b6020808252818101527f4f776e61626c653a2063616c6c6572206973206e6f7420746865206f776e6572604082015260600190565b60008219821115611ecd57611ecd611f63565b500190565b600082611eed57634e487b7160e01b81526012600452602481fd5b500490565b6000816000190483118215151615611f0c57611f0c611f63565b500290565b600082821015611f2357611f23611f63565b500390565b600181811c90821680611f3c57607f821691505b60208210811415611f5d57634e487b7160e01b600052602260045260246000fd5b50919050565b634e487b7160e01b600052601160045260246000fd5b634e487b7160e01b600052604160045260246000fdfea2646970667358221220d68c0b922e6e75b6c007d9082eea881d20cff35054e38de05ae985ea98692dfe64736f6c63430008040033",
  "linkReferences": {},
  "deployedLinkReferences": {}
}