{
  "_format": "hh-sol-artifact-1",
  "contractName": "PWNGroupOfferFactory",
  "sourceName": "contracts/PWNGroupOfferFactory.sol",
  "abi": [
    {
      "inputs": [
        {
          "internalType": "address",
          "name": "_pwn",
          "type": "address"
        },
        {
          "internalType": "address",
          "name": "_pwnDeed",
          "type": "address"
        },
        {
          "internalType": "address",
          "name": "_pwnVault",
          "type": "address"
        }
      ],
      "stateMutability": "nonpayable",
      "type": "constructor"
    },
    {
      "anonymous": false,
      "inputs": [
        {
          "indexed": true,
          "internalType": "uint256",
          "name": "id",
          "type": "uint256"
        },
        {
          "indexed": false,
          "internalType": "address",
          "name": "groupOffer",
          "type": "address"
        },
        {
          "indexed": true,
          "internalType": "address",
          "name": "borrower",
          "type": "address"
        },
        {
          "indexed": true,
          "internalType": "address[]",
          "name": "lenders",
          "type": "address[]"
        }
      ],
      "name": "GroupOfferCreated",
      "type": "event"
    },
    {
      "anonymous": false,
      "inputs": [
        {
          "indexed": true,
          "internalType": "bytes32",
          "name": "offerHash",
          "type": "bytes32"
        }
      ],
      "name": "GroupOfferRevoked",
      "type": "event"
    },
    {
      "inputs": [
        {
          "components": [
            {
              "internalType": "address",
              "name": "collateralAddress",
              "type": "address"
            },
            {
              "internalType": "enum MultiToken.Category",
              "name": "collateralCategory",
              "type": "uint8"
            },
            {
              "internalType": "uint256",
              "name": "collateralAmount",
              "type": "uint256"
            },
            {
              "internalType": "uint256",
              "name": "collateralId",
              "type": "uint256"
            },
            {
              "internalType": "address",
              "name": "loanAssetAddress",
              "type": "address"
            },
            {
              "internalType": "uint256",
              "name": "loanAmount",
              "type": "uint256"
            },
            {
              "internalType": "uint256",
              "name": "loanYield",
              "type": "uint256"
            },
            {
              "internalType": "uint32",
              "name": "duration",
              "type": "uint32"
            }
          ],
          "internalType": "struct PWNGroupOfferFactory.LoanParams",
          "name": "_loanParams",
          "type": "tuple"
        },
        {
          "components": [
            {
              "internalType": "uint40",
              "name": "expiration",
              "type": "uint40"
            },
            {
              "internalType": "uint256",
              "name": "loanAmountPart",
              "type": "uint256"
            },
            {
              "internalType": "address",
              "name": "lender",
              "type": "address"
            },
            {
              "internalType": "bytes32",
              "name": "nonce",
              "type": "bytes32"
            },
            {
              "internalType": "bytes",
              "name": "signature",
              "type": "bytes"
            }
          ],
          "internalType": "struct PWNGroupOfferFactory.OfferDigestWithSignature[]",
          "name": "_digestWithSignatureList",
          "type": "tuple[]"
        }
      ],
      "name": "createGroupOffer",
      "outputs": [
        {
          "internalType": "address",
          "name": "",
          "type": "address"
        }
      ],
      "stateMutability": "nonpayable",
      "type": "function"
    },
    {
      "inputs": [],
      "name": "groupOfferId",
      "outputs": [
        {
          "internalType": "uint256",
          "name": "",
          "type": "uint256"
        }
      ],
      "stateMutability": "view",
      "type": "function"
    },
    {
      "inputs": [],
      "name": "pwn",
      "outputs": [
        {
          "internalType": "address",
          "name": "",
          "type": "address"
        }
      ],
      "stateMutability": "view",
      "type": "function"
    },
    {
      "inputs": [],
      "name": "pwnDeed",
      "outputs": [
        {
          "internalType": "address",
          "name": "",
          "type": "address"
        }
      ],
      "stateMutability": "view",
      "type": "function"
    },
    {
      "inputs": [],
      "name": "pwnVault",
      "outputs": [
        {
          "internalType": "address",
          "name": "",
          "type": "address"
        }
      ],
      "stateMutability": "view",
      "type": "function"
    },
    {
      "inputs": [
        {
          "internalType": "bytes32",
          "name": "_offerHash",
          "type": "bytes32"
        },
        {
          "internalType": "bytes",
          "name": "_signature",
          "type": "bytes"
        }
      ],
      "name": "revokeGroupOffer",
      "outputs": [],
      "stateMutability": "nonpayable",
      "type": "function"
    },
    {
      "inputs": [
        {
          "internalType": "bytes32",
          "name": "",
          "type": "bytes32"
        }
      ],
      "name": "revokedOffers",
      "outputs": [
        {
          "internalType": "bool",
          "name": "",
          "type": "bool"
        }
      ],
      "stateMutability": "view",
      "type": "function"
    }
  ],
  "bytecode": "0x60806040523480156200001157600080fd5b5060405162003ee538038062003ee5833981016040819052620000349162000094565b600180546001600160a01b039485166001600160a01b031991821617909155600280549385169382169390931790925560038054919093169116179055620000dd565b80516001600160a01b03811681146200008f57600080fd5b919050565b600080600060608486031215620000a9578283fd5b620000b48462000077565b9250620000c46020850162000077565b9150620000d46040850162000077565b90509250925092565b613df880620000ed6000396000f3fe60806040523480156200001157600080fd5b5060043610620000875760003560e01c8063d3c77c191162000062578063d3c77c1914620000ed578063db73d2411462000101578063dd365b8b146200011a578063f432bfaa146200012e57600080fd5b8063019bc736146200008c5780635a16d8c814620000c057806371ff3d2f14620000d9575b600080fd5b620000a36200009d36600462001307565b62000165565b6040516001600160a01b0390911681526020015b60405180910390f35b620000d7620000d136600462001244565b62000b41565b005b600254620000a3906001600160a01b031681565b600354620000a3906001600160a01b031681565b6200010b60005481565b604051908152602001620000b7565b600154620000a3906001600160a01b031681565b620001546200013f3660046200122b565b60046020526000908152604090205460ff1681565b6040519015158152602001620000b7565b60008060005b83811015620001e15760008585838181106200019757634e487b7160e01b600052603260045260246000fd5b9050602002810190620001ab9190620016d4565b620001b6906200170f565b9050806020015183620001ca9190620016f4565b92505080620001d990620017bc565b90506200016b565b508460a001358114620002545760405162461bcd60e51b815260206004820152603060248201527f426f72726f77656420616d6f756e742068617320746f20657175616c20746f7460448201526f185b081b195b99195908185b5bdd5b9d60821b60648201526084015b60405180910390fd5b60005b838110156200066c5760008585838181106200028357634e487b7160e01b600052603260045260246000fd5b9050602002810190620002979190620016d4565b620002a2906200170f565b9050600062000385604080518082018252601481527350574e47726f75704f66666572466163746f727960601b6020918201528151808301835260018152603160f81b9082015281517f8b73c3c69bb8fe3d512ecc4cf759cc79239f7b179b0ffacaa9a75d522b39400f818301527f25df1ce3f63bd67a4ac0626f939aac0788c225ea3af47e1e6f55cd550e62281f818401527fc89efdaa54c0f20c7adf612882df0950f5a951637e0307cdcb4c672f298b8bc660608201524660808201523060a0808301919091528351808303909101815260c0909101909252815191012090565b620003a16200039a368b90038b018b62001384565b8462000ca1565b60405161190160f01b602082015260228101929092526042820152606201604051602081830303815290604052805190602001209050600082604001516001600160a01b03163b1115620004f05760408083015160808401519151630b135d3f60e11b808252926001600160a01b0390921691631626ba7e916200042a918691600401620016b1565b60206040518083038186803b1580156200044357600080fd5b505afa15801562000458573d6000803e3d6000fd5b505050506040513d601f19601f820116820180604052508101906200047e9190620012c0565b6001600160e01b03191614620004ea5760405162461bcd60e51b815260206004820152602a60248201527f5369676e6174757265206f6e20626568616c66206f6620636f6e7472616374206044820152691a5cc81a5b9d985b1a5960b21b60648201526084016200024b565b62000572565b81604001516001600160a01b03166200050e82846080015162000d2e565b6001600160a01b031614620005725760405162461bcd60e51b8152602060048201526024808201527f4c656e6465722061646472657373206469646e2774207369676e20746865206f604482015263333332b960e11b60648201526084016200024b565b815164ffffffffff1615806200058f5750815164ffffffffff1642105b620005d05760405162461bcd60e51b815260206004820152601060248201526f13d999995c881a5cc8195e1c1a5c995960821b60448201526064016200024b565b60008181526004602052604090205460ff16156200063f5760405162461bcd60e51b815260206004820152602560248201527f4f66666572206973207265766f6b6564206f7220686173206265656e20616363604482015264195c1d195960da1b60648201526084016200024b565b6000908152600460205260409020805460ff19166001179055506200066481620017bc565b905062000257565b50604080516101608101909152600090806200068c6020890189620011e5565b6001600160a01b03168152602001876020016020810190620006af9190620012ea565b6002811115620006cf57634e487b7160e01b600052602160045260246000fd5b81526020018760400135815260200187606001358152602001876080016020810190620006fd9190620011e5565b6001600160a01b0316815260a0880135602082015260c0880135604082015260600162000732610100890160e08a0162001438565b63ffffffff1681526020016200074c4262015180620016f4565b64ffffffffff16815260200160006001600160a01b031681526020017f7ab1577440dd7bedf920cb6de2f9fc6bf7ba98c78c85a3fa1f8311aac95e1759815250905060008081546200079e90620017bc565b90915550600154600254600354600080546040517050574e2067726f7570206f66666572202360781b60208201526031810191909152909333936001600160a01b039182169390821692911690869060510160408051601f19818403018152908290526000546450574e474f60d81b6020840152602583015290604501604051602081830303815290604052604051620008389062001106565b6200084a979695949392919062001507565b604051809103906000f08015801562000867573d6000803e3d6000fd5b50905060006200087e60a0890160808a01620011e5565b905060008667ffffffffffffffff811115620008aa57634e487b7160e01b600052604160045260246000fd5b604051908082528060200260200182016040528015620008d4578160200160208202803683370190505b50905060005b8781101562000a845760008989838181106200090657634e487b7160e01b600052603260045260246000fd5b90506020028101906200091a9190620016d4565b62000925906200170f565b604080820151602083015191516323b872dd60e01b81526001600160a01b03918216600482015288821660248201526044810192909252919250908516906323b872dd90606401602060405180830381600087803b1580156200098757600080fd5b505af11580156200099c573d6000803e3d6000fd5b505050506040513d601f19601f82011682018060405250810190620009c2919062001209565b506040808201516020830151915163016c547560e51b81526001600160a01b0391821660048201526024810192909252861690632d8a8ea090604401600060405180830381600087803b15801562000a1957600080fd5b505af115801562000a2e573d6000803e3d6000fd5b50505050806040015183838151811062000a5857634e487b7160e01b600052603260045260246000fd5b6001600160a01b03909216602092830291909101909101525062000a7c81620017bc565b9050620008da565b50826001600160a01b031663715018a66040518163ffffffff1660e01b8152600401600060405180830381600087803b15801562000ac157600080fd5b505af115801562000ad6573d6000803e3d6000fd5b505050508060405162000aea9190620014c6565b6040519081900381206000546001600160a01b038616835290913391907f462c6807bab6a61b1fe49004a6945a74705dd311a76f5fc7da61409c05853dec9060200160405180910390a45090979650505050505050565b336001600160a01b031662000b8d8484848080601f01602080910402602001604051908101604052809392919081815260200183838082843760009201919091525062000d2e92505050565b6001600160a01b03161462000be55760405162461bcd60e51b815260206004820152601d60248201527f53656e646572206973206e6f7420616e206f66666572207369676e657200000060448201526064016200024b565b60008381526004602052604090205460ff161562000c5c5760405162461bcd60e51b815260206004820152602d60248201527f4f6666657220697320616c7265616479207265766f6b6564206f72206861732060448201526c1899595b881858d8d95c1d1959609a1b60648201526084016200024b565b600083815260046020526040808220805460ff191660011790555184917f3950933e4d3d50f9f446a8bc0651893b82f84d9c7c77529af33b75260730692891a2505050565b8151602080840151604080860151606080880151608089015160a08a015160c08b015160e08c01518b518c8b01518d8a0151978e0151995160009d62000d109d7fe2d4229f6d6bd9cd9e4b797e196228aeda517006b4aa99e63d26ffd6e21553ab9d919c919b9a920162001616565b60405160208183030381529060405280519060200120905092915050565b600080600062000d3f858562000d56565b9150915062000d4e8162000dce565b509392505050565b60008082516041141562000d915760208301516040840151606085015160001a62000d848782858562000fe0565b9450945050505062000dc7565b82516040141562000dbf576020830151604084015162000db3868383620010d5565b93509350505062000dc7565b506000905060025b9250929050565b600081600481111562000df157634e487b7160e01b600052602160045260246000fd5b141562000dfb5750565b600181600481111562000e1e57634e487b7160e01b600052602160045260246000fd5b141562000e6e5760405162461bcd60e51b815260206004820152601860248201527f45434453413a20696e76616c6964207369676e6174757265000000000000000060448201526064016200024b565b600281600481111562000e9157634e487b7160e01b600052602160045260246000fd5b141562000ee15760405162461bcd60e51b815260206004820152601f60248201527f45434453413a20696e76616c6964207369676e6174757265206c656e6774680060448201526064016200024b565b600381600481111562000f0457634e487b7160e01b600052602160045260246000fd5b141562000f5f5760405162461bcd60e51b815260206004820152602260248201527f45434453413a20696e76616c6964207369676e6174757265202773272076616c604482015261756560f01b60648201526084016200024b565b600481600481111562000f8257634e487b7160e01b600052602160045260246000fd5b141562000fdd5760405162461bcd60e51b815260206004820152602260248201527f45434453413a20696e76616c6964207369676e6174757265202776272076616c604482015261756560f01b60648201526084016200024b565b50565b6000807f7fffffffffffffffffffffffffffffff5d576e7357a4501ddfe92f46681b20a0831115620010195750600090506003620010cc565b8460ff16601b141580156200103257508460ff16601c14155b15620010455750600090506004620010cc565b6040805160008082526020820180845289905260ff881692820192909252606081018690526080810185905260019060a0016020604051602081039080840390855afa1580156200109a573d6000803e3d6000fd5b5050604051601f1901519150506001600160a01b038116620010c557600060019250925050620010cc565b9150600090505b94509492505050565b6000806001600160ff1b03831660ff84901c601b01620010f88782888562000fe0565b935093505050935093915050565b6125bc806200180783390190565b80356001600160a01b03811681146200112c57600080fd5b919050565b600082601f83011262001142578081fd5b813567ffffffffffffffff80821115620011605762001160620017f0565b604051601f8301601f19908116603f011681019082821181831017156200118b576200118b620017f0565b81604052838152866020858801011115620011a4578485fd5b8360208701602083013792830160200193909352509392505050565b8035600381106200112c57600080fd5b803563ffffffff811681146200112c57600080fd5b600060208284031215620011f7578081fd5b620012028262001114565b9392505050565b6000602082840312156200121b578081fd5b8151801515811462001202578182fd5b6000602082840312156200123d578081fd5b5035919050565b60008060006040848603121562001259578182fd5b83359250602084013567ffffffffffffffff8082111562001278578384fd5b818601915086601f8301126200128c578384fd5b8135818111156200129b578485fd5b876020828501011115620012ad578485fd5b6020830194508093505050509250925092565b600060208284031215620012d2578081fd5b81516001600160e01b03198116811462001202578182fd5b600060208284031215620012fc578081fd5b6200120282620011c0565b60008060008385036101208112156200131e578384fd5b610100808212156200132e578485fd5b859450840135905067ffffffffffffffff808211156200134c578384fd5b818601915086601f83011262001360578384fd5b8135818111156200136f578485fd5b8760208260051b8501011115620012ad578485fd5b600061010080838503121562001398578182fd5b6040519081019067ffffffffffffffff82118183101715620013be57620013be620017f0565b81604052620013cd8462001114565b8152620013dd60208501620011c0565b60208201526040840135604082015260608401356060820152620014046080850162001114565b608082015260a084013560a082015260c084013560c08201526200142b60e08501620011d0565b60e0820152949350505050565b6000602082840312156200144a578081fd5b6200120282620011d0565b60008151808452815b818110156200147c576020818501810151868301820152016200145e565b818111156200148e5782602083870101525b50601f01601f19169290920160200192915050565b60038110620014c257634e487b7160e01b600052602160045260246000fd5b9052565b815160009082906020808601845b83811015620014fb5781516001600160a01b031685529382019390820190600101620014d4565b50929695505050505050565b6001600160a01b0388811682528781166020830152868116604083015285811660608301528451166080820152600061022060208601516200154d60a0850182620014a3565b50604086015160c0840152606086015160e084015260808601516101006200157f818601836001600160a01b03169052565b60a08801516101208681019190915260c08901516101408088019190915260e08a015163ffffffff166101608801529189015164ffffffffff166101808701528801516001600160a01b03166101a08601528701516101c0850152506101e08301819052620015f18184018662001455565b905082810361020084015262001608818562001455565b9a9950505050505050505050565b8d81526001600160a01b038d811660208301526101a08201906200163e604084018f620014a3565b8c60608401528b6080840152808b1660a0840152508860c08301528760e083015263ffffffff871661010083015264ffffffffff861661012083015284610140830152620016986101608301856001600160a01b03169052565b826101808301529e9d5050505050505050505050505050565b828152604060208201526000620016cc604083018462001455565b949350505050565b60008235609e19833603018112620016ea578182fd5b9190910192915050565b600082198211156200170a576200170a620017da565b500190565b600060a0823603121562001721578081fd5b60405160a0810167ffffffffffffffff8282108183111715620017485762001748620017f0565b816040528435915064ffffffffff8216821462001763578384fd5b818352602085013560208401526200177e6040860162001114565b6040840152606085013560608401526080850135915080821115620017a1578384fd5b50620017b03682860162001131565b60808301525092915050565b6000600019821415620017d357620017d3620017da565b5060010190565b634e487b7160e01b600052601160045260246000fd5b634e487b7160e01b600052604160045260246000fdfe60806040523480156200001157600080fd5b50604051620025bc380380620025bc8339810160408190526200003491620003af565b81816200004133620001d0565b81516200005690600490602085019062000220565b5080516200006c90600590602084019062000220565b5050600680546001600160a01b03808b166001600160a01b031992831617909255600780548a841690831617905560088054898416908316179055600980548884169083161790558551600a8054919093169181168217835560208701518794509183916001600160a81b03191617600160a01b8360028111156200010157634e487b7160e01b600052602160045260246000fd5b0217905550604082015160018201556060820151600282015560808201516003820180546001600160a01b039283166001600160a01b031990911617905560a0830151600483015560c0830151600583015560e0830151600683018054610100860151610120870151909416690100000000000000000002600160481b600160e81b031964ffffffffff909516640100000000026001600160481b031990921663ffffffff9094169390931717929092161790556101409091015160079091015550620005e795505050505050565b600080546001600160a01b038381166001600160a01b0319831681178455604051919092169283917f8be0079c531659141344cd1fd0a4f28419497f9722a3daafe3b4186f6b6457e09190a35050565b8280546200022e9062000594565b90600052602060002090601f0160209004810192826200025257600085556200029d565b82601f106200026d57805160ff19168380011785556200029d565b828001600101855582156200029d579182015b828111156200029d57825182559160200191906001019062000280565b50620002ab929150620002af565b5090565b5b80821115620002ab5760008155600101620002b0565b80516001600160a01b0381168114620002de57600080fd5b919050565b805160038110620002de57600080fd5b600082601f83011262000304578081fd5b81516001600160401b03811115620003205762000320620005d1565b602062000336601f8301601f1916820162000561565b82815285828487010111156200034a578384fd5b835b83811015620003695785810183015182820184015282016200034c565b838111156200037a57848385840101525b5095945050505050565b805163ffffffff81168114620002de57600080fd5b805164ffffffffff81168114620002de57600080fd5b6000806000806000806000878903610220811215620003cc578384fd5b620003d789620002c6565b9750620003e760208a01620002c6565b9650620003f760408a01620002c6565b95506200040760608a01620002c6565b945061016080607f19830112156200041d578485fd5b6200042762000535565b91506200043760808b01620002c6565b82526200044760a08b01620002e3565b602083015260c08a0151604083015260e08a0151606083015261010062000470818c01620002c6565b6080840152610120808c015160a0850152610140808d015160c08601526200049a848e0162000384565b60e0860152620004ae6101808e0162000399565b83860152620004c16101a08e01620002c6565b918501919091526101c08c01519084015250506101e08901519093506001600160401b0380821115620004f2578384fd5b620005008b838c01620002f3565b93506102008a015191508082111562000517578283fd5b50620005268a828b01620002f3565b91505092959891949750929550565b60405161016081016001600160401b03811182821017156200055b576200055b620005d1565b60405290565b604051601f8201601f191681016001600160401b03811182821017156200058c576200058c620005d1565b604052919050565b600181811c90821680620005a957607f821691505b60208210811415620005cb57634e487b7160e01b600052602260045260246000fd5b50919050565b634e487b7160e01b600052604160045260246000fd5b611fc580620005f76000396000f3fe608060405234801561001057600080fd5b50600436106101da5760003560e01c806383f2be4d11610104578063be040fb0116100a2578063dd365b8b11610071578063dd365b8b14610453578063dd62ed3e14610466578063f23a6e611461049f578063f2fde38b146104bf57600080fd5b8063be040fb014610293578063c028df06146103b0578063c19d93fb1461042c578063d3c77c191461044057600080fd5b806397d2e9b5116100de57806397d2e9b514610360578063a457c2d714610368578063a9059cbb1461037b578063bc197c811461038e57600080fd5b806383f2be4d1461033f5780638da5cb5b1461034757806395d89b411461035857600080fd5b8063313ce5671161017c57806370a082311161014b57806370a08231146102d0578063715018a6146102f957806371ff3d2f146103015780637df1f1b91461032c57600080fd5b8063313ce56714610295578063379607f5146102aa57806339509351146102bd5780636b64c7691461029357600080fd5b80631626ba7e116101b85780631626ba7e1461022f57806318160ddd1461025b57806323b872dd1461026d5780632d8a8ea01461028057600080fd5b806301ffc9a7146101df57806306fdde0314610207578063095ea7b31461021c575b600080fd5b6101f26101ed366004611c9b565b6104d2565b60405190151581526020015b60405180910390f35b61020f61055a565b6040516101fe9190611e32565b6101f261022a366004611b9c565b6105ec565b61024261023d366004611be5565b610602565b6040516001600160e01b031990911681526020016101fe565b6003545b6040519081526020016101fe565b6101f261027b366004611aeb565b6108ff565b61029361028e366004611b9c565b6109a9565b005b60125b60405160ff90911681526020016101fe565b6102936102b8366004611cc3565b6109e1565b6101f26102cb366004611b9c565b610b56565b61025f6102de3660046119e1565b6001600160a01b031660009081526001602052604090205490565b610293610b94565b600854610314906001600160a01b031681565b6040516001600160a01b0390911681526020016101fe565b600654610314906001600160a01b031681565b610293610bc8565b6000546001600160a01b0316610314565b61020f610dbc565b610293610dcb565b6101f2610376366004611b9c565b610e5a565b6101f2610389366004611b9c565b610ef3565b61024261039c366004611a34565b63bc197c8160e01b98975050505050505050565b600a54600b54600c54600d54600e54600f54601054601154610415976001600160a01b0380821698600160a01b90920460ff169791969195918116949193919263ffffffff831692640100000000810464ffffffffff1692600160481b90910416908b565b6040516101fe9b9a99989796959493929190611d36565b60095461029890600160a01b900460ff1681565b600954610314906001600160a01b031681565b600754610314906001600160a01b031681565b61025f610474366004611a02565b6001600160a01b03918216600090815260026020908152604080832093909416825291909152205490565b6102426104ad366004611b26565b63f23a6e6160e01b9695505050505050565b6102936104cd3660046119e1565b610f00565b60006001600160e01b031982166301ffc9a760e01b148061050357506001600160e01b03198216630704183b60e11b145b8061051e57506001600160e01b03198216630271189760e51b145b8061053957506001600160e01b03198216630b135d3f60e11b145b8061055457506001600160e01b031982166336372b0760e01b145b92915050565b60606004805461056990611f28565b80601f016020809104026020016040519081016040528092919081815260200182805461059590611f28565b80156105e25780601f106105b7576101008083540402835291602001916105e2565b820191906000526020600020905b8154815290600101906020018083116105c557829003601f168201915b5050505050905090565b60006105f9338484610f98565b50600192915050565b6006546000906001600160a01b031661061b84846110bd565b6001600160a01b0316146106855760405162461bcd60e51b815260206004820152602660248201527f426f72726f7765722061646472657373206469646e2774207369676e207468656044820152651037b33332b960d11b60648201526084015b60405180910390fd5b60006107616040805180820182526003815262282ba760e91b6020918201528151808301835260018152603160f81b9082015260085482517f8b73c3c69bb8fe3d512ecc4cf759cc79239f7b179b0ffacaa9a75d522b39400f818401527fbecbc5e7d5b58d6f1c8ea79197877ea15b6d3f333b75c73ffc7ce124e395e163818501527fc89efdaa54c0f20c7adf612882df0950f5a951637e0307cdcb4c672f298b8bc660608201524660808201526001600160a01b0390911660a0808301919091528351808303909101815260c0909101909252815191012090565b604080516101608101909152600a80546001600160a01b03811683526108549291906020830190600160a01b900460ff1660028111156107b157634e487b7160e01b600052602160045260246000fd5b60028111156107d057634e487b7160e01b600052602160045260246000fd5b8152600182015460208201526002820154604082015260038201546001600160a01b03908116606083015260048301546080830152600583015460a0830152600683015463ffffffff811660c084015264ffffffffff64010000000082041660e0840152600160481b900416610100820152600790910154610120909101526110e1565b60405161190160f01b6020820152602281019290925260428201526062016040516020818303038152906040528051906020012090508381146108ef5760405162461bcd60e51b815260206004820152602d60248201527f47726f7570206f6666657220646967657374206973206e6f74206d617463686960448201526c0dcce40ced2eccadc40d0c2e6d609b1b606482015260840161067c565b50630b135d3f60e11b9392505050565b600061090c848484611171565b6001600160a01b0384166000908152600260209081526040808320338452909152902054828110156109915760405162461bcd60e51b815260206004820152602860248201527f45524332303a207472616e7366657220616d6f756e74206578636565647320616044820152676c6c6f77616e636560c01b606482015260840161067c565b61099e8533858403610f98565b506001949350505050565b6000546001600160a01b031633146109d35760405162461bcd60e51b815260040161067c90611e85565b6109dd8282611340565b5050565b600854604051632e31150760e11b8152600481018390526000916001600160a01b031690635c622a0e9060240160206040518083038186803b158015610a2657600080fd5b505afa158015610a3a573d6000803e3d6000fd5b505050506040513d601f19601f82011682018060405250810190610a5e9190611cf3565b90508060ff1660031415610a84576009805460ff60a01b1916600160a01b179055610aa4565b8060ff1660041415610aa4576009805460ff60a01b1916600160a11b1790555b60085460405163ea1fb74f60e01b8152600481018490526001600160a01b039091169063ea1fb74f90602401602060405180830381600087803b158015610aea57600080fd5b505af1158015610afe573d6000803e3d6000fd5b505050506040513d601f19601f82011682018060405250810190610b229190611bc5565b5060405182907fa15f537ebc49d6f6d5217f43d2c5d2b830069397bed363fdc1d811814148ec6d90600090a26109dd610bc8565b3360008181526002602090815260408083206001600160a01b038716845290915281205490916105f9918590610b8d908690611eba565b610f98565b565b6000546001600160a01b03163314610bbe5760405162461bcd60e51b815260040161067c90611e85565b610b92600061141f565b600954600160a01b900460ff16600114610c3a5760405162461bcd60e51b815260206004820152602d60248201527f4465656420686173206e6f74206265656e20636c61696d656420796574206f7260448201526c081a5cc8191959985d5b1d1959609a1b606482015260840161067c565b6000610c4560035490565b600d546040516370a0823160e01b81523060048201526001600160a01b03909116906370a082319060240160206040518083038186803b158015610c8857600080fd5b505afa158015610c9c573d6000803e3d6000fd5b505050506040513d601f19601f82011682018060405250810190610cc09190611cdb565b33600090815260016020526040902054610cda9190611ef2565b610ce49190611ed2565b600d5460405163a9059cbb60e01b8152336004820152602481018390529192506001600160a01b03169063a9059cbb90604401602060405180830381600087803b158015610d3157600080fd5b505af1158015610d45573d6000803e3d6000fd5b505050506040513d601f19601f82011682018060405250810190610d699190611bc5565b5033600081815260016020526040902054610d84919061146f565b60405181815233907f52438ffde1a85dfde9df04265db0a0f54caa9ab98932b84214074743c2ed2b6c9060200160405180910390a250565b60606005805461056990611f28565b600d54600954600e5460405163095ea7b360e01b81526001600160a01b039283166004820152602481019190915291169063095ea7b390604401602060405180830381600087803b158015610e1f57600080fd5b505af1158015610e33573d6000803e3d6000fd5b505050506040513d601f19601f82011682018060405250810190610e579190611bc5565b50565b3360009081526002602090815260408083206001600160a01b038616845290915281205482811015610edc5760405162461bcd60e51b815260206004820152602560248201527f45524332303a2064656372656173656420616c6c6f77616e63652062656c6f77604482015264207a65726f60d81b606482015260840161067c565b610ee93385858403610f98565b5060019392505050565b60006105f9338484611171565b6000546001600160a01b03163314610f2a5760405162461bcd60e51b815260040161067c90611e85565b6001600160a01b038116610f8f5760405162461bcd60e51b815260206004820152602660248201527f4f776e61626c653a206e6577206f776e657220697320746865207a65726f206160448201526564647265737360d01b606482015260840161067c565b610e578161141f565b6001600160a01b038316610ffa5760405162461bcd60e51b8152602060048201526024808201527f45524332303a20617070726f76652066726f6d20746865207a65726f206164646044820152637265737360e01b606482015260840161067c565b6001600160a01b03821661105b5760405162461bcd60e51b815260206004820152602260248201527f45524332303a20617070726f766520746f20746865207a65726f206164647265604482015261737360f01b606482015260840161067c565b6001600160a01b0383811660008181526002602090815260408083209487168084529482529182902085905590518481527f8c5be1e5ebec7d5bd14f71427d1e84f3dd0314c0f7b2291e5b200ac8c7c3b92591015b60405180910390a3505050565b60008060006110cc85856115b5565b915091506110d981611625565b509392505050565b60007f73fa9d9b2b8a6ae8dd3a6cf0a97956557a9a4e7eb8cddcc915edf2e2fe2f7c6d826000015183602001518460400151856060015186608001518760a001518860c001518960e001518a6101000151308c61014001516040516020016111549c9b9a99989796959493929190611db0565b604051602081830303815290604052805190602001209050919050565b6001600160a01b0383166111d55760405162461bcd60e51b815260206004820152602560248201527f45524332303a207472616e736665722066726f6d20746865207a65726f206164604482015264647265737360d81b606482015260840161067c565b6001600160a01b0382166112375760405162461bcd60e51b815260206004820152602360248201527f45524332303a207472616e7366657220746f20746865207a65726f206164647260448201526265737360e81b606482015260840161067c565b6001600160a01b038316600090815260016020526040902054818110156112af5760405162461bcd60e51b815260206004820152602660248201527f45524332303a207472616e7366657220616d6f756e7420657863656564732062604482015265616c616e636560d01b606482015260840161067c565b6001600160a01b038085166000908152600160205260408082208585039055918516815290812080548492906112e6908490611eba565b92505081905550826001600160a01b0316846001600160a01b03167fddf252ad1be2c89b69c2b068fc378daa952ba7f163c4a11628f55a4df523b3ef8460405161133291815260200190565b60405180910390a350505050565b6001600160a01b0382166113965760405162461bcd60e51b815260206004820152601f60248201527f45524332303a206d696e7420746f20746865207a65726f206164647265737300604482015260640161067c565b80600360008282546113a89190611eba565b90915550506001600160a01b038216600090815260016020526040812080548392906113d5908490611eba565b90915550506040518181526001600160a01b038316906000907fddf252ad1be2c89b69c2b068fc378daa952ba7f163c4a11628f55a4df523b3ef9060200160405180910390a35050565b600080546001600160a01b038381166001600160a01b0319831681178455604051919092169283917f8be0079c531659141344cd1fd0a4f28419497f9722a3daafe3b4186f6b6457e09190a35050565b6001600160a01b0382166114cf5760405162461bcd60e51b815260206004820152602160248201527f45524332303a206275726e2066726f6d20746865207a65726f206164647265736044820152607360f81b606482015260840161067c565b6001600160a01b038216600090815260016020526040902054818110156115435760405162461bcd60e51b815260206004820152602260248201527f45524332303a206275726e20616d6f756e7420657863656564732062616c616e604482015261636560f01b606482015260840161067c565b6001600160a01b0383166000908152600160205260408120838303905560038054849290611572908490611f11565b90915550506040518281526000906001600160a01b038516907fddf252ad1be2c89b69c2b068fc378daa952ba7f163c4a11628f55a4df523b3ef906020016110b0565b6000808251604114156115ec5760208301516040840151606085015160001a6115e087828585611826565b9450945050505061161e565b825160401415611616576020830151604084015161160b868383611913565b93509350505061161e565b506000905060025b9250929050565b600081600481111561164757634e487b7160e01b600052602160045260246000fd5b14156116505750565b600181600481111561167257634e487b7160e01b600052602160045260246000fd5b14156116c05760405162461bcd60e51b815260206004820152601860248201527f45434453413a20696e76616c6964207369676e61747572650000000000000000604482015260640161067c565b60028160048111156116e257634e487b7160e01b600052602160045260246000fd5b14156117305760405162461bcd60e51b815260206004820152601f60248201527f45434453413a20696e76616c6964207369676e6174757265206c656e67746800604482015260640161067c565b600381600481111561175257634e487b7160e01b600052602160045260246000fd5b14156117ab5760405162461bcd60e51b815260206004820152602260248201527f45434453413a20696e76616c6964207369676e6174757265202773272076616c604482015261756560f01b606482015260840161067c565b60048160048111156117cd57634e487b7160e01b600052602160045260246000fd5b1415610e575760405162461bcd60e51b815260206004820152602260248201527f45434453413a20696e76616c6964207369676e6174757265202776272076616c604482015261756560f01b606482015260840161067c565b6000807f7fffffffffffffffffffffffffffffff5d576e7357a4501ddfe92f46681b20a083111561185d575060009050600361190a565b8460ff16601b1415801561187557508460ff16601c14155b15611886575060009050600461190a565b6040805160008082526020820180845289905260ff881692820192909252606081018690526080810185905260019060a0016020604051602081039080840390855afa1580156118da573d6000803e3d6000fd5b5050604051601f1901519150506001600160a01b0381166119035760006001925092505061190a565b9150600090505b94509492505050565b6000806001600160ff1b03831660ff84901c601b0161193487828885611826565b935093505050935093915050565b80356001600160a01b038116811461195957600080fd5b919050565b60008083601f84011261196f578081fd5b50813567ffffffffffffffff811115611986578182fd5b6020830191508360208260051b850101111561161e57600080fd5b60008083601f8401126119b2578182fd5b50813567ffffffffffffffff8111156119c9578182fd5b60208301915083602082850101111561161e57600080fd5b6000602082840312156119f2578081fd5b6119fb82611942565b9392505050565b60008060408385031215611a14578081fd5b611a1d83611942565b9150611a2b60208401611942565b90509250929050565b60008060008060008060008060a0898b031215611a4f578384fd5b611a5889611942565b9750611a6660208a01611942565b9650604089013567ffffffffffffffff80821115611a82578586fd5b611a8e8c838d0161195e565b909850965060608b0135915080821115611aa6578586fd5b611ab28c838d0161195e565b909650945060808b0135915080821115611aca578384fd5b50611ad78b828c016119a1565b999c989b5096995094979396929594505050565b600080600060608486031215611aff578283fd5b611b0884611942565b9250611b1660208501611942565b9150604084013590509250925092565b60008060008060008060a08789031215611b3e578182fd5b611b4787611942565b9550611b5560208801611942565b94506040870135935060608701359250608087013567ffffffffffffffff811115611b7e578283fd5b611b8a89828a016119a1565b979a9699509497509295939492505050565b60008060408385031215611bae578182fd5b611bb783611942565b946020939093013593505050565b600060208284031215611bd6578081fd5b815180151581146119fb578182fd5b60008060408385031215611bf7578182fd5b82359150602083013567ffffffffffffffff80821115611c15578283fd5b818501915085601f830112611c28578283fd5b813581811115611c3a57611c3a611f79565b604051601f8201601f19908116603f01168101908382118183101715611c6257611c62611f79565b81604052828152886020848701011115611c7a578586fd5b82602086016020830137856020848301015280955050505050509250929050565b600060208284031215611cac578081fd5b81356001600160e01b0319811681146119fb578182fd5b600060208284031215611cd4578081fd5b5035919050565b600060208284031215611cec578081fd5b5051919050565b600060208284031215611d04578081fd5b815160ff811681146119fb578182fd5b60038110611d3257634e487b7160e01b600052602160045260246000fd5b9052565b6001600160a01b038c81168252610160820190611d56602084018e611d14565b604083019b909b526060820199909952968916608088015260a087019590955260c086019390935263ffffffff9190911660e085015264ffffffffff16610100840152909316610120820152610140019190915292915050565b8c81526001600160a01b038c81166020830152610180820190611dd6604084018e611d14565b606083019b909b52608082019990995296891660a088015260c087019590955260e086019390935263ffffffff9190911661010085015264ffffffffff1661012084015290931661014082015261016001919091529392505050565b6000602080835283518082850152825b81811015611e5e57858101830151858201604001528201611e42565b81811115611e6f5783604083870101525b50601f01601f1916929092016040019392505050565b6020808252818101527f4f776e61626c653a2063616c6c6572206973206e6f7420746865206f776e6572604082015260600190565b60008219821115611ecd57611ecd611f63565b500190565b600082611eed57634e487b7160e01b81526012600452602481fd5b500490565b6000816000190483118215151615611f0c57611f0c611f63565b500290565b600082821015611f2357611f23611f63565b500390565b600181811c90821680611f3c57607f821691505b60208210811415611f5d57634e487b7160e01b600052602260045260246000fd5b50919050565b634e487b7160e01b600052601160045260246000fd5b634e487b7160e01b600052604160045260246000fdfea2646970667358221220d68c0b922e6e75b6c007d9082eea881d20cff35054e38de05ae985ea98692dfe64736f6c63430008040033a2646970667358221220ed043009d1657c01b46a17e86d8f9978a4a57bf7f382072e246e6f37cf49c3d764736f6c63430008040033",
  "linkReferences": {},
  "deployedLinkReferences": {}
}