{
  "_format": "hh-sol-artifact-1",
  "contractName": "PWNDeed",
  "sourceName": "contracts/PWNDeed.sol",
  "abi": [
    {
      "inputs": [
        {
          "internalType": "string",
          "name": "_uri",
          "type": "string"
        }
      ],
      "stateMutability": "nonpayable",
      "type": "constructor"
    },
    {
      "anonymous": false,
      "inputs": [
        {
          "indexed": true,
          "internalType": "address",
          "name": "account",
          "type": "address"
        },
        {
          "indexed": true,
          "internalType": "address",
          "name": "operator",
          "type": "address"
        },
        {
          "indexed": false,
          "internalType": "bool",
          "name": "approved",
          "type": "bool"
        }
      ],
      "name": "ApprovalForAll",
      "type": "event"
    },
    {
      "anonymous": false,
      "inputs": [
        {
          "indexed": false,
          "internalType": "uint256",
          "name": "did",
          "type": "uint256"
        }
      ],
      "name": "DeedClaimed",
      "type": "event"
    },
    {
      "anonymous": false,
      "inputs": [
        {
          "indexed": true,
          "internalType": "uint256",
          "name": "did",
          "type": "uint256"
        },
        {
          "indexed": true,
          "internalType": "address",
          "name": "lender",
          "type": "address"
        },
        {
          "indexed": true,
          "internalType": "bytes32",
          "name": "offerHash",
          "type": "bytes32"
        }
      ],
      "name": "DeedCreated",
      "type": "event"
    },
    {
      "anonymous": false,
      "inputs": [
        {
          "indexed": true,
          "internalType": "uint256",
          "name": "did",
          "type": "uint256"
        },
        {
          "indexed": true,
          "internalType": "address",
          "name": "lender",
          "type": "address"
        }
      ],
      "name": "GroupDeedCreated",
      "type": "event"
    },
    {
      "anonymous": false,
      "inputs": [
        {
          "indexed": true,
          "internalType": "bytes32",
          "name": "offerHash",
          "type": "bytes32"
        }
      ],
      "name": "OfferRevoked",
      "type": "event"
    },
    {
      "anonymous": false,
      "inputs": [
        {
          "indexed": true,
          "internalType": "address",
          "name": "previousOwner",
          "type": "address"
        },
        {
          "indexed": true,
          "internalType": "address",
          "name": "newOwner",
          "type": "address"
        }
      ],
      "name": "OwnershipTransferred",
      "type": "event"
    },
    {
      "anonymous": false,
      "inputs": [
        {
          "indexed": false,
          "internalType": "uint256",
          "name": "did",
          "type": "uint256"
        }
      ],
      "name": "PaidBack",
      "type": "event"
    },
    {
      "anonymous": false,
      "inputs": [
        {
          "indexed": true,
          "internalType": "address",
          "name": "operator",
          "type": "address"
        },
        {
          "indexed": true,
          "internalType": "address",
          "name": "from",
          "type": "address"
        },
        {
          "indexed": true,
          "internalType": "address",
          "name": "to",
          "type": "address"
        },
        {
          "indexed": false,
          "internalType": "uint256[]",
          "name": "ids",
          "type": "uint256[]"
        },
        {
          "indexed": false,
          "internalType": "uint256[]",
          "name": "values",
          "type": "uint256[]"
        }
      ],
      "name": "TransferBatch",
      "type": "event"
    },
    {
      "anonymous": false,
      "inputs": [
        {
          "indexed": true,
          "internalType": "address",
          "name": "operator",
          "type": "address"
        },
        {
          "indexed": true,
          "internalType": "address",
          "name": "from",
          "type": "address"
        },
        {
          "indexed": true,
          "internalType": "address",
          "name": "to",
          "type": "address"
        },
        {
          "indexed": false,
          "internalType": "uint256",
          "name": "id",
          "type": "uint256"
        },
        {
          "indexed": false,
          "internalType": "uint256",
          "name": "value",
          "type": "uint256"
        }
      ],
      "name": "TransferSingle",
      "type": "event"
    },
    {
      "anonymous": false,
      "inputs": [
        {
          "indexed": false,
          "internalType": "string",
          "name": "value",
          "type": "string"
        },
        {
          "indexed": true,
          "internalType": "uint256",
          "name": "id",
          "type": "uint256"
        }
      ],
      "name": "URI",
      "type": "event"
    },
    {
      "inputs": [],
      "name": "PWN",
      "outputs": [
        {
          "internalType": "address",
          "name": "",
          "type": "address"
        }
      ],
      "stateMutability": "view",
      "type": "function"
    },
    {
      "inputs": [
        {
          "internalType": "address",
          "name": "account",
          "type": "address"
        },
        {
          "internalType": "uint256",
          "name": "id",
          "type": "uint256"
        }
      ],
      "name": "balanceOf",
      "outputs": [
        {
          "internalType": "uint256",
          "name": "",
          "type": "uint256"
        }
      ],
      "stateMutability": "view",
      "type": "function"
    },
    {
      "inputs": [
        {
          "internalType": "address[]",
          "name": "accounts",
          "type": "address[]"
        },
        {
          "internalType": "uint256[]",
          "name": "ids",
          "type": "uint256[]"
        }
      ],
      "name": "balanceOfBatch",
      "outputs": [
        {
          "internalType": "uint256[]",
          "name": "",
          "type": "uint256[]"
        }
      ],
      "stateMutability": "view",
      "type": "function"
    },
    {
      "inputs": [
        {
          "internalType": "uint256",
          "name": "_did",
          "type": "uint256"
        },
        {
          "internalType": "address",
          "name": "_owner",
          "type": "address"
        }
      ],
      "name": "burn",
      "outputs": [],
      "stateMutability": "nonpayable",
      "type": "function"
    },
    {
      "inputs": [
        {
          "internalType": "uint256",
          "name": "_did",
          "type": "uint256"
        },
        {
          "internalType": "address",
          "name": "_owner",
          "type": "address"
        }
      ],
      "name": "claim",
      "outputs": [],
      "stateMutability": "nonpayable",
      "type": "function"
    },
    {
      "inputs": [
        {
          "internalType": "uint256",
          "name": "_loanAmount",
          "type": "uint256"
        },
        {
          "internalType": "uint32",
          "name": "_duration",
          "type": "uint32"
        },
        {
          "internalType": "uint256",
          "name": "_loanYieldMax",
          "type": "uint256"
        },
        {
          "internalType": "uint32",
          "name": "_durationMax",
          "type": "uint32"
        }
      ],
      "name": "countLoanRepayAmount",
      "outputs": [
        {
          "internalType": "uint256",
          "name": "",
          "type": "uint256"
        }
      ],
      "stateMutability": "pure",
      "type": "function"
    },
    {
      "inputs": [
        {
          "components": [
            {
              "internalType": "address",
              "name": "collateralAddress",
              "type": "address"
            },
            {
              "internalType": "enum MultiToken.Category",
              "name": "collateralCategory",
              "type": "uint8"
            },
            {
              "internalType": "uint256",
              "name": "collateralAmount",
              "type": "uint256"
            },
            {
              "internalType": "uint256",
              "name": "collateralId",
              "type": "uint256"
            },
            {
              "internalType": "address",
              "name": "loanAssetAddress",
              "type": "address"
            },
            {
              "internalType": "uint256",
              "name": "loanAmount",
              "type": "uint256"
            },
            {
              "internalType": "uint256",
              "name": "loanYield",
              "type": "uint256"
            },
            {
              "internalType": "uint32",
              "name": "duration",
              "type": "uint32"
            },
            {
              "internalType": "uint40",
              "name": "expiration",
              "type": "uint40"
            },
            {
              "internalType": "address",
              "name": "lender",
              "type": "address"
            },
            {
              "internalType": "bytes32",
              "name": "nonce",
              "type": "bytes32"
            }
          ],
          "internalType": "struct PWNDeed.Offer",
          "name": "_offer",
          "type": "tuple"
        },
        {
          "internalType": "bytes",
          "name": "_signature",
          "type": "bytes"
        },
        {
          "internalType": "address",
          "name": "_sender",
          "type": "address"
        }
      ],
      "name": "create",
      "outputs": [],
      "stateMutability": "nonpayable",
      "type": "function"
    },
    {
      "inputs": [
        {
          "components": [
            {
              "internalType": "address",
              "name": "collateralAddress",
              "type": "address"
            },
            {
              "internalType": "enum MultiToken.Category",
              "name": "collateralCategory",
              "type": "uint8"
            },
            {
              "internalType": "uint256",
              "name": "collateralAmount",
              "type": "uint256"
            },
            {
              "internalType": "uint256[]",
              "name": "collateralIdsWhitelist",
              "type": "uint256[]"
            },
            {
              "internalType": "address",
              "name": "loanAssetAddress",
              "type": "address"
            },
            {
              "internalType": "uint256",
              "name": "loanAmountMax",
              "type": "uint256"
            },
            {
              "internalType": "uint256",
              "name": "loanAmountMin",
              "type": "uint256"
            },
            {
              "internalType": "uint256",
              "name": "loanYieldMax",
              "type": "uint256"
            },
            {
              "internalType": "uint32",
              "name": "durationMax",
              "type": "uint32"
            },
            {
              "internalType": "uint32",
              "name": "durationMin",
              "type": "uint32"
            },
            {
              "internalType": "uint40",
              "name": "expiration",
              "type": "uint40"
            },
            {
              "internalType": "address",
              "name": "lender",
              "type": "address"
            },
            {
              "internalType": "bytes32",
              "name": "nonce",
              "type": "bytes32"
            }
          ],
          "internalType": "struct PWNDeed.FlexibleOffer",
          "name": "_offer",
          "type": "tuple"
        },
        {
          "components": [
            {
              "internalType": "uint256",
              "name": "collateralId",
              "type": "uint256"
            },
            {
              "internalType": "uint256",
              "name": "loanAmount",
              "type": "uint256"
            },
            {
              "internalType": "uint32",
              "name": "duration",
              "type": "uint32"
            }
          ],
          "internalType": "struct PWNDeed.OfferInstance",
          "name": "_offerInstance",
          "type": "tuple"
        },
        {
          "internalType": "bytes",
          "name": "_signature",
          "type": "bytes"
        },
        {
          "internalType": "address",
          "name": "_sender",
          "type": "address"
        }
      ],
      "name": "createFlexible",
      "outputs": [],
      "stateMutability": "nonpayable",
      "type": "function"
    },
    {
      "inputs": [
        {
          "components": [
            {
              "internalType": "address",
              "name": "collateralAddress",
              "type": "address"
            },
            {
              "internalType": "enum MultiToken.Category",
              "name": "collateralCategory",
              "type": "uint8"
            },
            {
              "internalType": "uint256",
              "name": "collateralAmount",
              "type": "uint256"
            },
            {
              "internalType": "uint256",
              "name": "collateralId",
              "type": "uint256"
            },
            {
              "internalType": "address",
              "name": "loanAssetAddress",
              "type": "address"
            },
            {
              "internalType": "uint256",
              "name": "loanAmount",
              "type": "uint256"
            },
            {
              "internalType": "uint256",
              "name": "loanYield",
              "type": "uint256"
            },
            {
              "internalType": "uint32",
              "name": "duration",
              "type": "uint32"
            }
          ],
          "internalType": "struct PWNDeed.LoanParams",
          "name": "_loanParams",
          "type": "tuple"
        },
        {
          "components": [
            {
              "internalType": "uint40",
              "name": "expiration",
              "type": "uint40"
            },
            {
              "internalType": "uint256",
              "name": "loanAmountPart",
              "type": "uint256"
            },
            {
              "internalType": "address",
              "name": "lender",
              "type": "address"
            },
            {
              "internalType": "bytes32",
              "name": "nonce",
              "type": "bytes32"
            },
            {
              "internalType": "bytes",
              "name": "signature",
              "type": "bytes"
            }
          ],
          "internalType": "struct PWNDeed.GroupOfferDigestWithSignature[]",
          "name": "_digestWithSignatureList",
          "type": "tuple[]"
        },
        {
          "internalType": "address",
          "name": "_lender",
          "type": "address"
        },
        {
          "internalType": "address",
          "name": "_sender",
          "type": "address"
        }
      ],
      "name": "createGroup",
      "outputs": [],
      "stateMutability": "nonpayable",
      "type": "function"
    },
    {
      "inputs": [
        {
          "internalType": "uint256",
          "name": "",
          "type": "uint256"
        }
      ],
      "name": "deeds",
      "outputs": [
        {
          "internalType": "uint8",
          "name": "status",
          "type": "uint8"
        },
        {
          "internalType": "address",
          "name": "borrower",
          "type": "address"
        },
        {
          "internalType": "uint32",
          "name": "duration",
          "type": "uint32"
        },
        {
          "internalType": "uint40",
          "name": "expiration",
          "type": "uint40"
        },
        {
          "components": [
            {
              "internalType": "address",
              "name": "assetAddress",
              "type": "address"
            },
            {
              "internalType": "enum MultiToken.Category",
              "name": "category",
              "type": "uint8"
            },
            {
              "internalType": "uint256",
              "name": "amount",
              "type": "uint256"
            },
            {
              "internalType": "uint256",
              "name": "id",
              "type": "uint256"
            }
          ],
          "internalType": "struct MultiToken.Asset",
          "name": "collateral",
          "type": "tuple"
        },
        {
          "components": [
            {
              "internalType": "address",
              "name": "assetAddress",
              "type": "address"
            },
            {
              "internalType": "enum MultiToken.Category",
              "name": "category",
              "type": "uint8"
            },
            {
              "internalType": "uint256",
              "name": "amount",
              "type": "uint256"
            },
            {
              "internalType": "uint256",
              "name": "id",
              "type": "uint256"
            }
          ],
          "internalType": "struct MultiToken.Asset",
          "name": "loan",
          "type": "tuple"
        },
        {
          "internalType": "uint256",
          "name": "loanRepayAmount",
          "type": "uint256"
        }
      ],
      "stateMutability": "view",
      "type": "function"
    },
    {
      "inputs": [
        {
          "internalType": "uint256",
          "name": "_did",
          "type": "uint256"
        }
      ],
      "name": "getBorrower",
      "outputs": [
        {
          "internalType": "address",
          "name": "",
          "type": "address"
        }
      ],
      "stateMutability": "view",
      "type": "function"
    },
    {
      "inputs": [
        {
          "internalType": "uint256",
          "name": "_did",
          "type": "uint256"
        }
      ],
      "name": "getCollateral",
      "outputs": [
        {
          "components": [
            {
              "internalType": "address",
              "name": "assetAddress",
              "type": "address"
            },
            {
              "internalType": "enum MultiToken.Category",
              "name": "category",
              "type": "uint8"
            },
            {
              "internalType": "uint256",
              "name": "amount",
              "type": "uint256"
            },
            {
              "internalType": "uint256",
              "name": "id",
              "type": "uint256"
            }
          ],
          "internalType": "struct MultiToken.Asset",
          "name": "",
          "type": "tuple"
        }
      ],
      "stateMutability": "view",
      "type": "function"
    },
    {
      "inputs": [
        {
          "internalType": "uint256",
          "name": "_did",
          "type": "uint256"
        }
      ],
      "name": "getDuration",
      "outputs": [
        {
          "internalType": "uint32",
          "name": "",
          "type": "uint32"
        }
      ],
      "stateMutability": "view",
      "type": "function"
    },
    {
      "inputs": [
        {
          "internalType": "uint256",
          "name": "_did",
          "type": "uint256"
        }
      ],
      "name": "getExpiration",
      "outputs": [
        {
          "internalType": "uint40",
          "name": "",
          "type": "uint40"
        }
      ],
      "stateMutability": "view",
      "type": "function"
    },
    {
      "inputs": [
        {
          "internalType": "uint256",
          "name": "_did",
          "type": "uint256"
        }
      ],
      "name": "getLoan",
      "outputs": [
        {
          "components": [
            {
              "internalType": "address",
              "name": "assetAddress",
              "type": "address"
            },
            {
              "internalType": "enum MultiToken.Category",
              "name": "category",
              "type": "uint8"
            },
            {
              "internalType": "uint256",
              "name": "amount",
              "type": "uint256"
            },
            {
              "internalType": "uint256",
              "name": "id",
              "type": "uint256"
            }
          ],
          "internalType": "struct MultiToken.Asset",
          "name": "",
          "type": "tuple"
        }
      ],
      "stateMutability": "view",
      "type": "function"
    },
    {
      "inputs": [
        {
          "internalType": "uint256",
          "name": "_did",
          "type": "uint256"
        }
      ],
      "name": "getLoanRepayAmount",
      "outputs": [
        {
          "internalType": "uint256",
          "name": "",
          "type": "uint256"
        }
      ],
      "stateMutability": "view",
      "type": "function"
    },
    {
      "inputs": [
        {
          "internalType": "uint256",
          "name": "_did",
          "type": "uint256"
        }
      ],
      "name": "getStatus",
      "outputs": [
        {
          "internalType": "uint8",
          "name": "",
          "type": "uint8"
        }
      ],
      "stateMutability": "view",
      "type": "function"
    },
    {
      "inputs": [],
      "name": "id",
      "outputs": [
        {
          "internalType": "uint256",
          "name": "",
          "type": "uint256"
        }
      ],
      "stateMutability": "view",
      "type": "function"
    },
    {
      "inputs": [
        {
          "internalType": "address",
          "name": "account",
          "type": "address"
        },
        {
          "internalType": "address",
          "name": "operator",
          "type": "address"
        }
      ],
      "name": "isApprovedForAll",
      "outputs": [
        {
          "internalType": "bool",
          "name": "",
          "type": "bool"
        }
      ],
      "stateMutability": "view",
      "type": "function"
    },
    {
      "inputs": [
        {
          "internalType": "bytes32",
          "name": "_offerHash",
          "type": "bytes32"
        }
      ],
      "name": "isRevoked",
      "outputs": [
        {
          "internalType": "bool",
          "name": "",
          "type": "bool"
        }
      ],
      "stateMutability": "view",
      "type": "function"
    },
    {
      "inputs": [],
      "name": "owner",
      "outputs": [
        {
          "internalType": "address",
          "name": "",
          "type": "address"
        }
      ],
      "stateMutability": "view",
      "type": "function"
    },
    {
      "inputs": [],
      "name": "renounceOwnership",
      "outputs": [],
      "stateMutability": "nonpayable",
      "type": "function"
    },
    {
      "inputs": [
        {
          "internalType": "uint256",
          "name": "_did",
          "type": "uint256"
        }
      ],
      "name": "repayLoan",
      "outputs": [],
      "stateMutability": "nonpayable",
      "type": "function"
    },
    {
      "inputs": [
        {
          "internalType": "bytes32",
          "name": "_offerHash",
          "type": "bytes32"
        },
        {
          "internalType": "bytes",
          "name": "_signature",
          "type": "bytes"
        },
        {
          "internalType": "address",
          "name": "_sender",
          "type": "address"
        }
      ],
      "name": "revokeOffer",
      "outputs": [],
      "stateMutability": "nonpayable",
      "type": "function"
    },
    {
      "inputs": [
        {
          "internalType": "bytes32",
          "name": "",
          "type": "bytes32"
        }
      ],
      "name": "revokedOffers",
      "outputs": [
        {
          "internalType": "bool",
          "name": "",
          "type": "bool"
        }
      ],
      "stateMutability": "view",
      "type": "function"
    },
    {
      "inputs": [
        {
          "internalType": "address",
          "name": "from",
          "type": "address"
        },
        {
          "internalType": "address",
          "name": "to",
          "type": "address"
        },
        {
          "internalType": "uint256[]",
          "name": "ids",
          "type": "uint256[]"
        },
        {
          "internalType": "uint256[]",
          "name": "amounts",
          "type": "uint256[]"
        },
        {
          "internalType": "bytes",
          "name": "data",
          "type": "bytes"
        }
      ],
      "name": "safeBatchTransferFrom",
      "outputs": [],
      "stateMutability": "nonpayable",
      "type": "function"
    },
    {
      "inputs": [
        {
          "internalType": "address",
          "name": "from",
          "type": "address"
        },
        {
          "internalType": "address",
          "name": "to",
          "type": "address"
        },
        {
          "internalType": "uint256",
          "name": "id",
          "type": "uint256"
        },
        {
          "internalType": "uint256",
          "name": "amount",
          "type": "uint256"
        },
        {
          "internalType": "bytes",
          "name": "data",
          "type": "bytes"
        }
      ],
      "name": "safeTransferFrom",
      "outputs": [],
      "stateMutability": "nonpayable",
      "type": "function"
    },
    {
      "inputs": [
        {
          "internalType": "address",
          "name": "operator",
          "type": "address"
        },
        {
          "internalType": "bool",
          "name": "approved",
          "type": "bool"
        }
      ],
      "name": "setApprovalForAll",
      "outputs": [],
      "stateMutability": "nonpayable",
      "type": "function"
    },
    {
      "inputs": [
        {
          "internalType": "address",
          "name": "_address",
          "type": "address"
        }
      ],
      "name": "setPWN",
      "outputs": [],
      "stateMutability": "nonpayable",
      "type": "function"
    },
    {
      "inputs": [
        {
          "internalType": "string",
          "name": "_newUri",
          "type": "string"
        }
      ],
      "name": "setUri",
      "outputs": [],
      "stateMutability": "nonpayable",
      "type": "function"
    },
    {
      "inputs": [
        {
          "internalType": "bytes4",
          "name": "interfaceId",
          "type": "bytes4"
        }
      ],
      "name": "supportsInterface",
      "outputs": [
        {
          "internalType": "bool",
          "name": "",
          "type": "bool"
        }
      ],
      "stateMutability": "view",
      "type": "function"
    },
    {
      "inputs": [
        {
          "internalType": "address",
          "name": "newOwner",
          "type": "address"
        }
      ],
      "name": "transferOwnership",
      "outputs": [],
      "stateMutability": "nonpayable",
      "type": "function"
    },
    {
      "inputs": [
        {
          "internalType": "uint256",
          "name": "",
          "type": "uint256"
        }
      ],
      "name": "uri",
      "outputs": [
        {
          "internalType": "string",
          "name": "",
          "type": "string"
        }
      ],
      "stateMutability": "view",
      "type": "function"
    }
  ],
  "bytecode": "0x60806040523480156200001157600080fd5b50604051620046e3380380620046e3833981016040819052620000349162000164565b80620000408162000053565b506200004c336200006c565b506200028d565b805162000068906002906020840190620000be565b5050565b600380546001600160a01b038381166001600160a01b0319831681179093556040519116919082907f8be0079c531659141344cd1fd0a4f28419497f9722a3daafe3b4186f6b6457e090600090a35050565b828054620000cc906200023a565b90600052602060002090601f016020900481019282620000f057600085556200013b565b82601f106200010b57805160ff19168380011785556200013b565b828001600101855582156200013b579182015b828111156200013b5782518255916020019190600101906200011e565b50620001499291506200014d565b5090565b5b808211156200014957600081556001016200014e565b6000602080838503121562000177578182fd5b82516001600160401b03808211156200018e578384fd5b818501915085601f830112620001a2578384fd5b815181811115620001b757620001b762000277565b604051601f8201601f19908116603f01168101908382118183101715620001e257620001e262000277565b816040528281528886848701011115620001fa578687fd5b8693505b828410156200021d5784840186015181850187015292850192620001fe565b828411156200022e57868684830101525b98975050505050505050565b600181811c908216806200024f57607f821691505b602082108114156200027157634e487b7160e01b600052602260045260246000fd5b50919050565b634e487b7160e01b600052604160045260246000fd5b614446806200029d6000396000f3fe608060405234801561001057600080fd5b50600436106101fa5760003560e01c80638c8ca4dd1161011a578063ba6bf790116100ad578063f242432a1161007c578063f242432a14610549578063f2fde38b1461055c578063f432bfaa1461056f578063f9d7566614610592578063fcd3533c146105a557600080fd5b8063ba6bf790146104c4578063ddd5e1b2146104e7578063e985e9c5146104fa578063ee502d7d1461053657600080fd5b8063a22cb465116100e9578063a22cb46514610482578063ab7b1c8914610495578063af640d0f146104a8578063b3489e15146104b157600080fd5b80638c8ca4dd146104075780638da5cb5b1461041a5780639b642de11461042b578063a05b775f1461043e57600080fd5b8063504006ca11610192578063805094c711610161578063805094c7146103595780638500d919146103845780638bb126a7146103b25780638c26ba0c146103f457600080fd5b8063504006ca146103065780635c622a0e146103195780635f1523ee1461033e578063715018a61461035157600080fd5b80632a62a490116101ce5780632a62a4901461028e5780632eb2c2d6146102ae5780634294857f146102c35780634e1273f4146102e657600080fd5b8062fdd58e146101ff57806301ffc9a7146102255780630e89341c1461024857806318edf56414610268575b600080fd5b61021261020d36600461364c565b6105b8565b6040519081526020015b60405180910390f35b6102386102333660046137de565b610652565b604051901515815260200161021c565b61025b61025636600461373f565b6106a2565b60405161021c9190613f8a565b61027b61027636600461373f565b610736565b60405161021c97969594939291906140e6565b6102a161029c36600461373f565b61088b565b60405161021c91906140d8565b6102c16102bc36600461350b565b61094e565b005b6102386102d136600461373f565b60009081526007602052604090205460ff1690565b6102f96102f4366004613675565b6109e5565b60405161021c9190613e1f565b6102a161031436600461373f565b610b46565b61032c61032736600461373f565b610bcc565b60405160ff909116815260200161021c565b6102c161034c366004613863565b610c59565b6102c16110d7565b60045461036c906001600160a01b031681565b6040516001600160a01b03909116815260200161021c565b61036c61039236600461373f565b60009081526006602052604090205461010090046001600160a01b031690565b6103df6103c036600461373f565b600090815260066020526040902054600160a81b900463ffffffff1690565b60405163ffffffff909116815260200161021c565b6102c16104023660046134bf565b61110d565b610212610415366004613bb7565b611159565b6003546001600160a01b031661036c565b6102c1610439366004613816565b611191565b61046c61044c36600461373f565b600090815260066020526040902054600160c81b900464ffffffffff1690565b60405164ffffffffff909116815260200161021c565b6102c1610490366004613612565b6111c7565b6102c16104a336600461373f565b61129e565b61021260055481565b6102c16104bf3660046139b5565b61138d565b6102126104d236600461373f565b60009081526006602052604090206007015490565b6102c16104f5366004613b95565b611735565b6102386105083660046134d9565b6001600160a01b03918216600090815260016020908152604080832093909416825291909152205460ff1690565b6102c1610544366004613757565b611868565b6102c16105573660046135b0565b6119ed565b6102c161056a3660046134bf565b611a74565b61023861057d36600461373f565b60076020526000908152604090205460ff1681565b6102c16105a0366004613a93565b611b0c565b6102c16105b3366004613b95565b611df1565b60006001600160a01b0383166106295760405162461bcd60e51b815260206004820152602b60248201527f455243313135353a2062616c616e636520717565727920666f7220746865207a60448201526a65726f206164647265737360a81b60648201526084015b60405180910390fd5b506000818152602081815260408083206001600160a01b03861684529091529020545b92915050565b60006001600160e01b03198216636cdb3d1360e11b148061068357506001600160e01b031982166303a24d0760e21b145b8061064c57506301ffc9a760e01b6001600160e01b031983161461064c565b6060600280546106b190614266565b80601f01602080910402602001604051908101604052809291908181526020018280546106dd90614266565b801561072a5780601f106106ff5761010080835404028352916020019161072a565b820191906000526020600020905b81548152906001019060200180831161070d57829003601f168201915b50505050509050919050565b60066020908152600091825260409182902080548351608081019094526001820180546001600160a01b03808216875260ff80851697610100860490921696600160a81b860463ffffffff1696600160c81b90960464ffffffffff169594929390840191600160a01b9091041660028111156107c257634e487b7160e01b600052602160045260246000fd5b60028111156107e157634e487b7160e01b600052602160045260246000fd5b815260018201546020808301919091526002928301546040928301528151608081019092526004850180546001600160a01b03811684529495949293909291840191600160a01b900460ff169081111561084b57634e487b7160e01b600052602160045260246000fd5b600281111561086a57634e487b7160e01b600052602160045260246000fd5b81526001820154602082015260029091015460409091015260079091015487565b6108b7604080516080810190915260008082526020820190815260200160008152602001600081525090565b60008281526006602090815260409182902082516080810190935260010180546001600160a01b03811684529091830190600160a01b900460ff16600281111561091157634e487b7160e01b600052602160045260246000fd5b600281111561093057634e487b7160e01b600052602160045260246000fd5b81526001820154602082015260029091015460409091015292915050565b6001600160a01b03851633148061096a575061096a8533610508565b6109d15760405162461bcd60e51b815260206004820152603260248201527f455243313135353a207472616e736665722063616c6c6572206973206e6f74206044820152711bdddb995c881b9bdc88185c1c1c9bdd995960721b6064820152608401610620565b6109de8585858585611f50565b5050505050565b60608151835114610a4a5760405162461bcd60e51b815260206004820152602960248201527f455243313135353a206163636f756e747320616e6420696473206c656e677468604482015268040dad2e6dac2e8c6d60bb1b6064820152608401610620565b600083516001600160401b03811115610a7357634e487b7160e01b600052604160045260246000fd5b604051908082528060200260200182016040528015610a9c578160200160208202803683370190505b50905060005b8451811015610b3e57610b03858281518110610ace57634e487b7160e01b600052603260045260246000fd5b6020026020010151858381518110610af657634e487b7160e01b600052603260045260246000fd5b60200260200101516105b8565b828281518110610b2357634e487b7160e01b600052603260045260246000fd5b6020908102919091010152610b3781614312565b9050610aa2565b509392505050565b610b72604080516080810190915260008082526020820190815260200160008152602001600081525090565b60008281526006602090815260409182902082516080810190935260040180546001600160a01b03811684529091830190600160a01b900460ff16600281111561091157634e487b7160e01b600052602160045260246000fd5b600081815260066020526040812054600160c81b900464ffffffffff1615801590610c13575060008281526006602052604090205442600160c81b90910464ffffffffff16105b8015610c31575060008281526006602052604090205460ff16600314155b15610c3e57506004919050565b5060009081526006602052604090205460ff1690565b919050565b6004546001600160a01b03163314610c835760405162461bcd60e51b815260040161062090613fe5565b6000610c8d612149565b610c9686612213565b604051602001610ca7929190613d32565b604051602081830303815290604052805190602001209050610ccf856101600151828561238b565b610cde85610140015182612500565b60608501515115610d6457610cfb856060015185600001516125c6565b610d645760405162461bcd60e51b815260206004820152603460248201527f53656c656374656420636f6c6c61746572616c206964206973206e6f7420636f6044820152731b9d185a5b9959081a5b881dda1a5d195b1a5cdd60621b6064820152608401610620565b83602001518560c0015111158015610d8457508460a00151846020015111155b610ddc5760405162461bcd60e51b815260206004820152602360248201527f4c6f616e20616d6f756e74206973206e6f7420696e206f6666657265642072616044820152626e676560e81b6064820152608401610620565b836040015163ffffffff1685610120015163ffffffff1611158015610e16575084610100015163ffffffff16846040015163ffffffff1611155b610e705760405162461bcd60e51b815260206004820152602560248201527f4c6f616e206475726174696f6e206973206e6f7420696e206f6666657265642060448201526472616e676560d81b6064820152608401610620565b6000818152600760205260408120805460ff19166001179055600580548290610e9890614312565b91829055506000818152600660205260409081902080549188015160026001600160a81b03199093166101006001600160a01b03891602179290921763ffffffff60a81b1916600160a81b63ffffffff909316928302178155919250610efe90426141ce565b815464ffffffffff91909116600160c81b0264ffffffffff60c81b19909116178155604080516080810190915287516001600160a01b03168152602080890151908201906002811115610f6157634e487b7160e01b600052602160045260246000fd5b81526040898101516020808401919091528951919092015281516001840180546001600160a01b031981166001600160a01b039093169283178255928401519092909183916001600160a81b03191617600160a01b836002811115610fd657634e487b7160e01b600052602160045260246000fd5b021790555060408281015160018301556060928301516002909201919091558051608080820183528a01516001600160a01b0316808252600060208084018290528b018051848601819052939095018190526004860180546001600160a81b0319169092179091556005850191909155600684015590519087015160e08901516101008a015161106893929190611159565b81600701819055506110918761016001518360016040518060200160405280600081525061261e565b828761016001516001600160a01b0316837fff5ced38ded211d855368583c4a38b46223080c672eeef8c90c6cf8f962c7f3a60405160405180910390a450505050505050565b6003546001600160a01b031633146111015760405162461bcd60e51b8152600401610620906140a3565b61110b6000612728565b565b6003546001600160a01b031633146111375760405162461bcd60e51b8152600401610620906140a3565b600480546001600160a01b0319166001600160a01b0392909216919091179055565b60008163ffffffff168463ffffffff16846111749190614217565b61117e91906141f7565b61118890866141b6565b95945050505050565b6003546001600160a01b031633146111bb5760405162461bcd60e51b8152600401610620906140a3565b6111c48161277a565b50565b336001600160a01b03831614156112325760405162461bcd60e51b815260206004820152602960248201527f455243313135353a2073657474696e6720617070726f76616c20737461747573604482015268103337b91039b2b63360b91b6064820152608401610620565b3360008181526001602090815260408083206001600160a01b03871680855290835292819020805460ff191686151590811790915590519081529192917f17307eab39ab6107e8899845ad3d59bd9653f200f220920489ca2b5937696c31910160405180910390a35050565b6004546001600160a01b031633146112c85760405162461bcd60e51b815260040161062090613fe5565b6112d181610bcc565b60ff166002146113375760405162461bcd60e51b815260206004820152602b60248201527f44656564206973206e6f742072756e6e696e6720616e642063616e6e6f74206260448201526a652070616964206261636b60a81b6064820152608401610620565b60008181526006602052604090819020805460ff19166003179055517f0b117c6ee83d9fec759aca04cf1059fc287d6173a4eb3f42c1232cce1d5202f4906113829083815260200190565b60405180910390a150565b6004546001600160a01b031633146113b75760405162461bcd60e51b815260040161062090613fe5565b6000805b845181101561148a5760008582815181106113e657634e487b7160e01b600052603260045260246000fd5b6020026020010151905060006113fa612149565b611404898461278d565b604051602001611415929190613d32565b604051602081830303815290604052805190602001209050611440826040015182846080015161238b565b815161144c9082612500565b6000818152600760209081526040909120805460ff1916600117905582015161147590856141b6565b935050508061148390614312565b90506113bb565b508460a0015181146114f75760405162461bcd60e51b815260206004820152603060248201527f426f72726f77656420616d6f756e742068617320746f20657175616c20746f7460448201526f185b081b195b99195908185b5bdd5b9d60821b6064820152608401610620565b600060056000815461150890614312565b91829055506000818152600660205260409020805460e089015160026001600160a81b03199092166101006001600160a01b03891602179190911763ffffffff60a81b1916600160a81b63ffffffff9092169182021782559192509061156e90426141ce565b815464ffffffffff91909116600160c81b0264ffffffffff60c81b19909116178155604080516080810190915287516001600160a01b031681526020808901519082019060028111156115d157634e487b7160e01b600052602160045260246000fd5b815260408981015160208084019190915260608b0151919092015281516001840180546001600160a01b031981166001600160a01b039093169283178255928401519092909183916001600160a81b03191617600160a01b83600281111561164957634e487b7160e01b600052602160045260246000fd5b021790555060408281015160018301556060928301516002909201919091558051608080820183528a01516001600160a01b031680825260006020830181905260a08c018051948401859052929094018490526004850180546001600160a81b03191690911790556005840191909155600683019190915560c088015190516116d291906141b6565b81600701819055506116f6858360016040518060200160405280600081525061261e565b6040516001600160a01b0386169083907f89a4e415509a2aaf19e98b4db5e47123249a3516af3c32a56b4547d65a164ea990600090a350505050505050565b6004546001600160a01b0316331461175f5760405162461bcd60e51b815260040161062090613fe5565b61176981836105b8565b6001146117b85760405162461bcd60e51b815260206004820152601c60248201527f43616c6c6572206973206e6f74207468652064656564206f776e6572000000006044820152606401610620565b60036117c383610bcc565b60ff1610156118145760405162461bcd60e51b815260206004820152601960248201527f446565642063616e277420626520636c61696d656420796574000000000000006044820152606401610620565b60008281526006602052604090819020805460ff19169055517fa15f537ebc49d6f6d5217f43d2c5d2b830069397bed363fdc1d811814148ec6d9061185c9084815260200190565b60405180910390a15050565b6004546001600160a01b031633146118925760405162461bcd60e51b815260040161062090613fe5565b806001600160a01b03166118dc8585858080601f01602080910402602001604051908101604052809392919081815260200183838082843760009201919091525061281892505050565b6001600160a01b0316146119325760405162461bcd60e51b815260206004820152601d60248201527f53656e646572206973206e6f7420616e206f66666572207369676e65720000006044820152606401610620565b60008481526007602052604090205460ff16156119a75760405162461bcd60e51b815260206004820152602d60248201527f4f6666657220697320616c7265616479207265766f6b6564206f72206861732060448201526c1899595b881858d8d95c1d1959609a1b6064820152608401610620565b600084815260076020526040808220805460ff191660011790555185917fc0885ade686cf1ca700832b5b7a2f2b0759e5a483174588f940e3ac048a8f8d091a250505050565b6001600160a01b038516331480611a095750611a098533610508565b611a675760405162461bcd60e51b815260206004820152602960248201527f455243313135353a2063616c6c6572206973206e6f74206f776e6572206e6f7260448201526808185c1c1c9bdd995960ba1b6064820152608401610620565b6109de8585858585612834565b6003546001600160a01b03163314611a9e5760405162461bcd60e51b8152600401610620906140a3565b6001600160a01b038116611b035760405162461bcd60e51b815260206004820152602660248201527f4f776e61626c653a206e6577206f776e657220697320746865207a65726f206160448201526564647265737360d01b6064820152608401610620565b6111c481612728565b6004546001600160a01b03163314611b365760405162461bcd60e51b815260040161062090613fe5565b6000611b40612149565b611b4985612951565b604051602001611b5a929190613d32565b604051602081830303815290604052805190602001209050611b82846101200151828561238b565b611b9184610100015182612500565b6000818152600760205260408120805460ff19166001179055600580548290611bb990614312565b91829055506000818152600660205260409020805460e088015160026001600160a81b03199092166101006001600160a01b03891602179190911763ffffffff60a81b1916600160a81b63ffffffff90921691820217825591925090611c1f90426141ce565b815464ffffffffff91909116600160c81b0264ffffffffff60c81b19909116178155604080516080810190915286516001600160a01b03168152602080880151908201906002811115611c8257634e487b7160e01b600052602160045260246000fd5b815260408881015160208084019190915260608a0151919092015281516001840180546001600160a01b031981166001600160a01b039093169283178255928401519092909183916001600160a81b03191617600160a01b836002811115611cfa57634e487b7160e01b600052602160045260246000fd5b021790555060408281015160018301556060928301516002909201919091558051608080820183528901516001600160a01b031680825260006020830181905260a08b018051948401859052929094018490526004850180546001600160a81b03191690911790556005840191909155600683019190915560c08701519051611d8391906141b6565b8160070181905550611dac8661012001518360016040518060200160405280600081525061261e565b828661012001516001600160a01b0316837fff5ced38ded211d855368583c4a38b46223080c672eeef8c90c6cf8f962c7f3a60405160405180910390a4505050505050565b6004546001600160a01b03163314611e1b5760405162461bcd60e51b815260040161062090613fe5565b611e2581836105b8565b600114611e745760405162461bcd60e51b815260206004820152601c60248201527f43616c6c6572206973206e6f74207468652064656564206f776e6572000000006044820152606401610620565b60008281526006602052604090205460ff1615611ede5760405162461bcd60e51b815260206004820152602260248201527f446565642063616e2774206265206275726e6564206174207468697320737461604482015261676560f01b6064820152608401610620565b6000828152600660208190526040822080546001600160f01b0319168155600180820180546001600160a81b0319908116909155600283018590556003830185905560048301805490911690556005820184905591810183905560070191909155611f4c90829084906129e6565b5050565b8151835114611fb25760405162461bcd60e51b815260206004820152602860248201527f455243313135353a2069647320616e6420616d6f756e7473206c656e677468206044820152670dad2e6dac2e8c6d60c31b6064820152608401610620565b6001600160a01b038416611fd85760405162461bcd60e51b815260040161062090614014565b3360005b84518110156120db57600085828151811061200757634e487b7160e01b600052603260045260246000fd5b60200260200101519050600085838151811061203357634e487b7160e01b600052603260045260246000fd5b602090810291909101810151600084815280835260408082206001600160a01b038e1683529093529190912054909150818110156120835760405162461bcd60e51b815260040161062090614059565b6000838152602081815260408083206001600160a01b038e8116855292528083208585039055908b168252812080548492906120c09084906141b6565b92505081905550505050806120d490614312565b9050611fdc565b50846001600160a01b0316866001600160a01b0316826001600160a01b03167f4a39dc06d4c0dbc64b70af90fd698a233a518aa5d07e595d983b8c0526c8f7fb878760405161212b929190613e32565b60405180910390a4612141818787878787612b60565b505050505050565b6040805180820182526003815262282ba760e91b6020918201528151808301835260018152603160f81b9082015281517f8b73c3c69bb8fe3d512ecc4cf759cc79239f7b179b0ffacaa9a75d522b39400f818301527fbecbc5e7d5b58d6f1c8ea79197877ea15b6d3f333b75c73ffc7ce124e395e163818401527fc89efdaa54c0f20c7adf612882df0950f5a951637e0307cdcb4c672f298b8bc660608201524660808201523060a0808301919091528351808303909101815260c0909101909252815191012090565b600080826000015183602001518460400151856060015160405160200161223a9190613caf565b604051602081830303815290604052805190602001206040516020016122639493929190613df0565b60408051808303601f1901815282825260808681015160a08089015160c08a015160e08b01516001600160a01b0390941660208901529587015260608601949094529084015292506000910160408051808303601f190181528282526101008701516101208801516101408901516101608a01516101808b015163ffffffff9485166020890152939092169486019490945264ffffffffff90931660608501526001600160a01b03909216608084015260a0830191909152915060009060c00160405160208183030381529060405290507f739e116d0107abf216ef01e7cd15f09820b8d836369345801e1ff5e8b367cfb183838360405160200161236b9493929190613ce5565b604051602081830303815290604052805190602001209350505050919050565b6001600160a01b0383163b1561248a57604051630b135d3f60e11b808252906001600160a01b03851690631626ba7e906123cb9086908690600401613f71565b60206040518083038186803b1580156123e357600080fd5b505afa1580156123f7573d6000803e3d6000fd5b505050506040513d601f19601f8201168201806040525081019061241b91906137fa565b6001600160e01b031916146124855760405162461bcd60e51b815260206004820152602a60248201527f5369676e6174757265206f6e20626568616c66206f6620636f6e7472616374206044820152691a5cc81a5b9d985b1a5960b21b6064820152608401610620565b505050565b826001600160a01b031661249e8383612818565b6001600160a01b0316146124855760405162461bcd60e51b8152602060048201526024808201527f4c656e6465722061646472657373206469646e2774207369676e20746865206f604482015263333332b960e11b6064820152608401610620565b64ffffffffff8216158061251a57508164ffffffffff1642105b6125595760405162461bcd60e51b815260206004820152601060248201526f13d999995c881a5cc8195e1c1a5c995960821b6044820152606401610620565b60008181526007602052604090205460ff1615611f4c5760405162461bcd60e51b815260206004820152602560248201527f4f66666572206973207265766f6b6564206f7220686173206265656e20616363604482015264195c1d195960da1b6064820152608401610620565b6000805b835181101561261457828482815181106125f457634e487b7160e01b600052603260045260246000fd5b6020026020010151141561260c57600191505061064c565b6001016125ca565b5060009392505050565b6001600160a01b03841661267e5760405162461bcd60e51b815260206004820152602160248201527f455243313135353a206d696e7420746f20746865207a65726f206164647265736044820152607360f81b6064820152608401610620565b336126988160008761268f88612ccb565b6109de88612ccb565b6000848152602081815260408083206001600160a01b0389168452909152812080548592906126c89084906141b6565b909155505060408051858152602081018590526001600160a01b0380881692600092918516917fc3d58168c5ae7397731d063d5bbf3d657854427343f4c083240f7aacaa2d0f62910160405180910390a46109de81600087878787612d24565b600380546001600160a01b038381166001600160a01b0319831681179093556040519116919082907f8be0079c531659141344cd1fd0a4f28419497f9722a3daafe3b4186f6b6457e090600090a35050565b8051611f4c90600290602084019061317b565b8151602080840151604080860151606080880151608089015160a08a015160c08b015160e08c01518b518c8b01518d8a0151978e0151995160009d6127fa9d7fe2d4229f6d6bd9cd9e4b797e196228aeda517006b4aa99e63d26ffd6e21553ab9d919c919b9a9201613ed9565b60405160208183030381529060405280519060200120905092915050565b60008060006128278585612dee565b91509150610b3e81612e5e565b6001600160a01b03841661285a5760405162461bcd60e51b815260040161062090614014565b3361286a81878761268f88612ccb565b6000848152602081815260408083206001600160a01b038a168452909152902054838110156128ab5760405162461bcd60e51b815260040161062090614059565b6000858152602081815260408083206001600160a01b038b81168552925280832087850390559088168252812080548692906128e89084906141b6565b909155505060408051868152602081018690526001600160a01b03808916928a821692918616917fc3d58168c5ae7397731d063d5bbf3d657854427343f4c083240f7aacaa2d0f62910160405180910390a4612948828888888888612d24565b50505050505050565b60007f73fa9d9b2b8a6ae8dd3a6cf0a97956557a9a4e7eb8cddcc915edf2e2fe2f7c6d826000015183602001518460400151856060015186608001518760a001518860c001518960e001518a61010001518b61012001518c61014001516040516020016129c99c9b9a99989796959493929190613e57565b604051602081830303815290604052805190602001209050919050565b6001600160a01b038316612a485760405162461bcd60e51b815260206004820152602360248201527f455243313135353a206275726e2066726f6d20746865207a65726f206164647260448201526265737360e81b6064820152608401610620565b33612a7881856000612a5987612ccb565b612a6287612ccb565b5050604080516020810190915260009052505050565b6000838152602081815260408083206001600160a01b038816845290915290205482811015612af55760405162461bcd60e51b8152602060048201526024808201527f455243313135353a206275726e20616d6f756e7420657863656564732062616c604482015263616e636560e01b6064820152608401610620565b6000848152602081815260408083206001600160a01b03898116808652918452828520888703905582518981529384018890529092908616917fc3d58168c5ae7397731d063d5bbf3d657854427343f4c083240f7aacaa2d0f62910160405180910390a45050505050565b6001600160a01b0384163b156121415760405163bc197c8160e01b81526001600160a01b0385169063bc197c8190612ba49089908990889088908890600401613d4d565b602060405180830381600087803b158015612bbe57600080fd5b505af1925050508015612bee575060408051601f3d908101601f19168201909252612beb918101906137fa565b60015b612c9b57612bfa614359565b806308c379a01415612c345750612c0f614371565b80612c1a5750612c36565b8060405162461bcd60e51b81526004016106209190613f8a565b505b60405162461bcd60e51b815260206004820152603460248201527f455243313135353a207472616e7366657220746f206e6f6e20455243313135356044820152732932b1b2b4bb32b91034b6b83632b6b2b73a32b960611b6064820152608401610620565b6001600160e01b0319811663bc197c8160e01b146129485760405162461bcd60e51b815260040161062090613f9d565b60408051600180825281830190925260609160009190602080830190803683370190505090508281600081518110612d1357634e487b7160e01b600052603260045260246000fd5b602090810291909101015292915050565b6001600160a01b0384163b156121415760405163f23a6e6160e01b81526001600160a01b0385169063f23a6e6190612d689089908990889088908890600401613dab565b602060405180830381600087803b158015612d8257600080fd5b505af1925050508015612db2575060408051601f3d908101601f19168201909252612daf918101906137fa565b60015b612dbe57612bfa614359565b6001600160e01b0319811663f23a6e6160e01b146129485760405162461bcd60e51b815260040161062090613f9d565b600080825160411415612e255760208301516040840151606085015160001a612e198782858561305f565b94509450505050612e57565b825160401415612e4f5760208301516040840151612e4486838361314c565b935093505050612e57565b506000905060025b9250929050565b6000816004811115612e8057634e487b7160e01b600052602160045260246000fd5b1415612e895750565b6001816004811115612eab57634e487b7160e01b600052602160045260246000fd5b1415612ef95760405162461bcd60e51b815260206004820152601860248201527f45434453413a20696e76616c6964207369676e617475726500000000000000006044820152606401610620565b6002816004811115612f1b57634e487b7160e01b600052602160045260246000fd5b1415612f695760405162461bcd60e51b815260206004820152601f60248201527f45434453413a20696e76616c6964207369676e6174757265206c656e677468006044820152606401610620565b6003816004811115612f8b57634e487b7160e01b600052602160045260246000fd5b1415612fe45760405162461bcd60e51b815260206004820152602260248201527f45434453413a20696e76616c6964207369676e6174757265202773272076616c604482015261756560f01b6064820152608401610620565b600481600481111561300657634e487b7160e01b600052602160045260246000fd5b14156111c45760405162461bcd60e51b815260206004820152602260248201527f45434453413a20696e76616c6964207369676e6174757265202776272076616c604482015261756560f01b6064820152608401610620565b6000807f7fffffffffffffffffffffffffffffff5d576e7357a4501ddfe92f46681b20a08311156130965750600090506003613143565b8460ff16601b141580156130ae57508460ff16601c14155b156130bf5750600090506004613143565b6040805160008082526020820180845289905260ff881692820192909252606081018690526080810185905260019060a0016020604051602081039080840390855afa158015613113573d6000803e3d6000fd5b5050604051601f1901519150506001600160a01b03811661313c57600060019250925050613143565b9150600090505b94509492505050565b6000806001600160ff1b03831660ff84901c601b0161316d8782888561305f565b935093505050935093915050565b82805461318790614266565b90600052602060002090601f0160209004810192826131a957600085556131ef565b82601f106131c257805160ff19168380011785556131ef565b828001600101855582156131ef579182015b828111156131ef5782518255916020019190600101906131d4565b506131fb9291506131ff565b5090565b5b808211156131fb5760008155600101613200565b60006001600160401b0383111561322d5761322d614343565b604051613244601f8501601f1916602001826142e6565b80915083815284848401111561325957600080fd5b83836020830137600060208583010152509392505050565b80356001600160a01b0381168114610c5457600080fd5b600082601f830112613298578081fd5b813560206132a582614193565b604080516132b383826142e6565b8481528381019250868401600586901b880185018910156132d2578687fd5b865b8681101561337e5781356001600160401b03808211156132f257898afd5b908a019060a0828d03601f1901121561330957898afd5b8551613314816142a1565b61331f8984016134aa565b815286830135898201526060613336818501613271565b888301526080808501358284015260a0850135915083821115613357578c8dfd5b6133658f8c84880101613400565b90830152508752505093850193908501906001016132d4565b509098975050505050505050565b600082601f83011261339c578081fd5b813560206133a982614193565b6040516133b682826142e6565b8381528281019150858301600585901b870184018810156133d5578586fd5b855b858110156133f3578135845292840192908401906001016133d7565b5090979650505050505050565b600082601f830112613410578081fd5b61341f83833560208501613214565b9392505050565b803560038110610c5457600080fd5b600060608284031215613446578081fd5b604051606081018181106001600160401b038211171561346857613468614343565b8060405250809150823581526020830135602082015261348a60408401613496565b60408201525092915050565b803563ffffffff81168114610c5457600080fd5b803564ffffffffff81168114610c5457600080fd5b6000602082840312156134d0578081fd5b61341f82613271565b600080604083850312156134eb578081fd5b6134f483613271565b915061350260208401613271565b90509250929050565b600080600080600060a08688031215613522578081fd5b61352b86613271565b945061353960208701613271565b935060408601356001600160401b0380821115613554578283fd5b61356089838a0161338c565b94506060880135915080821115613575578283fd5b61358189838a0161338c565b93506080880135915080821115613596578283fd5b506135a388828901613400565b9150509295509295909350565b600080600080600060a086880312156135c7578283fd5b6135d086613271565b94506135de60208701613271565b9350604086013592506060860135915060808601356001600160401b03811115613606578182fd5b6135a388828901613400565b60008060408385031215613624578182fd5b61362d83613271565b915060208301358015158114613641578182fd5b809150509250929050565b6000806040838503121561365e578182fd5b61366783613271565b946020939093013593505050565b60008060408385031215613687578182fd5b82356001600160401b038082111561369d578384fd5b818501915085601f8301126136b0578384fd5b813560206136bd82614193565b6040516136ca82826142e6565b8381528281019150858301600585901b870184018b10156136e9578889fd5b8896505b84871015613712576136fe81613271565b8352600196909601959183019183016136ed565b5096505086013592505080821115613728578283fd5b506137358582860161338c565b9150509250929050565b600060208284031215613750578081fd5b5035919050565b6000806000806060858703121561376c578182fd5b8435935060208501356001600160401b0380821115613789578384fd5b818701915087601f83011261379c578384fd5b8135818111156137aa578485fd5b8860208285010111156137bb578485fd5b6020830195508094505050506137d360408601613271565b905092959194509250565b6000602082840312156137ef578081fd5b813561341f816143fa565b60006020828403121561380b578081fd5b815161341f816143fa565b600060208284031215613827578081fd5b81356001600160401b0381111561383c578182fd5b8201601f8101841361384c578182fd5b61385b84823560208401613214565b949350505050565b60008060008060c08587031215613878578182fd5b84356001600160401b038082111561388e578384fd5b908601906101a082890312156138a2578384fd5b6138aa614147565b6138b383613271565b81526138c160208401613426565b6020820152604083013560408201526060830135828111156138e1578586fd5b6138ed8a82860161338c565b6060830152506138ff60808401613271565b608082015260a083013560a082015260c083013560c082015260e083013560e0820152610100613930818501613496565b90820152610120613942848201613496565b908201526101406139548482016134aa565b90820152610160613966848201613271565b90820152610180838101359082015295506139848860208901613435565b94506080870135915080821115613999578384fd5b506139a687828801613400565b9250506137d360a08601613271565b6000806000808486036101608112156139cc578283fd5b610100808212156139db578384fd5b60405191506139e9826142c6565b6139f287613271565b8252613a0060208801613426565b60208301526040870135604083015260608701356060830152613a2560808801613271565b608083015260a087013560a083015260c087013560c0830152613a4a60e08801613496565b60e08301529094508501356001600160401b03811115613a68578283fd5b613a7487828801613288565b935050613a846101208601613271565b91506137d36101408601613271565b60008060008385036101a0811215613aa9578182fd5b61016080821215613ab8578283fd5b613ac0614170565b9150613acb86613271565b8252613ad960208701613426565b60208301526040860135604083015260608601356060830152613afe60808701613271565b608083015260a086013560a083015260c086013560c0830152613b2360e08701613496565b60e0830152610100613b368188016134aa565b90830152610120613b48878201613271565b9083015261014086810135908301529093508401356001600160401b03811115613b70578182fd5b613b7c86828701613400565b925050613b8c6101808501613271565b90509250925092565b60008060408385031215613ba7578182fd5b8235915061350260208401613271565b60008060008060808587031215613bcc578182fd5b84359350613bdc60208601613496565b9250604085013591506137d360608601613496565b6000815180845260208085019450808401835b83811015613c2057815187529582019590820190600101613c04565b509495945050505050565b60008151808452613c43816020860160208601614236565b601f01601f19169290920160200192915050565b60038110613c7557634e487b7160e01b600052602160045260246000fd5b9052565b80516001600160a01b0316825260208082015190613c9990840182613c57565b5060408181015190830152606090810151910152565b815160009082906020808601845b83811015613cd957815185529382019390820190600101613cbd565b50929695505050505050565b848152600060208551613cfd81838601848a01614236565b855190840190613d1281848401858a01614236565b8551910190613d2681848401858901614236565b01019695505050505050565b61190160f01b81526002810192909252602282015260420190565b6001600160a01b0386811682528516602082015260a060408201819052600090613d7990830186613bf1565b8281036060840152613d8b8186613bf1565b90508281036080840152613d9f8185613c2b565b98975050505050505050565b6001600160a01b03868116825285166020820152604081018490526060810183905260a060808201819052600090613de590830184613c2b565b979650505050505050565b6001600160a01b038516815260808101613e0d6020830186613c57565b60408201939093526060015292915050565b60208152600061341f6020830184613bf1565b604081526000613e456040830185613bf1565b82810360208401526111888185613bf1565b8c81526001600160a01b038c81166020830152610180820190613e7d604084018e613c57565b606083019b909b52608082019990995296891660a088015260c087019590955260e086019390935263ffffffff9190911661010085015264ffffffffff1661012084015290931661014082015261016001919091529392505050565b8d81526001600160a01b038d811660208301526101a0820190613eff604084018f613c57565b8c60608401528b6080840152808b1660a0840152508860c08301528760e083015263ffffffff871661010083015264ffffffffff861661012083015284610140830152613f586101608301856001600160a01b03169052565b826101808301529e9d5050505050505050505050505050565b82815260406020820152600061385b6040830184613c2b565b60208152600061341f6020830184613c2b565b60208082526028908201527f455243313135353a204552433131353552656365697665722072656a656374656040820152676420746f6b656e7360c01b606082015260800190565b60208082526015908201527421b0b63632b91034b9903737ba103a343290282ba760591b604082015260600190565b60208082526025908201527f455243313135353a207472616e7366657220746f20746865207a65726f206164604082015264647265737360d81b606082015260800190565b6020808252602a908201527f455243313135353a20696e73756666696369656e742062616c616e636520666f60408201526939103a3930b739b332b960b11b606082015260800190565b6020808252818101527f4f776e61626c653a2063616c6c6572206973206e6f7420746865206f776e6572604082015260600190565b6080810161064c8284613c79565b60ff881681526001600160a01b038716602082015263ffffffff8616604082015264ffffffffff851660608201526101a081016141266080830186613c79565b614134610100830185613c79565b8261018083015298975050505050505050565b6040516101a081016001600160401b038111828210171561416a5761416a614343565b60405290565b60405161016081016001600160401b038111828210171561416a5761416a614343565b60006001600160401b038211156141ac576141ac614343565b5060051b60200190565b600082198211156141c9576141c961432d565b500190565b600064ffffffffff8083168185168083038211156141ee576141ee61432d565b01949350505050565b60008261421257634e487b7160e01b81526012600452602481fd5b500490565b60008160001904831182151516156142315761423161432d565b500290565b60005b83811015614251578181015183820152602001614239565b83811115614260576000848401525b50505050565b600181811c9082168061427a57607f821691505b6020821081141561429b57634e487b7160e01b600052602260045260246000fd5b50919050565b60a081018181106001600160401b03821117156142c0576142c0614343565b60405250565b61010081018181106001600160401b03821117156142c0576142c0614343565b601f8201601f191681016001600160401b038111828210171561430b5761430b614343565b6040525050565b60006000198214156143265761432661432d565b5060010190565b634e487b7160e01b600052601160045260246000fd5b634e487b7160e01b600052604160045260246000fd5b600060033d111561436e57600481823e5160e01c5b90565b600060443d101561437f5790565b6040516003193d81016004833e81513d6001600160401b0381602484011181841117156143ae57505050505090565b82850191508151818111156143c65750505050505090565b843d87010160208285010111156143e05750505050505090565b6143ef602082860101876142e6565b509095945050505050565b6001600160e01b0319811681146111c457600080fdfea264697066735822122019a775cd7a933a4e03a640b7abbcf898ed727d01c7cac8607485eb2baea7f6c664736f6c63430008040033",
  "linkReferences": {},
  "deployedLinkReferences": {}
}