{
  "_format": "hh-sol-artifact-1",
  "contractName": "PWN",
  "sourceName": "contracts/PWN.sol",
  "abi": [
    {
      "inputs": [
        {
          "internalType": "address",
          "name": "_PWND",
          "type": "address"
        },
        {
          "internalType": "address",
          "name": "_PWNV",
          "type": "address"
        }
      ],
      "stateMutability": "nonpayable",
      "type": "constructor"
    },
    {
      "anonymous": false,
      "inputs": [
        {
          "indexed": true,
          "internalType": "address",
          "name": "previousOwner",
          "type": "address"
        },
        {
          "indexed": true,
          "internalType": "address",
          "name": "newOwner",
          "type": "address"
        }
      ],
      "name": "OwnershipTransferred",
      "type": "event"
    },
    {
      "inputs": [
        {
          "internalType": "uint256",
          "name": "_did",
          "type": "uint256"
        }
      ],
      "name": "claimDeed",
      "outputs": [
        {
          "internalType": "bool",
          "name": "",
          "type": "bool"
        }
      ],
      "stateMutability": "nonpayable",
      "type": "function"
    },
    {
      "inputs": [
        {
          "components": [
            {
              "internalType": "address",
              "name": "collateralAddress",
              "type": "address"
            },
            {
              "internalType": "enum MultiToken.Category",
              "name": "collateralCategory",
              "type": "uint8"
            },
            {
              "internalType": "uint256",
              "name": "collateralAmount",
              "type": "uint256"
            },
            {
              "internalType": "uint256",
              "name": "collateralId",
              "type": "uint256"
            },
            {
              "internalType": "address",
              "name": "loanAssetAddress",
              "type": "address"
            },
            {
              "internalType": "uint256",
              "name": "loanAmount",
              "type": "uint256"
            },
            {
              "internalType": "uint256",
              "name": "loanYield",
              "type": "uint256"
            },
            {
              "internalType": "uint32",
              "name": "duration",
              "type": "uint32"
            },
            {
              "internalType": "uint40",
              "name": "expiration",
              "type": "uint40"
            },
            {
              "internalType": "address",
              "name": "lender",
              "type": "address"
            },
            {
              "internalType": "bytes32",
              "name": "nonce",
              "type": "bytes32"
            }
          ],
          "internalType": "struct PWNDeed.Offer",
          "name": "_offer",
          "type": "tuple"
        },
        {
          "internalType": "bytes",
          "name": "_signature",
          "type": "bytes"
        }
      ],
      "name": "createDeed",
      "outputs": [
        {
          "internalType": "bool",
          "name": "",
          "type": "bool"
        }
      ],
      "stateMutability": "nonpayable",
      "type": "function"
    },
    {
      "inputs": [
        {
          "components": [
            {
              "internalType": "address",
              "name": "collateralAddress",
              "type": "address"
            },
            {
              "internalType": "enum MultiToken.Category",
              "name": "collateralCategory",
              "type": "uint8"
            },
            {
              "internalType": "uint256",
              "name": "collateralAmount",
              "type": "uint256"
            },
            {
              "internalType": "uint256[]",
              "name": "collateralIdsWhitelist",
              "type": "uint256[]"
            },
            {
              "internalType": "address",
              "name": "loanAssetAddress",
              "type": "address"
            },
            {
              "internalType": "uint256",
              "name": "loanAmountMax",
              "type": "uint256"
            },
            {
              "internalType": "uint256",
              "name": "loanAmountMin",
              "type": "uint256"
            },
            {
              "internalType": "uint256",
              "name": "loanYieldMax",
              "type": "uint256"
            },
            {
              "internalType": "uint32",
              "name": "durationMax",
              "type": "uint32"
            },
            {
              "internalType": "uint32",
              "name": "durationMin",
              "type": "uint32"
            },
            {
              "internalType": "uint40",
              "name": "expiration",
              "type": "uint40"
            },
            {
              "internalType": "address",
              "name": "lender",
              "type": "address"
            },
            {
              "internalType": "bytes32",
              "name": "nonce",
              "type": "bytes32"
            }
          ],
          "internalType": "struct PWNDeed.FlexibleOffer",
          "name": "_offer",
          "type": "tuple"
        },
        {
          "components": [
            {
              "internalType": "uint256",
              "name": "collateralId",
              "type": "uint256"
            },
            {
              "internalType": "uint256",
              "name": "loanAmount",
              "type": "uint256"
            },
            {
              "internalType": "uint32",
              "name": "duration",
              "type": "uint32"
            }
          ],
          "internalType": "struct PWNDeed.OfferInstance",
          "name": "_offerInstance",
          "type": "tuple"
        },
        {
          "internalType": "bytes",
          "name": "_signature",
          "type": "bytes"
        }
      ],
      "name": "createDeedFlexible",
      "outputs": [
        {
          "internalType": "bool",
          "name": "",
          "type": "bool"
        }
      ],
      "stateMutability": "nonpayable",
      "type": "function"
    },
    {
      "inputs": [
        {
          "components": [
            {
              "internalType": "address",
              "name": "collateralAddress",
              "type": "address"
            },
            {
              "internalType": "enum MultiToken.Category",
              "name": "collateralCategory",
              "type": "uint8"
            },
            {
              "internalType": "uint256",
              "name": "collateralAmount",
              "type": "uint256"
            },
            {
              "internalType": "uint256",
              "name": "collateralId",
              "type": "uint256"
            },
            {
              "internalType": "address",
              "name": "loanAssetAddress",
              "type": "address"
            },
            {
              "internalType": "uint256",
              "name": "loanAmount",
              "type": "uint256"
            },
            {
              "internalType": "uint256",
              "name": "loanYield",
              "type": "uint256"
            },
            {
              "internalType": "uint32",
              "name": "duration",
              "type": "uint32"
            }
          ],
          "internalType": "struct PWNDeed.LoanParams",
          "name": "_loanParams",
          "type": "tuple"
        },
        {
          "components": [
            {
              "internalType": "uint40",
              "name": "expiration",
              "type": "uint40"
            },
            {
              "internalType": "uint256",
              "name": "loanAmountPart",
              "type": "uint256"
            },
            {
              "internalType": "address",
              "name": "lender",
              "type": "address"
            },
            {
              "internalType": "bytes32",
              "name": "nonce",
              "type": "bytes32"
            },
            {
              "internalType": "bytes",
              "name": "signature",
              "type": "bytes"
            }
          ],
          "internalType": "struct PWNDeed.GroupOfferDigestWithSignature[]",
          "name": "_digestWithSignatureList",
          "type": "tuple[]"
        }
      ],
      "name": "createDeedGroup",
      "outputs": [
        {
          "internalType": "bool",
          "name": "",
          "type": "bool"
        }
      ],
      "stateMutability": "nonpayable",
      "type": "function"
    },
    {
      "inputs": [],
      "name": "deed",
      "outputs": [
        {
          "internalType": "contract PWNDeed",
          "name": "",
          "type": "address"
        }
      ],
      "stateMutability": "view",
      "type": "function"
    },
    {
      "inputs": [],
      "name": "owner",
      "outputs": [
        {
          "internalType": "address",
          "name": "",
          "type": "address"
        }
      ],
      "stateMutability": "view",
      "type": "function"
    },
    {
      "inputs": [],
      "name": "renounceOwnership",
      "outputs": [],
      "stateMutability": "nonpayable",
      "type": "function"
    },
    {
      "inputs": [
        {
          "internalType": "uint256",
          "name": "_did",
          "type": "uint256"
        }
      ],
      "name": "repayLoan",
      "outputs": [
        {
          "internalType": "bool",
          "name": "",
          "type": "bool"
        }
      ],
      "stateMutability": "nonpayable",
      "type": "function"
    },
    {
      "inputs": [
        {
          "internalType": "bytes32",
          "name": "_offerHash",
          "type": "bytes32"
        },
        {
          "internalType": "bytes",
          "name": "_signature",
          "type": "bytes"
        }
      ],
      "name": "revokeOffer",
      "outputs": [
        {
          "internalType": "bool",
          "name": "",
          "type": "bool"
        }
      ],
      "stateMutability": "nonpayable",
      "type": "function"
    },
    {
      "inputs": [
        {
          "internalType": "address",
          "name": "newOwner",
          "type": "address"
        }
      ],
      "name": "transferOwnership",
      "outputs": [],
      "stateMutability": "nonpayable",
      "type": "function"
    },
    {
      "inputs": [],
      "name": "vault",
      "outputs": [
        {
          "internalType": "contract PWNVault",
          "name": "",
          "type": "address"
        }
      ],
      "stateMutability": "view",
      "type": "function"
    }
  ],
  "bytecode": "0x60806040523480156200001157600080fd5b5060405162003e1638038062003e168339810160408190526200003491620000de565b6200003f3362000071565b600180546001600160a01b039384166001600160a01b0319918216179091556002805492909316911617905562000115565b600080546001600160a01b038381166001600160a01b0319831681178455604051919092169283917f8be0079c531659141344cd1fd0a4f28419497f9722a3daafe3b4186f6b6457e09190a35050565b80516001600160a01b0381168114620000d957600080fd5b919050565b60008060408385031215620000f1578182fd5b620000fc83620000c1565b91506200010c60208401620000c1565b90509250929050565b613cf180620001256000396000f3fe60806040523480156200001157600080fd5b5060043610620000b75760003560e01c8063c2f1e6bd116200007a578063c2f1e6bd1462000148578063d01df146146200015c578063e9eb10171462000173578063ea1fb74f146200018a578063f2fde38b14620001a1578063fbfa77cf14620001b857600080fd5b8063501bb2c114620000bc57806358ee9ac314620000e8578063715018a614620000ff5780638da5cb5b146200010b578063ab7b1c891462000131575b600080fd5b620000d3620000cd36600462001763565b620001cc565b60405190151581526020015b60405180910390f35b620000d3620000f9366004620018ca565b62000416565b6200010962000786565b005b6000546001600160a01b03165b6040516001600160a01b039091168152602001620000df565b620000d36200014236600462001a97565b620007f4565b60015462000118906001600160a01b031681565b620000d36200016d3660046200199d565b62000b76565b620000d3620001843660046200166d565b62000dbd565b620000d36200019b36600462001a97565b62000e34565b62000109620001b236600462001606565b6200123b565b60025462000118906001600160a01b031681565b600154604051632f8a91f760e11b81526000916001600160a01b031690635f1523ee906200020590879087908790339060040162001d61565b600060405180830381600087803b1580156200022057600080fd5b505af115801562000235573d6000803e3d6000fd5b505050506000604051806080016040528086600001516001600160a01b03168152602001866020015160028111156200027e57634e487b7160e01b600052602160045260246000fd5b815260200186604001518152602001856000015181525090506000604051806080016040528087608001516001600160a01b0316815260200160006002811115620002d957634e487b7160e01b600052602160045260246000fd5b8152602087810151908201526000604091820152600254905163353dac7560e21b81529192506001600160a01b03169063d4f6b1d49062000321908590339060040162001d07565b602060405180830381600087803b1580156200033c57600080fd5b505af115801562000351573d6000803e3d6000fd5b505050506040513d601f19601f820116820180604052508101906200037791906200164b565b506002546101608701516040516348ebe6f360e11b81526001600160a01b03909216916391d7cde691620003b391859190339060040162001d2f565b602060405180830381600087803b158015620003ce57600080fd5b505af1158015620003e3573d6000803e3d6000fd5b505050506040513d601f19601f820116820180604052508101906200040991906200164b565b5060019695505050505050565b600154604051600091829130916001600160a01b03169086906200043a906200135c565b620004489392919062001c3f565b604051809103906000f08015801562000465573d6000803e3d6000fd5b5060015460405163b3489e1560e01b81529192506001600160a01b03169063b3489e15906200049f90879087908690339060040162001ec1565b600060405180830381600087803b158015620004ba57600080fd5b505af1158015620004cf573d6000803e3d6000fd5b505050506000604051806080016040528086600001516001600160a01b03168152602001866020015160028111156200051857634e487b7160e01b600052602160045260246000fd5b81526040808801516020830152606088015191810191909152600254905163353dac7560e21b81529192506001600160a01b03169063d4f6b1d49062000565908490339060040162001d07565b602060405180830381600087803b1580156200058057600080fd5b505af115801562000595573d6000803e3d6000fd5b505050506040513d601f19601f82011682018060405250810190620005bb91906200164b565b5060005b845181101562000725576000858281518110620005ec57634e487b7160e01b600052603260045260246000fd5b60209081029190910181015160025460408083015160808c01519484015191516362cdf2db60e11b81526001600160a01b03918216600482015233602482015294811660448601526064850191909152919350169063c59be5b690608401602060405180830381600087803b1580156200066557600080fd5b505af11580156200067a573d6000803e3d6000fd5b505050506040513d601f19601f82011682018060405250810190620006a091906200164b565b506040808201516020830151915163016c547560e51b81526001600160a01b0391821660048201526024810192909252851690632d8a8ea090604401600060405180830381600087803b158015620006f757600080fd5b505af11580156200070c573d6000803e3d6000fd5b5050505050806200071d906200218b565b9050620005bf565b50816001600160a01b031663715018a66040518163ffffffff1660e01b8152600401600060405180830381600087803b1580156200076257600080fd5b505af115801562000777573d6000803e3d6000fd5b50600198975050505050505050565b6000546001600160a01b03163314620007e65760405162461bcd60e51b815260206004820181905260248201527f4f776e61626c653a2063616c6c6572206973206e6f7420746865206f776e657260448201526064015b60405180910390fd5b620007f260006200130c565b565b60015460405163ab7b1c8960e01b8152600481018390526000916001600160a01b03169063ab7b1c8990602401600060405180830381600087803b1580156200083c57600080fd5b505af115801562000851573d6000803e3d6000fd5b5050600154604051632820036560e11b815260048101869052600093506001600160a01b03909116915063504006ca9060240160806040518083038186803b1580156200089d57600080fd5b505afa158015620008b2573d6000803e3d6000fd5b505050506040513d601f19601f82011682018060405250810190620008d89190620016e8565b600154604051630ba6bf7960e41b8152600481018690529192506001600160a01b03169063ba6bf7909060240160206040518083038186803b1580156200091e57600080fd5b505afa15801562000933573d6000803e3d6000fd5b505050506040513d601f19601f8201168201806040525081019062000959919062001ab0565b604080830191909152600254905163353dac7560e21b81526001600160a01b039091169063d4f6b1d49062000995908490339060040162001d07565b602060405180830381600087803b158015620009b057600080fd5b505af1158015620009c5573d6000803e3d6000fd5b505050506040513d601f19601f82011682018060405250810190620009eb91906200164b565b506002546001546040516302a62a4960e41b8152600481018690526001600160a01b0392831692637c95e34a921690632a62a4909060240160806040518083038186803b15801562000a3c57600080fd5b505afa15801562000a51573d6000803e3d6000fd5b505050506040513d601f19601f8201168201806040525081019062000a779190620016e8565b600154604051638500d91960e01b8152600481018890526001600160a01b0390911690638500d9199060240160206040518083038186803b15801562000abc57600080fd5b505afa15801562000ad1573d6000803e3d6000fd5b505050506040513d601f19601f8201168201806040525081019062000af791906200162c565b6040518363ffffffff1660e01b815260040162000b1692919062001d07565b602060405180830381600087803b15801562000b3157600080fd5b505af115801562000b46573d6000803e3d6000fd5b505050506040513d601f19601f8201168201806040525081019062000b6c91906200164b565b5060019392505050565b600154604051637cebab3360e11b81526000916001600160a01b03169063f9d756669062000bad9086908690339060040162001fa8565b600060405180830381600087803b15801562000bc857600080fd5b505af115801562000bdd573d6000803e3d6000fd5b505050506000604051806080016040528085600001516001600160a01b031681526020018560200151600281111562000c2657634e487b7160e01b600052602160045260246000fd5b815260200185604001518152602001856060015181525090506000604051806080016040528086608001516001600160a01b031681526020016000600281111562000c8157634e487b7160e01b600052602160045260246000fd5b815260a087015160208201526000604091820152600254905163353dac7560e21b81529192506001600160a01b03169063d4f6b1d49062000cc9908590339060040162001d07565b602060405180830381600087803b15801562000ce457600080fd5b505af115801562000cf9573d6000803e3d6000fd5b505050506040513d601f19601f8201168201806040525081019062000d1f91906200164b565b506002546101208601516040516348ebe6f360e11b81526001600160a01b03909216916391d7cde69162000d5b91859190339060040162001d2f565b602060405180830381600087803b15801562000d7657600080fd5b505af115801562000d8b573d6000803e3d6000fd5b505050506040513d601f19601f8201168201806040525081019062000db191906200164b565b50600195945050505050565b60015460405163ee502d7d60e01b81526000916001600160a01b03169063ee502d7d9062000df690879087908790339060040162001cbe565b600060405180830381600087803b15801562000e1157600080fd5b505af115801562000e26573d6000803e3d6000fd5b506001979650505050505050565b600154604051632e31150760e11b81526004810183905260009182916001600160a01b0390911690635c622a0e9060240160206040518083038186803b15801562000e7e57600080fd5b505afa15801562000e93573d6000803e3d6000fd5b505050506040513d601f19601f8201168201806040525081019062000eb9919062001ac9565b600154604051636eeaf0d960e11b8152600481018690523360248201529192506001600160a01b03169063ddd5e1b290604401600060405180830381600087803b15801562000f0757600080fd5b505af115801562000f1c573d6000803e3d6000fd5b505050508060ff1660031415620010c957600154604051632820036560e11b8152600481018590526000916001600160a01b03169063504006ca9060240160806040518083038186803b15801562000f7357600080fd5b505afa15801562000f88573d6000803e3d6000fd5b505050506040513d601f19601f8201168201806040525081019062000fae9190620016e8565b600154604051630ba6bf7960e41b8152600481018790529192506001600160a01b03169063ba6bf7909060240160206040518083038186803b15801562000ff457600080fd5b505afa15801562001009573d6000803e3d6000fd5b505050506040513d601f19601f820116820180604052508101906200102f919062001ab0565b6040808301919091526002549051633e4af1a560e11b81526001600160a01b0390911690637c95e34a906200106b908490339060040162001d07565b602060405180830381600087803b1580156200108657600080fd5b505af11580156200109b573d6000803e3d6000fd5b505050506040513d601f19601f82011682018060405250810190620010c191906200164b565b5050620011d9565b8060ff1660041415620011d9576002546001546040516302a62a4960e41b8152600481018690526001600160a01b0392831692637c95e34a921690632a62a4909060240160806040518083038186803b1580156200112657600080fd5b505afa1580156200113b573d6000803e3d6000fd5b505050506040513d601f19601f82011682018060405250810190620011619190620016e8565b336040518363ffffffff1660e01b81526004016200118192919062001d07565b602060405180830381600087803b1580156200119c57600080fd5b505af1158015620011b1573d6000803e3d6000fd5b505050506040513d601f19601f82011682018060405250810190620011d791906200164b565b505b600154604051633f34d4cf60e21b8152600481018590523360248201526001600160a01b039091169063fcd3533c90604401600060405180830381600087803b1580156200122657600080fd5b505af115801562000409573d6000803e3d6000fd5b6000546001600160a01b03163314620012975760405162461bcd60e51b815260206004820181905260248201527f4f776e61626c653a2063616c6c6572206973206e6f7420746865206f776e65726044820152606401620007dd565b6001600160a01b038116620012fe5760405162461bcd60e51b815260206004820152602660248201527f4f776e61626c653a206e6577206f776e657220697320746865207a65726f206160448201526564647265737360d01b6064820152608401620007dd565b62001309816200130c565b50565b600080546001600160a01b038381166001600160a01b0319831681178455604051919092169283917f8be0079c531659141344cd1fd0a4f28419497f9722a3daafe3b4186f6b6457e09190a35050565b611ace80620021ee83390190565b80356200137781620021c9565b919050565b600082601f8301126200138d578081fd5b81356020620013a6620013a08362002165565b62002132565b80838252828201915082860187848660051b8901011115620013c6578586fd5b855b85811015620014855781356001600160401b0380821115620013e8578889fd5b9089019060a0828c03601f19018113156200140157898afd5b6200140b62002095565b62001418898501620015f0565b81526040808501358a8301526060808601356200143581620021c9565b80838501525060809150818601358184015250828501359250838311156200145b578b8cfd5b6200146b8e8b85880101620014f6565b9082015287525050509284019290840190600101620013c8565b5090979650505050505050565b600082601f830112620014a3578081fd5b81356020620014b6620013a08362002165565b80838252828201915082860187848660051b8901011115620014d6578586fd5b855b858110156200148557813584529284019290840190600101620014d8565b600082601f83011262001507578081fd5b81356001600160401b03811115620015235762001523620021b3565b62001538601f8201601f191660200162002132565b8181528460208386010111156200154d578283fd5b816020850160208301379081016020019190915292915050565b80356200137781620021df565b60006060828403121562001586578081fd5b604051606081018181106001600160401b0382111715620015ab57620015ab620021b3565b80604052508091508235815260208301356020820152620015cf60408401620015db565b60408201525092915050565b803563ffffffff811681146200137757600080fd5b803564ffffffffff811681146200137757600080fd5b60006020828403121562001618578081fd5b81356200162581620021c9565b9392505050565b6000602082840312156200163e578081fd5b81516200162581620021c9565b6000602082840312156200165d578081fd5b8151801515811462001625578182fd5b60008060006040848603121562001682578182fd5b8335925060208401356001600160401b0380821115620016a0578384fd5b818601915086601f830112620016b4578384fd5b813581811115620016c3578485fd5b876020828501011115620016d5578485fd5b6020830194508093505050509250925092565b600060808284031215620016fa578081fd5b604051608081018181106001600160401b03821117156200171f576200171f620021b3565b60405282516200172f81620021c9565b815260208301516200174181620021df565b6020820152604083810151908201526060928301519281019290925250919050565b600080600060a0848603121562001778578081fd5b83356001600160401b03808211156200178f578283fd5b908501906101a08288031215620017a4578283fd5b620017ae620020c0565b620017b9836200136a565b8152620017c96020840162001567565b602082015260408301356040820152606083013582811115620017ea578485fd5b620017f88982860162001492565b6060830152506200180c608084016200136a565b608082015260a083013560a082015260c083013560c082015260e083013560e08201526101006200183f818501620015db565b9082015261012062001853848201620015db565b9082015261014062001867848201620015f0565b908201526101606200187b8482016200136a565b90820152610180838101359082015294506200189b876020880162001574565b93506080860135915080821115620018b1578283fd5b50620018c086828701620014f6565b9150509250925092565b600080828403610120811215620018df578283fd5b61010080821215620018ef578384fd5b620018f9620020e6565b915084356200190881620021c9565b8252620019186020860162001567565b602083015260408501356040830152606085013560608301526200193f608086016200136a565b608083015260a085013560a083015260c085013560c08301526200196660e08601620015db565b60e08301529092508301356001600160401b0381111562001985578182fd5b62001993858286016200137c565b9150509250929050565b600080828403610180811215620019b2578283fd5b61016080821215620019c2578384fd5b620019cc6200210c565b9150620019d9856200136a565b8252620019e96020860162001567565b6020830152604085013560408301526060850135606083015262001a10608086016200136a565b608083015260a085013560a083015260c085013560c083015262001a3760e08601620015db565b60e083015261010062001a4c818701620015f0565b9083015261012062001a608682016200136a565b9083015261014085810135908301529092508301356001600160401b0381111562001a89578182fd5b6200199385828601620014f6565b60006020828403121562001aa9578081fd5b5035919050565b60006020828403121562001ac2578081fd5b5051919050565b60006020828403121562001adb578081fd5b815160ff8116811462001625578182fd5b6000815180845260208085019450808401835b8381101562001b1d5781518752958201959082019060010162001aff565b509495945050505050565b60008151808452815b8181101562001b4f5760208185018101518683018201520162001b31565b8181111562001b615782602083870101525b50601f01601f19169290920160200192915050565b6003811062001b9557634e487b7160e01b600052602160045260246000fd5b9052565b80516001600160a01b031682526020808201519062001bbb9084018262001b76565b5060408181015190830152606090810151910152565b80516001600160a01b0390811683526020808301519062001bf59085018262001b76565b5060408201516040840152606082015160608401528060808301511660808401525060a081015160a083015260c081015160c083015263ffffffff60e08201511660e08301525050565b6001600160a01b03848116825283166020820152600061018062001c67604084018562001bd1565b6101408301819052601290830152507150574e2067726f7570206f6666657220233160701b6101a08201526101c061016082018190526006908201526550574e474f3160d01b6101e0820152610200019392505050565b848152606060208201528260608201528284608083013760008184016080908101919091526001600160a01b03929092166040820152601f909201601f19169091010192915050565b60a0810162001d17828562001b99565b6001600160a01b039290921660809190910152919050565b60c0810162001d3f828662001b99565b6001600160a01b0393841660808301529190921660a090920191909152919050565b60c0815262001d7c60c0820186516001600160a01b03169052565b6000602086015162001d9260e084018262001b76565b5060408601516101008181850152606088015191506101a0610120818187015262001dc261026087018562001aec565b935060808a015161014062001de1818901836001600160a01b03169052565b60a08c0151915061016082818a015260c08d0151925061018083818b015260e08e0151868b0152868e0151965062001e226101c08b018863ffffffff169052565b938d015163ffffffff9081166101e08b0152918d015164ffffffffff166102008a01528c01516001600160a01b0316610220890152918b01516102408801525088516020808801919091528901516040808801919091528901511660608601525062001e8b9050565b828103608084015262001e9f818662001b28565b91505062001eb860a08301846001600160a01b03169052565b95945050505050565b600061016080830162001ed5848962001bd1565b61010084019190915285519081905261018080840191600581901b8501909101906020808901855b8381101562001f745787850361017f190186528151805164ffffffffff16865283810151848701526040808201516001600160a01b0316908701526060808201519087015260809081015160a09187018290529062001f5f8188018362001b28565b97850197965050509082019060010162001efd565b5050506001600160a01b03871661012086015250915062001f929050565b6001600160a01b03831661014083015262001eb8565b83516001600160a01b0316815260006101a0602086015162001fce602085018262001b76565b506040860151604084015260608601516060840152608086015162001ffe60808501826001600160a01b03169052565b5060a086015160a084015260c086015160c084015260e08601516200202b60e085018263ffffffff169052565b506101008681015164ffffffffff1690840152610120808701516001600160a01b03169084015261014080870151908401526101608301819052620020738184018662001b28565b9150506200208d6101808301846001600160a01b03169052565b949350505050565b60405160a081016001600160401b0381118282101715620020ba57620020ba620021b3565b60405290565b6040516101a081016001600160401b0381118282101715620020ba57620020ba620021b3565b60405161010081016001600160401b0381118282101715620020ba57620020ba620021b3565b60405161016081016001600160401b0381118282101715620020ba57620020ba620021b3565b604051601f8201601f191681016001600160401b03811182821017156200215d576200215d620021b3565b604052919050565b60006001600160401b03821115620021815762002181620021b3565b5060051b60200190565b6000600019821415620021ac57634e487b7160e01b81526011600452602481fd5b5060010190565b634e487b7160e01b600052604160045260246000fd5b6001600160a01b03811681146200130957600080fd5b600381106200130957600080fdfe60806040523480156200001157600080fd5b5060405162001ace38038062001ace833981016040819052620000349162000321565b8181620000413362000168565b815162000056906004906020850190620001b8565b5080516200006c906005906020840190620001b8565b5050600680546001600160a01b038089166001600160a01b03199283161790925560078054888416908316179055855160088054919093169181168217835560208701518794509183916001600160a81b03191617600160a01b836002811115620000e757634e487b7160e01b600052602160045260246000fd5b0217905550604082015160018201556060820151600282015560808201516003820180546001600160a01b0319166001600160a01b0390921691909117905560a0820151600482015560c0820151600582015560e0909101516006909101805463ffffffff191663ffffffff90921691909117905550620004fd9350505050565b600080546001600160a01b038381166001600160a01b0319831681178455604051919092169283917f8be0079c531659141344cd1fd0a4f28419497f9722a3daafe3b4186f6b6457e09190a35050565b828054620001c690620004aa565b90600052602060002090601f016020900481019282620001ea576000855562000235565b82601f106200020557805160ff191683800117855562000235565b8280016001018555821562000235579182015b828111156200023557825182559160200191906001019062000218565b506200024392915062000247565b5090565b5b8082111562000243576000815560010162000248565b80516001600160a01b03811681146200027657600080fd5b919050565b600082601f8301126200028c578081fd5b81516001600160401b03811115620002a857620002a8620004e7565b6020620002be601f8301601f1916820162000477565b8281528582848701011115620002d2578384fd5b835b83811015620002f1578581018301518282018401528201620002d4565b838111156200030257848385840101525b5095945050505050565b805163ffffffff811681146200027657600080fd5b60008060008060008587036101808112156200033b578182fd5b62000346876200025e565b955062000356602088016200025e565b945061010080603f19830112156200036c578283fd5b620003766200044b565b915062000386604089016200025e565b82526060880151600381106200039a578384fd5b60208301526080880151604083015260a08801516060830152620003c160c089016200025e565b608083015260e088015160a083015287015160c0820152620003e761012088016200030c565b60e08201526101408701519093506001600160401b03808211156200040a578283fd5b6200041889838a016200027b565b93506101608801519150808211156200042f578283fd5b506200043e888289016200027b565b9150509295509295909350565b60405161010081016001600160401b0381118282101715620004715762000471620004e7565b60405290565b604051601f8201601f191681016001600160401b0381118282101715620004a257620004a2620004e7565b604052919050565b600181811c90821680620004bf57607f821691505b60208210811415620004e157634e487b7160e01b600052602260045260246000fd5b50919050565b634e487b7160e01b600052604160045260246000fd5b6115c1806200050d6000396000f3fe608060405234801561001057600080fd5b506004361061018e5760003560e01c806371ff3d2f116100de578063bc197c8111610097578063dd365b8b11610071578063dd365b8b146103a1578063dd62ed3e146103b4578063f23a6e61146103ed578063f2fde38b1461040d57600080fd5b8063bc197c8114610352578063be040fb014610272578063c19d93fb1461038d57600080fd5b806371ff3d2f146102e057806383f2be4d1461030b5780638da5cb5b1461031357806395d89b4114610324578063a457c2d71461032c578063a9059cbb1461033f57600080fd5b80632d8a8ea01161014b5780633950935111610125578063395093511461029c5780636b64c7691461027257806370a08231146102af578063715018a6146102d857600080fd5b80632d8a8ea01461025f578063313ce56714610274578063379607f51461028957600080fd5b806301ffc9a71461019357806306fdde03146101bb578063095ea7b3146101d057806309e94d98146101e357806318160ddd1461023a57806323b872dd1461024c575b600080fd5b6101a66101a136600461135a565b610420565b60405190151581526020015b60405180910390f35b6101c361048d565b6040516101b29190611444565b6101a66101de366004611311565b61051f565b600854600954600a54600b54600c54600d54600e54610226966001600160a01b0380821697600160a01b90920460ff169691959194911692909163ffffffff1688565b6040516101b29897969594939291906113d3565b6003545b6040519081526020016101b2565b6101a661025a366004611260565b610535565b61027261026d366004611311565b6105e4565b005b60125b60405160ff90911681526020016101b2565b610272610297366004611382565b61061c565b6101a66102aa366004611311565b610791565b61023e6102bd366004611156565b6001600160a01b031660009081526001602052604090205490565b6102726107cf565b6007546102f3906001600160a01b031681565b6040516001600160a01b0390911681526020016101b2565b610272610803565b6000546001600160a01b03166102f3565b6101c36109f7565b6101a661033a366004611311565b610a06565b6101a661034d366004611311565b610a9f565b6103746103603660046111a9565b63bc197c8160e01b98975050505050505050565b6040516001600160e01b031990911681526020016101b2565b60075461027790600160a01b900460ff1681565b6006546102f3906001600160a01b031681565b61023e6103c2366004611177565b6001600160a01b03918216600090815260026020908152604080832093909416825291909152205490565b6103746103fb36600461129b565b63f23a6e6160e01b9695505050505050565b61027261041b366004611156565b610aac565b60006001600160e01b031982166301ffc9a760e01b148061045157506001600160e01b03198216630704183b60e11b145b8061046c57506001600160e01b03198216630271189760e51b145b8061048757506001600160e01b031982166336372b0760e01b145b92915050565b60606004805461049c9061153a565b80601f01602080910402602001604051908101604052809291908181526020018280546104c89061153a565b80156105155780601f106104ea57610100808354040283529160200191610515565b820191906000526020600020905b8154815290600101906020018083116104f857829003601f168201915b5050505050905090565b600061052c338484610b47565b50600192915050565b6000610542848484610c6c565b6001600160a01b0384166000908152600260209081526040808320338452909152902054828110156105cc5760405162461bcd60e51b815260206004820152602860248201527f45524332303a207472616e7366657220616d6f756e74206578636565647320616044820152676c6c6f77616e636560c01b60648201526084015b60405180910390fd5b6105d98533858403610b47565b506001949350505050565b6000546001600160a01b0316331461060e5760405162461bcd60e51b81526004016105c390611497565b6106188282610e3b565b5050565b600754604051632e31150760e11b8152600481018390526000916001600160a01b031690635c622a0e9060240160206040518083038186803b15801561066157600080fd5b505afa158015610675573d6000803e3d6000fd5b505050506040513d601f19601f8201168201806040525081019061069991906113b2565b90508060ff16600314156106bf576007805460ff60a01b1916600160a01b1790556106df565b8060ff16600414156106df576007805460ff60a01b1916600160a11b1790555b60065460405163ea1fb74f60e01b8152600481018490526001600160a01b039091169063ea1fb74f90602401602060405180830381600087803b15801561072557600080fd5b505af1158015610739573d6000803e3d6000fd5b505050506040513d601f19601f8201168201806040525081019061075d919061133a565b5060405182907fa15f537ebc49d6f6d5217f43d2c5d2b830069397bed363fdc1d811814148ec6d90600090a2610618610803565b3360008181526002602090815260408083206001600160a01b0387168452909152812054909161052c9185906107c89086906114cc565b610b47565b565b6000546001600160a01b031633146107f95760405162461bcd60e51b81526004016105c390611497565b6107cd6000610f1a565b600754600160a01b900460ff166001146108755760405162461bcd60e51b815260206004820152602d60248201527f4465656420686173206e6f74206265656e20636c61696d656420796574206f7260448201526c081a5cc8191959985d5b1d1959609a1b60648201526084016105c3565b600061088060035490565b600b546040516370a0823160e01b81523060048201526001600160a01b03909116906370a082319060240160206040518083038186803b1580156108c357600080fd5b505afa1580156108d7573d6000803e3d6000fd5b505050506040513d601f19601f820116820180604052508101906108fb919061139a565b336000908152600160205260409020546109159190611504565b61091f91906114e4565b600b5460405163a9059cbb60e01b8152336004820152602481018390529192506001600160a01b03169063a9059cbb90604401602060405180830381600087803b15801561096c57600080fd5b505af1158015610980573d6000803e3d6000fd5b505050506040513d601f19601f820116820180604052508101906109a4919061133a565b50336000818152600160205260409020546109bf9190610f6a565b60405181815233907f52438ffde1a85dfde9df04265db0a0f54caa9ab98932b84214074743c2ed2b6c9060200160405180910390a250565b60606005805461049c9061153a565b3360009081526002602090815260408083206001600160a01b038616845290915281205482811015610a885760405162461bcd60e51b815260206004820152602560248201527f45524332303a2064656372656173656420616c6c6f77616e63652062656c6f77604482015264207a65726f60d81b60648201526084016105c3565b610a953385858403610b47565b5060019392505050565b600061052c338484610c6c565b6000546001600160a01b03163314610ad65760405162461bcd60e51b81526004016105c390611497565b6001600160a01b038116610b3b5760405162461bcd60e51b815260206004820152602660248201527f4f776e61626c653a206e6577206f776e657220697320746865207a65726f206160448201526564647265737360d01b60648201526084016105c3565b610b4481610f1a565b50565b6001600160a01b038316610ba95760405162461bcd60e51b8152602060048201526024808201527f45524332303a20617070726f76652066726f6d20746865207a65726f206164646044820152637265737360e01b60648201526084016105c3565b6001600160a01b038216610c0a5760405162461bcd60e51b815260206004820152602260248201527f45524332303a20617070726f766520746f20746865207a65726f206164647265604482015261737360f01b60648201526084016105c3565b6001600160a01b0383811660008181526002602090815260408083209487168084529482529182902085905590518481527f8c5be1e5ebec7d5bd14f71427d1e84f3dd0314c0f7b2291e5b200ac8c7c3b92591015b60405180910390a3505050565b6001600160a01b038316610cd05760405162461bcd60e51b815260206004820152602560248201527f45524332303a207472616e736665722066726f6d20746865207a65726f206164604482015264647265737360d81b60648201526084016105c3565b6001600160a01b038216610d325760405162461bcd60e51b815260206004820152602360248201527f45524332303a207472616e7366657220746f20746865207a65726f206164647260448201526265737360e81b60648201526084016105c3565b6001600160a01b03831660009081526001602052604090205481811015610daa5760405162461bcd60e51b815260206004820152602660248201527f45524332303a207472616e7366657220616d6f756e7420657863656564732062604482015265616c616e636560d01b60648201526084016105c3565b6001600160a01b03808516600090815260016020526040808220858503905591851681529081208054849290610de19084906114cc565b92505081905550826001600160a01b0316846001600160a01b03167fddf252ad1be2c89b69c2b068fc378daa952ba7f163c4a11628f55a4df523b3ef84604051610e2d91815260200190565b60405180910390a350505050565b6001600160a01b038216610e915760405162461bcd60e51b815260206004820152601f60248201527f45524332303a206d696e7420746f20746865207a65726f20616464726573730060448201526064016105c3565b8060036000828254610ea391906114cc565b90915550506001600160a01b03821660009081526001602052604081208054839290610ed09084906114cc565b90915550506040518181526001600160a01b038316906000907fddf252ad1be2c89b69c2b068fc378daa952ba7f163c4a11628f55a4df523b3ef9060200160405180910390a35050565b600080546001600160a01b038381166001600160a01b0319831681178455604051919092169283917f8be0079c531659141344cd1fd0a4f28419497f9722a3daafe3b4186f6b6457e09190a35050565b6001600160a01b038216610fca5760405162461bcd60e51b815260206004820152602160248201527f45524332303a206275726e2066726f6d20746865207a65726f206164647265736044820152607360f81b60648201526084016105c3565b6001600160a01b0382166000908152600160205260409020548181101561103e5760405162461bcd60e51b815260206004820152602260248201527f45524332303a206275726e20616d6f756e7420657863656564732062616c616e604482015261636560f01b60648201526084016105c3565b6001600160a01b038316600090815260016020526040812083830390556003805484929061106d908490611523565b90915550506040518281526000906001600160a01b038516907fddf252ad1be2c89b69c2b068fc378daa952ba7f163c4a11628f55a4df523b3ef90602001610c5f565b80356001600160a01b03811681146110c757600080fd5b919050565b60008083601f8401126110dd578182fd5b50813567ffffffffffffffff8111156110f4578182fd5b6020830191508360208260051b850101111561110f57600080fd5b9250929050565b60008083601f840112611127578182fd5b50813567ffffffffffffffff81111561113e578182fd5b60208301915083602082850101111561110f57600080fd5b600060208284031215611167578081fd5b611170826110b0565b9392505050565b60008060408385031215611189578081fd5b611192836110b0565b91506111a0602084016110b0565b90509250929050565b60008060008060008060008060a0898b0312156111c4578384fd5b6111cd896110b0565b97506111db60208a016110b0565b9650604089013567ffffffffffffffff808211156111f7578586fd5b6112038c838d016110cc565b909850965060608b013591508082111561121b578586fd5b6112278c838d016110cc565b909650945060808b013591508082111561123f578384fd5b5061124c8b828c01611116565b999c989b5096995094979396929594505050565b600080600060608486031215611274578283fd5b61127d846110b0565b925061128b602085016110b0565b9150604084013590509250925092565b60008060008060008060a087890312156112b3578182fd5b6112bc876110b0565b95506112ca602088016110b0565b94506040870135935060608701359250608087013567ffffffffffffffff8111156112f3578283fd5b6112ff89828a01611116565b979a9699509497509295939492505050565b60008060408385031215611323578182fd5b61132c836110b0565b946020939093013593505050565b60006020828403121561134b578081fd5b81518015158114611170578182fd5b60006020828403121561136b578081fd5b81356001600160e01b031981168114611170578182fd5b600060208284031215611393578081fd5b5035919050565b6000602082840312156113ab578081fd5b5051919050565b6000602082840312156113c3578081fd5b815160ff81168114611170578182fd5b6001600160a01b03898116825261010082019060038a1061140457634e487b7160e01b600052602160045260246000fd5b8960208401528860408401528760608401528087166080840152508460a08301528360c083015263ffffffff831660e08301529998505050505050505050565b6000602080835283518082850152825b8181101561147057858101830151858201604001528201611454565b818111156114815783604083870101525b50601f01601f1916929092016040019392505050565b6020808252818101527f4f776e61626c653a2063616c6c6572206973206e6f7420746865206f776e6572604082015260600190565b600082198211156114df576114df611575565b500190565b6000826114ff57634e487b7160e01b81526012600452602481fd5b500490565b600081600019048311821515161561151e5761151e611575565b500290565b60008282101561153557611535611575565b500390565b600181811c9082168061154e57607f821691505b6020821081141561156f57634e487b7160e01b600052602260045260246000fd5b50919050565b634e487b7160e01b600052601160045260246000fdfea264697066735822122007f58434480a4d72f78eb9f51692beef9d56719ebc4d6c501739362f4afc0f0c64736f6c63430008040033a2646970667358221220752dcf3bdbc8ad358da1b31a5867264f04aaa928062a5147cdbaa1724263ee5164736f6c63430008040033",
  "linkReferences": {},
  "deployedLinkReferences": {}
}